:020000040800F2
:10000000B807002089010008A92800080124000879
:10001000A528000845020008352C00080000000053
:100020000000000000000000000000001D2C00087F
:100030004902000800000000B5280008212C000833
:10004000A3010008A3010008A3010008A301000800
:10005000A3010008A3010008A3010008550200083D
:10006000A3010008A3010008A3010008A3010008E0
:10007000A3010008A3010008A3010008A3010008D0
:10008000A3010008A3010008A3010008A3010008C0
:10009000A3010008A3010008A3010008A3010008B0
:1000A000A3010008A3010008A3010008A3010008A0
:1000B000A3010008A3010008A3010008A301000890
:1000C000A3010008A3010008A3010008A301000880
:1000D000A3010008A3010008A3010008A301000870
:1000E0004D02000805290008A301000800F002F8ED
:1000F00000F03AF80AA090E8000C82448344AAF188
:100100000107DA4501D100F02FF8AFF2090EBAE885
:100110000F0013F0010F18BFFB1A43F0010318473B
:100120006C3000008C300000103A24BF78C878C1D1
:10013000FAD8520724BF30C830C144BF04680C60ED
:10014000704700000023002400250026103A28BF35
:1001500078C1FBD8520728BF30C148BF0B60704739
:100160001FB51FBD10B510BD00F031F81146FFF7E7
:10017000F7FF02F097FE00F04FF803B4FFF7F2FF2D
:1001800003BC00F057F800000948804709480047C1
:10019000FEE7FEE7FEE7FEE7FEE7FEE7FEE7FEE737
:1001A000FEE7FEE704480549054A064B7047000094
:1001B000312C0008ED000008B8010020B80700202D
:1001C000B8030020B8030020704770477047754699
:1001D00000F02CF8AE4605006946534620F00700B3
:1001E000854618B020B5FFF7DDFFBDE820404FF091
:1001F00000064FF000074FF000084FF0000BAC4630
:10020000ACE8C009ACE8C009ACE8C009ACE8C0097A
:1002100021F007018D46704710B50446AFF300800A
:100220002046BDE81040FFF7A8BF00000048704717
:100230001000002001491820ABBEFEE72600020096
:1002400070470000FEE70000704700004FF40050C8
:1002500000F01CBA022000F019BA0000EFF3108081
:1002600072B600BFFEE7000010B581B00022009218
:1002700090F82420012A03D10221084601B010BDC4
:100280004B680122062B80F8242017D8D0F800C034
:1002900003EB83035A1F1F23DCF834E003FA02F454
:1002A0000B682EEA040403FA02F22243CCF834204D
:1002B000092B03EB430219D936E000BFD0F800C088
:1002C0000C2B03EB83021DD8233A1F23DCF830E00C
:1002D00003FA02F40B682EEA040403FA02F2224342
:1002E000CCF83020092B03EB43021DD8DCF810308A
:1002F000072489689440A34391401943CCF8101017
:10030000002130E0413A1F23DCF82CE003FA02F42C
:100310000B682EEA040403FA02F22243CCF82C20E4
:10032000092B03EB4302E1D9DCF80CE01E3A072469
:10033000896894402EEA0404914023F0010221438D
:10034000102ACCF80C100DD142F20841C4F2010180
:10035000A1F1080294450DD0816A41F0200181622B
:10036000012100E00021002280F82420084601B08D
:1003700010BD00BF0A68120230D40A68102B42F484
:1003800000020A602CD140F20801C2F200010968A3
:100390004DF68362C4F21B32A1FB0212910C01EBF9
:1003A0008101490000910099E1B100990139009162
:1003B0000099C9B10099013900910099B1B1009932
:1003C00001390091009999B1009901390091009982
:1003D00000294FF00001E8D1C5E700BF0021C2E7C6
:1003E0000021C0E70021BEE70021BCE70021BAE7F9
:1003F0000021B8E7B0B5002800F0A8800446806A64
:1004000020B121688868C0070BD114E00020E062A9
:1004100084F82400204600F09BF821688868C00713
:1004200009D0886820F00100886000F05DFA21683A
:100430008A68D20726D1A06AC0063AD4A06A41F2DF
:10044000021290430230A062E069D4E9013240EA2E
:10045000030C531EB3FA83F35D091346B2F5807F94
:1004600018BF2B02207D257B01284CEA450030D1A6
:1004700035B3A56A45F02005A562E56A45F001059A
:10048000E56226E0054602E08868C007D3D000F0A8
:100490002BFA401B21680328F6D38868C007F3D0E5
:1004A000A06A40F01000A062E06A40F00100E06243
:1004B000A06AA06A40F01000A0620120B0BD00BF99
:1004C000D4F818C04EF60005CFF6FF7505EB4C3595
:1004D0002B434D68B2F5807F25F4694543EA050357
:1004E0004B608B684FF2FD75CFF6E17503EA0503AB
:1004F00043EA00038B6001D0012A07D1226900235F
:10050000CFF6F07303EB025201E000BF0022CB6A8A
:1005100023F470031A43CA62896840F6FE62CFF67C
:100520001F721140814207D10020E062A16A0122BE
:1005300062F30101A162B0BDA06A40F0100020F09A
:100540000200A062E06A40F00100E0620120B0BD5C
:1005500080B586B0014640F60000C4F2010009688B
:1005600000F5E05291424FF00001CDE9041101D0B5
:1005700006B080BD41F21801C4F202010A6842F4DB
:1005800000720A600A6802F400720192019A0A6815
:1005900042F004020A60096801F004010191019926
:1005A000F02102910321039102A900F07BF806B02B
:1005B00080BD0000B0B5044600F096F9054640F253
:1005C0000000C2F200000078611C18BF044400BFA4
:1005D00000F08AF9401BA042FAD3B0BD10B5044622
:1005E00002F0C8FBB4F5005F02D0022C18BF10BDAA
:1005F00041F20000C4F20200016841F00101016013
:100600000168890709D4016889075CBF01685FEA4E
:10061000817102D401688907F2D5016841F08071C7
:1006200001600168890109D4016889015CBF016822
:100630005FEA811102D401688901F2D54168022282
:1006400062F30101416000BF416801F00C0108291B
:100650000ED0416801F00C01082909D0416801F071
:100660000C01082904D0416801F00C010829EBD1E4
:1006700040F60000C4F201004FF40061012200F0D6
:100680002DF9BDE8104000F0EDB9000040F2144132
:10069000C4F201010A68024214BF08607047FFF704
:1006A0009DBF00002DE9F04F82B00E68002E00F0D3
:1006B000038141F20042C4F20102042340F2004EE1
:1006C000904208BF03234FF6FF7CC4F2010E009353
:1006D00000240123C1F2100C4FF0000A4FF0000972
:1006E00049E000BF012704F00C030F229A402BEAD7
:1006F000020207FA03F34FEA9A051A4346F8252047
:10070000D1F804B040F20C455FEACB22DEF80820B5
:1007100054BF22EA080242EA0802C4F20105CEF8F8
:1007200008202A685FEA8B2354BF22EA080242EAC3
:1007300008022A605FEA8B33DEF8042054BF22EA05
:10074000080242EA08025FEACB33CEF80420DEF862
:1007500000204FF0010354BF22EA080242EA0802D7
:10076000CEF800200E680AF1010A36FA0AF204F106
:10077000040400F0A18003FA0AF816EA080FF1D089
:100780004E68664512DC122E56D8DFE806F0350BAF
:100790004549555555555555555555555555554D2D
:1007A000510000BFD1F80C9046E000BF4FF6FF7239
:1007B000C1F2210296420FDC0022C1F211029642E0
:1007C0001AD00022C1F21202964215D00022C1F2C4
:1007D0002102964210D02FE00022C1F2220296425E
:1007E0000AD00022C1F23102964205D00022C1F2A5
:1007F0003202964220D100BF8A684AB1012A14BF52
:10080000C0F81480C0F810804FF0080914E000BF51
:100810004FF0040910E000BFCA6802F108090BE0BC
:100820004FF0000908E000BFCA6802F1040903E0C4
:10083000CA6802F10C0900BF22460646BAF1080F49
:1008400024BF203A043637680F25954027EA05056E
:1008500009FA02F22A433260CA79D2067FF582AFE2
:1008600041F21803C4F202031A68AEF57E7642F034
:1008700001021A601A6802F001020192019A2AF03C
:10088000030256F802B040F60002C4F201029042A0
:1008900010D040F60042C4F2010290423FF422AF71
:1008A00041F20002C4F20102009F904208BF0227F9
:1008B00019E700BF002716E702B0BDE8F08F00007F
:1008C0008068084018BF012070470000C26802EA33
:1008D0000103914341EA034101617047002A08BFC7
:1008E000090401617047000040F2B010C2F200003C
:1008F0000068704740F2000040F2B011C2F2000000
:10090000C2F2000100780A681044086070470000D5
:1009100080B542F20000C4F20200016841F010010B
:100920000160032000F08EF80F2000F005F800F0C1
:1009300027F8002080BD000070B540F20006C2F22A
:10094000000640F208013278C2F200014FF47A73D7
:100950000968B3FBF2F20446B1FBF2F1084601F07C
:10096000B3F90F2C4FF0010508D838B94FF0FF301C
:1009700021460022002500F039F87460284670BD39
:1009800082B041F21800C4F202000168022241F074
:1009900001010160016801F00101019101994168C3
:1009A00041F080514160406800F080500090009814
:1009B0000420C4F20100016862F31A61016002B010
:1009C00070470000002848BF7047C1B200F01F0008
:1009D000012202FA00F04EF20012CEF2000242EAC8
:1009E000D10121F0030108607047000010B54EF6F8
:1009F0000C5CCEF2000CDCF80030C3F3022E8EF05B
:100A00000704042C28BF0424BEF103034FF0FF3E6B
:100A10000EFA04F438BF0023A14399400EFA03F301
:100A20009A43114300F00F0200F160430901043AB8
:100A300003F564436244002848BF02F10C031970B7
:100A400010BD00004EF60C51CEF200010A684FF6C0
:100A5000FF031A4060F30A2242F0806040F0FD700C
:100A6000086070474EF61050CEF20000016821F089
:100A700002010160704700002020C4F20E20012115
:100A80000160704710B547F20002C4F2000213681B
:100A90004EF6105423F0020313601368CEF20004E4
:100AA00023F00103184310602068012940F004007E
:100AB000206009D1BFF34F8F30BFBFF36F8F206825
:100AC00020F00400206010BD40BF01F0EFFE01F0F7
:100AD000EDFE206820F00400206010BD80B50128E4
:100AE00018D0022836D0102832D141F20401C4F2C5
:100AF00002010A6851F8040CC00129D5C2F38340F1
:100B00002DA3185CD2033DD440F60012C0F23D0282
:100B1000504343E041F20400C4F20200C16940F2D4
:100B200002320A40B2F5817F04BF4FF4004080BD1D
:100B300001F44071B1F5407F1CD0B1F5007F07D1C1
:100B4000006A49F64041800701EAE07080BD00BFBD
:100B5000002080BD00F0B4F941F20401C4F20201AA
:100B600009680222C1F3813102EB4101B0FBF1F0CF
:100B700080BD00BF50F8040C4FF22441800301EA0D
:100B8000E07080BD0A6810A3C2F340429A5C41F253
:100B90000023C0F27A03B3FBF2F250430968490222
:100BA00048BF80BD4AF6AB214000CAF6AA21A0FB8F
:100BB0000101480880BD00BF0203040506070809BB
:100BC0000A0B0C0D0E0F1010010200002DE9F04170
:100BD00082B00446007841F21C06C007C4F2020647
:100BE0004AD0306810F0805808D1306840F080500A
:100BF0003060306800F080500190019847F20007A3
:100C0000C4F200073868C00512D4386840F4807018
:100C10003860FFF769FE05463868C00508D4FFF75D
:100C200063FE401B6428F7D9032002B0BDE8F081C1
:100C3000706810F4407012D0616801F4407188420D
:100C40000DD0706840F24042C4F24222012320F4E9
:100C5000407113600023C007136071602AD170686F
:100C6000616820F440700843B8F1000F706003D150
:100C7000306820F0805030602068810707D556F832
:100C8000181CA26821F44041114346F8181CC00604
:100C900004D4002002B0BDE8F08100BF56F8180C63
:100CA000E16820F48000084346F8180C002002B0E8
:100CB000BDE8F081FFF718FE054641F2883700BF16
:100CC00070688007CBD4FFF70FFE401BB8424FF08F
:100CD0000300F5D9EBE700002DE9F04381B00028CF
:100CE00000F0858042F20008C4F202080446D8F8F9
:100CF00000000D4600F0070088420CD2D8F8000032
:100D000020F007002843C8F80000D8F8000000F0E1
:100D10000700A8426BD1206841F204098107C4F2A0
:100D2000020917D5410705D5D9F8001041F4E06153
:100D3000C9F80010010705D5D9F8001041F4605139
:100D4000C9F80010D9F80010A26821F0F001114391
:100D5000C9F80010C00741D1D8F8000000F0070022
:100D6000A8420CD9D8F8000020F007002843C8F8A2
:100D70000000D8F8000000F00700A84237D1206832
:100D8000410707D5D9F80010E26821F4E06111436A
:100D9000C9F80010000708D5D9F80000216920F42F
:100DA000605040EAC100C9F80000D9F8002002F004
:100DB0000C00082841F20020C0F27A0050D143F222
:100DC0007C13C2F38341C0F60003595CD2033BD4C9
:100DD00040F60010C0F23D00484341E06068022840
:100DE0000AD001282AD159F8041C890308D401200B
:100DF00001B0BDE8F08300BF59F8041C8901F6D5A5
:100E0000D9F8001021F003010843C9F80000FFF7EA
:100E10006BFD064641F28837D9F80000616800F0A2
:100E20000C00B0EB810F97D0FFF75EFD801BB8423E
:100E3000F2D9032001B0BDE8F08300BF59F8041CCB
:100E40008907D4D5DCE700BFD9F8002043F27A1334
:100E5000C2F34042C0F600039A5C4843B0FBF2F094
:100E6000D9F8001043F26212C1F30311C0F6000278
:100E7000515C40F2080220FA01F140F20400C2F293
:100E800000000068C2F200021160FFF755FD00206B
:100E900001B0BDE8F083000040F2080041F2040117
:100EA000C2F20000C4F202010068096843F2721243
:100EB000C1F30221C0F60002515CC8407047000037
:100EC00040F2080041F20401C2F20000C4F2020143
:100ED0000068096843F27212C1F3C221C0F6000231
:100EE000515CC840704700002DE9F04182B00028F5
:100EF00068D00446007841F20006C007C4F202063A
:100F000025D0706800F00C0004281BD0706800F039
:100F10000C00082802D17068C00313D46068002850
:100F200000F06881B0F5A02F00F07C81B0F5803F23
:100F300000F07C81306820F480303060306820F42C
:100F4000802076E13068800301D56068D0B32078D6
:100F5000800718D5706810F00C0F07D0706800F08B
:100F60000C0008286ED17068C0036BD4306880070D
:100F700002D52069012825D13068616920F0F80088
:100F800040EAC1003060207800071FD42078400775
:100F900032D4E56995B1706800F00C00082840F083
:100FA0008F80012D0ED07068216A00F480328A4251
:100FB00008D1616A00F47010884203D1002002B0A9
:100FC000BDE8F081012002B0BDE8F081A0690028F1
:100FD00062D00020C4F242200121C0F88014FFF743
:100FE00083FC0546706A800700F18C80FFF77CFC6B
:100FF000401B0228F6D92AE1F06910F0805808D188
:10100000F06940F08050F061F06900F0805000908D
:10101000009847F20007C4F200073868C00529D4D9
:10102000386840F480703860FFF75EFC054600BF0A
:101030003868C0051ED4FFF757FC401B6428F7D959
:1010400005E100BF2069002840F20000C4F2422000
:1010500000F0828001210160FFF746FC054600BFD9
:10106000306880073FF588AFFFF73EFC401B022841
:10107000F6D9ECE0E068002800F08080052800F058
:101080009780012800F09880306A20F001003062DB
:10109000306A20F0040092E00020C4F242200021D7
:1010A000C0F88014FFF720FC054600BF706A800777
:1010B0007FF56CAFFFF718FC401B0228F6D9C6E09D
:1010C0000027C4F2422700203866FFF70DFC022DEE
:1010D00005460BD13068800140F1BE80FFF704FC6B
:1010E000401B02284FF00300F4D968E73068800104
:1010F0007FF564AFFFF7F8FB401B02284FF00300B9
:10110000F4D95CE740F20800C2F20000006844F63F
:10111000D351C1F26201A0FB0101480A019000BF56
:1011200000BF0198411E002801913FF42FAF00BF7E
:101130000198411E002801913FF428AF00BF01989B
:10114000411E002801913FF421AF00BF0198411ECC
:1011500000280191E4D119E700210160FFF7C4FBE9
:10116000054600BF306880077FF50DAFFFF7BCFB79
:10117000401B02284FF00300F4D920E7306A20F02A
:1011800001003062306A20F004003062FFF7ACFBEF
:10119000054641F2883700BF306A800720D5FFF747
:1011A000A3FB401BB8424FF00300F5D907E700BF8F
:1011B000306A40F004003062306A40F00100306272
:1011C000FFF792FB054641F2883700BF306A80077F
:1011D00006D4FFF789FB401BB842F7D937E000BFC0
:1011E000B8F1000F7FF4D5AEF06920F08050F061C7
:1011F000CFE600BF306820F480303060306820F4E3
:1012000080203060FFF770FB054600BF3068800328
:101210007FF59DAEFFF768FB401B64284FF003008D
:10122000F4D9CCE6306840F480203060306840F477
:1012300080303060FFF758FB054600BF3068800300
:101240003FF585AEFFF750FB401B6428F6D903201D
:1012500002B0BDE8F08100BF206AB0F5803F05D143
:101260007168A26821F40031114371607168626A8B
:1012700021F4741111430843706001203866FFF7B0
:1012800033FB0446306880013FF598AEFFF72CFB36
:10129000001B02284FF00300F4D990E641F2000051
:1012A000C4F20200016841F0010101600168890790
:1012B00009D4016889075CBF01685FEA817102D4C3
:1012C00001688907F2D5016841F080710160016809
:1012D000890109D4016889015CBF01685FEA811155
:1012E00002D401688901F2D54168022262F301014A
:1012F000416000BF416801F00C0108290ED041682F
:1013000001F00C01082909D0416801F00C010829FD
:1013100004D0416801F00C010829EBD140F27000C3
:10132000C2F200008178013181708178082924BFE0
:1013300000218170012141707047000010B5044602
:1013400000680168890744BF40685FEA807009D47B
:1013500040F21440C4F201004FF40031016001205A
:10136000607410BD2046FFF799FF2068416821F0A6
:1013700002014160ECE70000B0B5E8B10446007C32
:1013800001284FF0020008BFB0BD01212174607434
:101390002068016821F002010160FFF7A5FA054607
:1013A00020684168890609D4FFF79EFA401BB0F512
:1013B0007A7FF5D928E000BF0120B0BD416841F037
:1013C00010014160416821F0020141604FF6FF7158
:1013D0000162416240F20041C4F201010A6822F454
:1013E00000320A60416821F010014160FFF77CFA89
:1013F000054600BF2068406880060BD4FFF774FAEA
:10140000401BB0F57A7FF5D90120042161740021D9
:101410002174B0BD00200121617400212174B0BD90
:101420002DE9F047064600284FF0010000F0A580A6
:101430000C46002900F0A18030684168490700F19E
:10144000D98091468269C169836948F6890583EA32
:1014500002073F041CBFC1691A4689B241EA024132
:101460004BF2C532C9F2A212A1FB0223DA0A4FF4F1
:10147000616302FB13139FB26F437D0D65702D01F5
:10148000A5EB5757A3EB870345F28017C0F201077E
:10149000B942A37036D344F20753CCF22E23A1FBFA
:1014A00003374AF6AB23CAF6AA23A2FB03352B095E
:1014B00003EB4303A2EBC3022270026A406A4FEAC5
:1014C000174880B240EA0240451A98BF4FF0FF35F6
:1014D000421C4AF68062CFF6FE7208FB021A08BF71
:1014E0000546FFF701FA074630684168890647D488
:1014F000FFF7FAF9C01BB0F57A7FF5D90120BDE8F6
:10150000F08700BF2270B9F1000F00F09F802178B2
:10151000CD26A1F10A03DFB27743FD0A05EB85056D
:101520006278A3EB45030125A07805EBD7270929AD
:1015300088BF43EA07112170A2F10A01CBB27343BD
:10154000DF0A07EB8707A1EB470105EBD323092A45
:1015500088BF41EA0312A0F10A016270CAB2724365
:10156000D30A03EB8303A1EB430105EBD222092845
:1015700088BF41EA0210A0700020BDE8F08700BFDC
:10158000416841F0100141604FEA1A4181611FFA40
:101590008AF1C161416821F010014160FFF7A4F9AF
:1015A000074600BF30684068800609D4FFF79CF901
:1015B000C01BB0F57A7FF5D90120BDE8F08700BFE8
:1015C000681C11D05544FFF78FF907463068416811
:1015D000890613D4FFF788F9C01BB0F57A7F4FF066
:1015E0000100F3D9C9E700BF30464FF0FF3101F0E9
:1015F000E5FA18B30120BDE8F08700BF416841F06B
:1016000010014160290C0162A9B24162416821F0D8
:1016100010014160FFF768F9074600BF3068406875
:1016200080060BD4FFF760F9C01BB0F57A7F4FF04E
:10163000010088BFBDE8F087F0E700BF30464146B3
:1016400001F066F9B9F1000F7FF461AF0020BDE849
:10165000F087000070B5002866D00446407C20B9B1
:1016600000202074204600F06FF80220607420688B
:10167000416821F008014160FFF736F9064600BFD6
:1016800020684568FFF730F9290705460ED4A81BE6
:10169000B0F57A7FF4D9012504206074284670BD26
:1016A000FFF722F9401BB0F57A7FF4D8216848682B
:1016B0008006F5D5486846F62C4240F01000486098
:1016C0004868C4F2000220F007004860A06818B122
:1016D000536823F001035360136823F460731843C5
:1016E00010606068421C06D101200125FFF7F6F961
:1016F00030B321680138C0F3034280B28A60C86009
:10170000486820F010004860FFF7EEF8054600BF7B
:1017100020684068800609D4FFF7E6F8401BB0F562
:101720007A7FF5D9B7E700BF012070BD40F2011004
:101730000025A4F80D000120E5736074284670BDF3
:1017400004206074284670BD80B582B0006842F6FF
:101750000001C4F2000188421CBF02B080BDFFF747
:101760008BF941F21C00C4F202000168002241F032
:10177000006101600068012100F0006001900198A3
:1017800040F23C40C4F24220016029200021FFF7D2
:101790002DF9292002B0BDE88040FFF713B9000001
:1017A00070B582B0044600208DF80600ADF8040044
:1017B0004FF001009CB10D4689B1207C01284FF00B
:1017C00002000CD0012116462174607401A9204644
:1017D0000022FFF725FE00284FF0010002D002B0E2
:1017E00070BD00BF9DF804009DF805204FF46161B5
:1017F0009DF806304843C2EB021200EB82002A78C3
:101800001844FEB1130903EB830302F00F0202EB4D
:101810004302D2B251436A78AB78160906EB8606CA
:1018200002F00F0202EB4602D2B2C2EB021201EB4F
:1018300082011A0902EB820203F00F0303EB42025A
:1018400007E000BF6B785143AA78C3EB031301EBA9
:101850008301D2B28E1806F58031864238BF01F579
:10186000A346FFF741F8054620684168890607D47A
:10187000FFF73AF8401BB0F57A7FF5D91AE000BFC0
:10188000416841F010014160310C0162B1B2416226
:10189000416821F010014160FFF726F8054600BFBE
:1018A00020684168890609D4FFF71EF8401BB0F58F
:1018B0007A7FF5D90120042116E000BF416821F0AC
:1018C00002014160016841F00201016040F2004004
:1018D000C4F20100016841F400310160816841F403
:1018E000003181600020012161740021217402B067
:1018F00070BD0000F0B581B0044600284FF0010033
:1019000018BF002902D101B0F0BD00BF207C012822
:101910004FF00200F7D0012323746074CB78BAB182
:10192000180900EB800003F00F0202EB4003487837
:101930008A78070907EB870700F00F0000EB4707DD
:10194000100900EB800002F00F0202EB400001E002
:101950004F788878022FDAB2E3736773A0730FD8D9
:1019600017237B4348F63967C3F6E307A3FB073722
:10197000C7F3470C02F2CF7340F2D47E0CE000BFF5
:1019800047F2D916FFB2C0F21406774302F5FA63A4
:101990004FEAD74C40F2D27EC0B210449D0841F2CB
:1019A0007B4770446F431D0940F63E2600EB9300D1
:1019B0007543A0EB574000EB1540604482B242F201
:1019C00093435A43A0EB12439BB25B0803EB1242D2
:1019D0009208A2EBC2021044226820730870916939
:1019E000D0699369002683EA01073F041CBFD069D0
:1019F000194680B240EA014045F69071C0F20101FB
:101A000088421BD344F20751CCF22E21A0FB0112D5
:101A1000110C40F2A3225143A0EBC117FEF764FF63
:101A2000054600BF2068416889060DD4FEF75CFFBB
:101A3000401BB0F57A7FF5D920E000BF01210020DE
:101A40006174267401B0F0BD416841F0100141603D
:101A5000390C8161B9B2C161416821F01001416066
:101A6000FEF742FF054600BF2068416889060BD497
:101A7000FEF73AFF401BB0F57A7FF5D9012004212B
:101A80006174267401B0F0BD016A406A80B240EA18
:101A90000140B84230D200F5803000F5A347FEF790
:101AA00023FF054620684168890607D4FEF71CFF1E
:101AB000401BB0F57A7FF5D9E0E700BF416841F0FF
:101AC00010014160390C0162B9B24162416821F0F4
:101AD00010014160FEF708FF054620684068800657
:101AE0000AD4FEF701FF411B0120B1F57A7F4FF0C8
:101AF0000401F2D9A4E700BF00200121617426741B
:101B000001B0F0BD70B5044600284FF0010018BFC9
:101B1000002901D170BD00BF207C01284FF00200D8
:101B200008BF70BD012323746074087802B30209F2
:101B300002EB820200F00F0000EB4200C0B24FF453
:101B4000616250434A788978130903EB830302F0FA
:101B50000F0202EB4302D2B2C2EB021200EB820090
:101B60000A0902EB820201F00F0101EB420108E0D9
:101B70004FF4616250434A788978C2EB021200EB5D
:101B80008200C9B24618FEF7AFFE054620684168DC
:101B9000890607D4FEF7A8FE401BB0F57A7FF5D979
:101BA0001AE000BF416841F010014160310C8161D1
:101BB000B1B2C161416821F010014160FEF794FEAD
:101BC000054600BF2068416889060BD4FEF78CFEED
:101BD000401BB0F57A7FF5D9012004216174002102
:101BE000217470BD416821F005014160016A406ABD
:101BF00080B240EA0140B0422ED200F5803000F5BC
:101C0000A346FEF771FE054620684168890607D4A1
:101C1000FEF76AFE401BB0F57A7FF5D9DCE700BF1E
:101C2000416841F010014160310C0162B1B2416282
:101C3000416821F010014160FEF756FE054600BFE5
:101C400020684068800607D4FEF74EFE401BB0F5C2
:101C50007A7FF5D9C0E700BF00200121617400211F
:101C6000217470BD4EF21001CEF200010A68042802
:101C700022F0040208BF04320A60704710B540F237
:101C80007004C2F20004207860B1012818BF10BDB2
:101C900040F60000C4F201004FF48051BDE810404E
:101CA000FEF714BE606818B160680138606010BD4E
:101CB00040F60000C4F201004FF48051FEF706FE2A
:101CC0006420606010BD0000411E0020B0EB116F69
:101CD0001CBF012070474EF21002CEF2000251608C
:101CE0004EF62351CEF20001F0230B7007219060D5
:101CF00011607047FFF7C2BFB0B590F83C20012AD1
:101D000004BF0220B0BD01F108053CCDD1E900CEF1
:101D100023F47C5322F470521A432EF4F0431A43F6
:101D20002CF4E0431A4324F4C0431A432A43C969FC
:101D300022F48042036811435964002180F83C106A
:101D40000846B0BD10B590F83C20012A4FF00202C1
:101D500033D080F83D200268D2F804E0D2F808C001
:101D60000C682EF07003234340F2FF74C4F20004A9
:101D7000A24253600ADCB2F1804F13D040F200431C
:101D8000C4F200039A420DD011E000BF42F60043B6
:101D9000C4F201039A4205D040F60003C4F20003E6
:101DA0009A4204D149682CF08003194391600121C3
:101DB000002280F83D1080F83C20104610BD000045
:101DC0002DE9F04390F83C30012B04BF0220BDE820
:101DD000F0834FEAB202032A3CD8DFE802F0034363
:101DE00081BD00BF036842F600461D6A1A6AC4F24C
:101DF000010622F001021A621A465C6852F818CFF6
:101E0000B3428E68D1F800E025F0020545EA0605E8
:101E10000CD1CE68D1E9057824F4407425F00C0586
:101E200026F004063C43354344EA08042CF07307CB
:101E300047EA0E075C609F614F6809695F631D6236
:101E40009F6947F008079F619F6927F004079F611A
:101E5000B2E000BF0121002280F83C200846BDE826
:101E6000F08300BF036842F600461D6A1A6AC4F296
:101E7000010622F010021A621A46D3F804C052F882
:101E8000184FB3428E68D1F800E025F0200545EAEE
:101E9000061510D1CE68D1E9058725F0C0096FF08D
:101EA000400505EA06152CF4406647EA080745EAAE
:101EB000090546EA870C24F4E64444EA0E27C3F8F1
:101EC00004C09F614F6809699F631D629F6947F461
:101ED00000679F619F6927F480679F616BE000BF87
:101EE000036842F600461D6A1A6AC4F2010622F42B
:101EF00080721A621A46D3F804C052F81CEFB3423B
:101F00008E680C6825F4007545EA062511D1CE6867
:101F1000D1E9058725F44069360240F2FF4526EAFB
:101F200005052CF4405647EA080745EA090546EA44
:101F3000071C2EF073072743C3F804C0DF614F6806
:101F40000969DF631D62DF6947F00807DF61DF6948
:101F500027F00407DF612FE0036842F60047D3F85B
:101F600020C01A6AC4F2010722F480521A621A468B
:101F70005C6852F81C5FD1F800E08E68BB4204D167
:101F80004F6924F4804444EA87142CF4005747EA4C
:101F9000063725F4E64646EA0E265C60DE614E68AA
:101FA00009691E641F62DF6947F40067DF61DF694A
:101FB00027F48067DF61090213681943116000216B
:101FC000002280F83C200846BDE8F083002804BFCA
:101FD0000120704710B5044690F83D0028B9002054
:101FE00084F83C00204600F067F8022084F83D00A9
:101FF000206840F2FF730268C4F2000342F6004C0E
:102000009842C4F2010C15DCB0F1804F1AD040F2B6
:102010000041C4F20001884214D0984218DCB0F1AB
:10202000804F1DD040F20041C4F20001884217D019
:102030001AE000BF604505D040F60001C4F200017F
:102040008842EAD1A16822F070020A439842E6DD94
:10205000604505D040F60001C4F20001884203D17A
:10206000216922F440720A43A36922F08001D4F866
:1020700004E0E268194360450160C262C0F828E0EC
:1020800002D16169CCF8301001214161002084F84F
:10209000461084F83E1084F83F1084F8401084F80D
:1020A000411084F8421084F8431084F8441084F8F6
:1020B000451084F83D1010BD82B00068B0F1804F2B
:1020C00014D042F60041C4F2010188421BD141F212
:1020D0001800C4F20200016841F400610160006868
:1020E00000F400600190019802B0704741F21800BE
:1020F000C4F20200416841F001014160406800F013
:1021000001000090009802B07047000041B108291A
:1021100010D0042914BF00F1410200F13F020BE08E
:1021200090F83E20012A1CBF01207047022280F84F
:102130003E2013E000F140021278012A1CBF01206A
:1021400070470222082907D0042914BF80F84120D3
:1021500080F83F2002E000BF80F84020006801F0D6
:102160001F010122036A8A4023EA02010162036A15
:1021700042F64441C4F201011A43A1F144039842DA
:1021800002620FD040F2FF71C4F20001884213DCFA
:10219000B0F1804F1CD040F20041C4F200018842EF
:1021A00016D01CE00A6842F400420A6040F2FF7157
:1021B000C4F200018842EBDD42F60041C4F20101A5
:1021C000884205D040F60001C4F20001884206D1E1
:1021D000816801F00701062904BF002070470168EB
:1021E00041F00101016000207047000080B50268E5
:1021F00001F01F0C012303FA0CFE136A42F6444C53
:1022000023EA0E03C4F2010C1362D2F820E0ACF111
:1022100044039A42C2F820E013D15CF824EC41F266
:1022200011131EEA030F0CD1D2F820E040F2444310
:102230001EEA030F05D1DCF8003023F40043CCF88C
:102240000030D2F820C041F211131CEA030F06D16E
:10225000D2F820C040F244431CEA030F14D00829EE
:1022600018D004290AD000294FF0010114BF80F8CA
:10227000411080F83E10002080BD00BF012180F891
:102280003F10002080BD00BF136823F001031360DE
:102290000829E6D1012180F84010002080BD00000F
:1022A000002804BF0120704710B5044690F8410093
:1022B00028B9002084F84000204600F063F824206C
:1022C00084F841002068D4E90212C36823F4005363
:1022D000C360036923F440531A430261D4E9042321
:1022E0001143C268194341F20C639A431143C16020
:1022F0004169A26921F44071114343F60002C4F21E
:1023000001029042416103D0FEF7C6FD02E000BF2A
:10231000FEF7D6FD6268192148439100B0FBF1F049
:1023200048F21F51C5F2EB11A0FB01235A094FF6E9
:102330009C73C0F6FF7302FB0300322303EB001013
:10234000A0FB0101F02303EA5113206803EB021202
:10235000C1F3431111448160016921F4904101618D
:10236000416921F02A014161C16841F40051C16015
:1023700000202021606484F8411084F842106063DA
:1023800010BD000070B586B040F60044C4F20104F0
:102390000068A4F5444100268842049602D006B0A5
:1023A00070BD00BF41F21800C4F20200416802ADE6
:1023B00041F480214160416801F48021019101993B
:1023C000016841F0080101600068294600F008003A
:1023D000019001984FF48060029002200390032046
:1023E00005902046FEF75EF94FF40060CDE9020645
:1023F000204629460496FEF755F906B070BD000048
:10240000FEE70000B0B584B040F2780042F200412F
:10241000C2F20000C4F2010100244FF46022012541
:1024200004730475C261C0E9001484600561FDF79E
:10243000E1FF002818BFFDF711FF0420CDE90105D9
:1024400040F27800C2F2000001A90394FDF70CFFEE
:10245000002818BFFDF702FF04B0B0BD2DE9F0431E
:1024600085B04FF0000941F21800CDF81090C4F289
:102470000200016840F6000541F0100101600168AA
:10248000C4F2010501F010010091009901680122D8
:1024900041F00401016001684FF0010801F00401FE
:1024A00000910099016841F00801016000680C2169
:1024B00000F00800009000982846FEF70FFA05F596
:1024C00080642046FF210122FEF708FA20464FF4DF
:1024D00080510022FEF702FA28464FF4C051002234
:1024E000FEF7FCF94FF4005001AECDE9010905F506
:1024F00000603146CDF80C90FEF7D4F8022728464C
:102500003146CDE90179CDF80C90FEF7CBF841F6D4
:102510000C0001A981E80103284631460497FEF723
:10252000C1F841F2FF0001A981E8010320463146CC
:102530000497FEF7B7F84FF40340CDE901092046B0
:102540003146CDF80C90FEF7ADF805B0BDE8F0834C
:1025500080B582B040F20110C0F20100009040F25C
:10256000A80042F60001C2F20000C4F200014FF0E0
:10257000FF32C0E90012FFF76DF8002818BFFDF721
:102580006DFE0020ADF804008DF8060040F2A800B2
:10259000C2F2000001A90122FFF7B4FA002818BF17
:1025A000FDF75CFE40F2A800C2F20000694601227D
:1025B000FFF7A0F9002818BFFDF750FE02B080BD5C
:1025C00070B598B040F60004C4F2010440F2BC00BB
:1025D000002104F51052C2F200003F23632680253B
:1025E0001191CDE90F11CDE90D11CDE90B11CDE917
:1025F0000911CDE90711CDE90511CDE90311CDE9A7
:102600000111C0E90023C0E90216C0E90411856187
:10261000FFF7DCFC002818BFFDF720FE40F2BC00ED
:10262000C2F2000010A9FFF78DFB002818BFFDF7CC
:1026300015FE6020099063200A900020CDE90B0070
:10264000CDE90D000F9040F2BC00C2F2000009A9D4
:102650000022FFF7B5FB002818BFFDF7FFFD312072
:102660000A9040F2BC00C2F2000009A90422FFF760
:10267000A7FB002818BFFDF7F1FD40F2BC054FF4A1
:102680000050C2F200050026069001A928460596D2
:10269000CDE90366CDE901660896FFF72DFB00281A
:1026A00018BFFDF7DBFD2868CDE91666B0F1804F55
:1026B000159614961ED042F60041C4F201018842DC
:1026C0003DD141F21800C4F20200016841F004015A
:1026D0000160006814A900F00400139013984FF4EF
:1026E000407014900220159017902046FDF7DAFFF5
:1026F00018B070BD41F21800C4F20200016841F048
:1027000004010160006814A900F0040013901398FC
:102710004FF4004014900220159017902046FDF7CA
:10272000C1FF0420C4F2010001684FF6FF42CFF65A
:10273000FF02114041F0E06141F48071016018B086
:1027400070BD0000B0B590B040F204100021C2F29C
:1027500000006325CDE90811CDE90611CDE904118A
:102760004FF0804240F27F23C0E9021501618021D1
:10277000C0E900238161FFF729FC002818BFFDF79D
:102780006DFD40F20410C2F2000008A9FFF7DAFA6A
:10279000002818BFFDF762FD602040F2041401908C
:1027A0003120C2F200040290002501A92046002237
:1027B00003950595FFF704FB002818BFFDF74EFDB4
:1027C0002068CDE90E55B0F1804F0D950C9521D0C4
:1027D00042F60041C4F20101884243D141F218009F
:1027E000C4F20200016841F00401016000680CA914
:1027F00000F004000B900B984FF440700C900220F6
:102800000D900F9040F60000C4F20100FDF74AFF62
:1028100010B0B0BD41F21800C4F20200016841F0EE
:102820000401016000680CA900F004000B900B98F3
:102830004FF400400C9002200D900F9040F60000E5
:10284000C4F20100FDF72EFF0420C4F2010001686C
:102850004FF6FF42CFF6FF02114041F0E06141F434
:102860008071016010B0B0BD80B540F24C1044F6EC
:102870000001C2F20000C4F2000100234FF00C0C72
:102880004FF4E13280E80E00C0E90333C0E905C32C
:10289000C361FFF705FD002808BF80BDBDE880408B
:1028A000FDF7DCBCFEE70000FEE7000020BF00BF34
:1028B0007047000070470000B0B505680446FEF799
:1028C00013F8281A0028C4BF0020B0BDD4E90001C5
:1028D0000D182560FEF708F8281A0028C4BF01204B
:1028E000B0BDFEF701F86168084420600120B0BD6A
:1028F000B0B50C4605464160FDF7F6FF2044286060
:10290000B0BD000040F2A800C2F20000FEF716BD04
:102910002DE9F043427B837B90F80FC0002900F043
:10292000D380012901F0010E18D1BEF1000F00F093
:10293000CB800C2A00F2C8800121914041F2AA57B5
:10294000394200F0B7801F2BC0F0B9800C2A40F04C
:10295000B9800CF1010C0122B5E000BF45F6294910
:1029600045F628474DF20B7821F00101012441F290
:10297000AA55CCF28F29C0F28F27C0F2A30802E03B
:1029800001330239D1D00C2A16D804FA02F62E42AD
:1029900008D01E2B0BD90C2A0CD10CF1010C0122F2
:1029A00009E000BF16F4256F1ED01D2B02D801339D
:1029B00002E000BF013201230C2AE2D804FA02F639
:1029C0002E4209D01F2BDBD30C2A0AD10CF1010CAB
:1029D00001220123D5E700BF16F4256F0CD01E2B72
:1029E000CED301320123CCE7022AE5D11B2B0BD831
:1029F00001330222E0E700BF022AC2D11C2B0DD214
:102A000001330222BDE700BF1D2B0DD01C2B0FD1BF
:102A10005FEA8C7216D000222FE000BF0AD01D2B77
:102A20000ED101230322ACE701230322C4E700BF38
:102A30000222C1E75FEA8C720ED000222FE000BFB5
:102A400002229EE71FFA8CF202FB09F24FEAB20360
:102A5000BB420BD9012210E01FFA8CF202FB09F2F3
:102A60004FEAB203BB4213D9012218E04FEA3212F7
:102A700042454FF0000238BF0122002A4FF0020207
:102A80004FF01D0308BF032208BF012394E700BFD6
:102A90004FEA321242454FF0000238BF0122002AAD
:102AA0004FF002024FF01D0308BF032208BF0123AD
:102AB00067E700BF11F4256F48D01E2B02D2013307
:102AC00002E000BF01320123D1B2022980F80FC019
:102AD000427383730ED81722514348F63962C3F606
:102AE000E302A1FB0212C2F347010CF2CF7240F2E3
:102AF000D47709E047F2D917C0F2140779430CF5EF
:102B0000FA62C90C40F2D277DBB248F21F56634436
:102B1000C5F2EB163B44A2FB066503EB9202A2EB67
:102B2000551202EBD512114444F62512C2F292421C
:102B3000A1FB0223CA1A03EB52029308DB00A3EBAA
:102B40009202891A0173BDE8F08300BF022ABBD14B
:102B50001C2B03D201330222B6E700BF04D01D2B89
:102B600008D101230322AFE75FEA8C7104D0012171
:102B70001CE000BF0222A7E745F629421FFA8CF1AC
:102B8000CCF28F224A4345F628434FEAB201C0F205
:102B90008F2399424FF0000108D84DF20A734FEA93
:102BA0003212C0F2A3039A4288BF012102221D23E0
:102BB000002918BF032218BF012385E770B50D4611
:102BC0000446FDF791FE064620684168890607D451
:102BD000FDF78AFE801BB0F57A7FF5D9012070BD24
:102BE000416841F010014160290C0162A9B24162C3
:102BF000416821F010014160FDF776FE054600BFF7
:102C000020684068800607D4FDF76EFE401BB0F5D3
:102C10007A7FF5D9012070BD002070BD704700009B
:102C200080B5FDF767FEBDE88040FFF763B80000A0
:102C300070470000FEE70000F0B587B040F60004E2
:102C400000264FF400500027C4F2010402AD06969E
:102C50000290C1F2210704F500602946CDE9037610
:102C6000FDF720FD282000210022FDF7BFFE2820CF
:102C7000FDF7A8FE0220CDE90207012005902046BD
:102C800029460496FDF70EFD072000210022FDF7DE
:102C9000ADFE0720FDF796FE40F2A8050A20C2F21D
:102CA00000058DF80200694628460022ADF8006054
:102CB0000196FEF775FD04F5806630464FF48051AD
:102CC0000022FDF70BFE20464FF400610022FDF7C5
:102CD00005FE20464FF480510022FDF7FFFD2046FF
:102CE00008210122FDF7FAFD204604210122FDF70B
:102CF000F5FD304601210122FDF7F0FD30460221AD
:102D00000122FDF7EBFD00F035F801200121FDF770
:102D1000B9FE28460021FEF72FFB40F20001C2F267
:102D2000000140F208000978C2F200004FF47A7204
:102D30000068B2FBF1F1B0FBF1F0FEF7C5FF042033
:102D4000FEF790FF07B0F0BD40F29411C2F200010F
:102D5000898840F40040081AB0FA80F040097047B2
:102D600040F29411C2F200018988081AB0FA80F08A
:102D70004009704770B540F29415C2F20005A8886A
:102D800040F6004400F40040C4F20104A88004F5B9
:102D900080604FF40051FDF793FDB0FA80F04609D2
:102DA000A4F580600221FDF78BFDB0FA80F04009A8
:102DB00046EA400620464FF48071FDF781FDB0FAE7
:102DC00080F0400946EA800620464FF40071FDF786
:102DD00077FDB0FA80F0400946EAC0002880B8B319
:102DE00069888842014612D0A88805216FF3DF3038
:102DF000A8800020287605F10800FFF779FD05F18D
:102E000010004FF47A71FFF773FD29886888084332
:102E100005F1100468802046FFF74EFD00283FD0E2
:102E2000B5F90400002848BF70BD6888297E40F4C9
:102E30000040A880481CC1B2092928762AD308225C
:102E400020464FF47A712A76BDE87040FFF750BDF6
:102E500005F108042046FFF72FFDB5F904106A8834
:102E6000B1F1FF3FD8BF0A46002808BF0A4600203C
:102E700068806FF3DF32287605F110004FF47A7125
:102E8000AA80FFF735FD20460521BDE87040FFF719
:102E90002FBD00BF20460021BDE87040FFF728BDD0
:102EA00070BD000094B0FDF733FD062000240A90A9
:102EB0000120CDE90F44CDE90D44CDE90D001020EE
:102EC0000F904FF46010022513900AA8CDE90B442F
:102ED0000494CDE91154FEF707F828B1EFF3108000
:102EE00072B600BFFEE700BF0F20CDE905054FF425
:102EF0008060CDE9080405A802210794FDF7ECFEE7
:102F000020B1EFF3108072B6FEE700BF03200190FE
:102F10004FF4807002904FF40040039001A8FDF739
:102F200055FE28B1EFF3108072B600BFFEE700BF78
:102F300040F60044C4F20104FFF790FAFFF762FA8A
:102F4000FFF73EFBFFF7FEFBFFF78EFCFFF700FBF2
:102F5000002520464FF400418DF82A50ADF8285046
:102F6000FDF7AEFC40F2700640F2A80840F2BC0942
:102F7000C2F200064FF0010AC2F200080DF1280B60
:102F8000A4F58067C2F20009FFF7F4FE707800280C
:102F900046D020464FF4805101227570FDF79EFC0B
:102FA0001E20FDF707FB20464FF480510022FDF75D
:102FB00095FCB078032827D120464FF40041FDF757
:102FC0007FFC054648460021FFF7A0F8D9F800002D
:102FD0003121816348460421FFF798F820464FF4D9
:102FE0000041FDF76DFC8542F8D048460421FFF70B
:102FF000FDF848460021FFF7F9F838464FF48051B4
:103000000022FDF76BFC0025404659460122FEF7E1
:1030100079FD002840F0948086F800A0FFF70CFEB0
:103020000120FFF79DFED8B13078C8B920464FF493
:1030300080510122FDF752FC1E20FDF7BBFA20460D
:103040004FF480510022FDF749FC404659460122C9
:10305000FEF758FD002879D186F800A0FFF7ECFDB7
:103060000120FFF77DFEC0B13078012815D1204640
:1030700080210022FDF732FC384608210022FDF7AE
:103080002DFC1E20FDF796FA204680210122FDF737
:1030900025FC86F800A0FFF7CFFD0120FFF754FEC6
:1030A00068B1307801280AD1204602210022FDF7BC
:1030B00015FC384608210022FDF710FC357002206F
:1030C000FFF74EFED0B13078012817D120460121FC
:1030D0000022FDF703FC384608210022FDF7FEFB25
:1030E00040F6B830FDF766FA404659460122FEF731
:1030F00009FD88BB86F800A0FFF79EFD0220FFF7C0
:1031000023FE00283FF440AF307801287FF43CAF25
:10311000204680210022FDF7E1FB384604210022F1
:10312000FDF7DCFB1E20FDF745FA20468021012239
:10313000FDF7D4FB86F800A0FFF77EFD24E700BF73
:10314000EFF3108072B600BFFEE700BFEFF3108010
:1031500072B600BFFEE700BFEFF3108072B600BF8B
:10316000FEE7000000000000000001020304060763
:103170000809000000000102030401020203040523
:10318000060708090A0B0C0D0E0F1010B0310008CD
:10319000000000201000000028010008C0310008D5
:1031A00010000020A80700004401000800000000F3
:1031B00001000000100000000024F40000000000E6
:04000005080000ED02
:00000001FF
