:020000040800F2
:10000000A009002091010008E5370008053100082B
:10001000E13700086D050008753800080000000091
:10002000000000000000000000000000453800084B
:100030007D05000800000000E93700084938000885
:10004000AB010008AB010008AB010008393800081B
:10005000AB010008AB010008AB01000889050008EE
:10006000AB010008AB010008AB01000871050008F6
:10007000AB010008AB010008AB010008AB010008B0
:10008000AB010008AB01000861050008AB010008E6
:10009000AB010008AB010008AB010008AB01000890
:1000A000AB010008AB010008AB010008AB01000880
:1000B000AB0100085D38000869380008AB01000892
:1000C000AB010008AB010008AB010008AB01000860
:1000D000AB010008AB010008AB010008AB01000850
:1000E00081050008AB010008AB01000800F002F830
:1000F00000F03FF80AA090E8000C82448344AAF183
:100100000107DA4501D100F034F8AFF2090EBAE880
:100110000F0013F0010F18BFFB1A43F0010318473B
:10012000843D0000A43D0000103A24BF78C878C187
:10013000FAD8520724BF30C830C144BF04680C60ED
:10014000704700000023002400250026103A28BF35
:1001500078C1FBD8520728BF30C148BF0B60704739
:10016000642900F07180002070471FB51FBD10B5D5
:1001700010BD00F0BAF91146FFF7F7FF03F050FC8D
:1001800000F0D8F903B4FFF7F2FF03BC00F0E0F988
:100190000948804709480047FEE7FEE7FEE7FEE71B
:1001A000FEE7FEE7FEE7FEE7FEE7FEE70448054957
:1001B000054A064B7047000059380008ED0000085A
:1001C000A0030020A0090020A0050020A005002019
:1001D0000FB41CB5074B06AA7B44694600900598EE
:1001E00000F06BF90020694600F07AF91CBC5DF85C
:1001F00014FB00000503000070B504468569006823
:10020000C10601D5302600E02026C00707D070BD0A
:10021000D4E9012130469047206A401C20626D1EBF
:10022000F6D570BD70B5044685690078C00707D162
:1002300070BDD4E9012120209047206A401C206233
:100240006D1EF6D570BD00002DE9F0410646002474
:1002500010687529314616A510D0AFF3008000282C
:1002600002DA404213A507E031688A0701D512A5DA
:1002700002E0490704D511A5012401E0AFF3008095
:1002800000210A2206F1240709E0B0FBF2FCB0FBD2
:10029000F2F302FB1C00303078541846491C002849
:1002A000F3D123462A463046BDE8F04100F0A7B816
:1002B000000000002D0000002B00000020000000C6
:1002C0002DE9F05F894604464FF0000ADFF824B1BB
:1002D000FB44C0F820A02046E168884700287DD074
:1002E000252806D0D4E901219047206A401C2062CD
:1002F000F1E700255F462046E1688847202806464A
:1003000007DB312E05D2B81910F8200C08B10543CF
:10031000F1E7A80701D525F00405C4F81CA00027C3
:10032000C4F818A02A2E09D0304603F073FD38B364
:1003300004EB8708303EC8F8186019E059F8041B30
:10034000204604EB87029161E1688847012F064649
:1003500018D1E069002820DA25F020051DE0D8F842
:10036000180000EB800006EB40003038C8F8180099
:100370002046E1688847064603F04CFD0028EED190
:10038000012F0AD02E2E08D12046E16888477F1C15
:100390000646022F45F02005C4DBA069002803DAD9
:1003A000404245F00105A061E80701D025F01005A5
:1003B000A6B1A6F14100192802D8203645F40065FF
:1003C0004A463146204625604D46FFF7C9FE60B1DA
:1003D000012807D0ED1D25F0070000E007E000F13F
:1003E000080978E705F1040975E730467AE7206ADD
:1003F000BDE8F09F4E3B00007047704770472DE905
:10040000F0470D4699469246044600F124080168DB
:10041000880604D5E06921F01001216000E0012088
:10042000A84201DD471B00E00027A1697A1902EB11
:100430000900081AA0612078C00602D42046FFF700
:10044000DBFE002608E0D4E901211AF806009047F7
:10045000206A401C761C20624E45F4DB2078C006E2
:100460000AD52046FFF7C8FE06E0D4E90121302076
:100470009047206A401C2062381EA7F10107F4DC77
:1004800007E0D4E9012118F805009047206A401CD4
:100490002062281EA5F10105F3DC2046FFF7C2FE0D
:1004A0002078000602D50220BDE8F0870120FBE796
:1004B00001694A1C02610878704700B58FB0CDE928
:1004C00001310021059105497944CDE90310114618
:1004D0006846FFF7F5FE0FB000BD0000E5FFFFFF27
:1004E0000A6802F8010B0A607047754600F02CF8A4
:1004F000AE4605006946534620F00700854618B011
:1005000020B5FFF753FEBDE820404FF000064FF046
:1005100000074FF000084FF0000BAC46ACE8C009F4
:10052000ACE8C009ACE8C009ACE8C00921F007019B
:100530008D46704710B50446AFF300802046BDE8F5
:100540001040FFF71FBE0000004870471001002058
:1005500001491820ABBEFEE72600020070470000EC
:1005600040F28810C2F2000000F0DCB8FEE70000A4
:1005700040F2B810C2F2000000F05ABA7047000012
:100580004FF4005000F0DCBB022000F0D9BB0000AB
:10059000EFF3108072B600BFFEE700007047000066
:1005A000B0B581B00022009290F82420012A03D136
:1005B0000221084601B0B0BD4B680122062B80F82D
:1005C000242022D8D0F800C003EB830362465D1FCD
:1005D0001F2352F834EF03FA05F40B682EEA040ED9
:1005E00003FA05F444EA0E05092B15602CD8DCF853
:1005F000102003EB4303072589689D40AA439940D7
:100600001143CCF8101000213EE0D0F800C00C2BB4
:10061000624606D852F830EF03EB8303A3F12304BC
:1006200005E052F82CEF03EB8303A3F141041F23F1
:1006300003FA04F50B682EEA050E03FA04F444EA03
:100640000E05092B1560D2D903EB4305DCF80C200D
:100650001E3D07248968AC40A243A940114323F002
:100660000102102ACCF80C100DD142F20841C4F25C
:100670000101A1F1080294450CD0816A41F02001EA
:100680008162012100E00021002280F82420084638
:1006900001B0B0BD0A6812022FD40A68102B42F4D0
:1006A00000020A602BD140F20801C2F20001096881
:1006B0004DF68362C4F21B32A1FB0212910C01EBD6
:1006C0008101490000910099D9B100990139009147
:1006D0000099C1B10099013900910099A9B100991F
:1006E00001390091009991B1009901390091009967
:1006F00000294FF00001E8D1C6E70021C4E700213E
:10070000C2E70021C0E70021BEE70021BCE70021CD
:10071000BAE7000040F28610C2F200000121017029
:100720007047000070B50446006806684568B10768
:1007300027D515F0200124D0A16AC90603D4A16AE7
:1007400041F40071A162816801F46021B1F5602F6C
:1007500010D1217B71B9416821F020014160A06A6C
:1007600020F48070A062A06AC00403D4A06A40F0A4
:100770000100A0622046FFF7CDFF20686FF0120154
:100780000160710732D515F080012FD0A16AC9062A
:1007900003D4A16A41F40051A162816801F4E041EF
:1007A000B1F5E04F0FD1416821F080014160A06AAE
:1007B00020F48050A062A06AC00510D4A06A40F066
:1007C0000100A0620BE04168490508D4816801F48A
:1007D0006021B1F5602F02D1217B0029E3D02046B2
:1007E000FFF7DCFE20686FF00C010160F00718BF16
:1007F00015F0400000D170BDA06A40F48030A062C6
:10080000204600F0B9F820686FF00101016070BD6A
:10081000002804BF0120704770B50646044656F80C
:10082000280F20B121688868C0070BD114E0002090
:10083000E06284F82400204600F0A0F8216888686F
:10084000C00709D0886820F00100886000F098FB9C
:1008500021688A68D20726D13068C0063BD4A06AD6
:1008600041F2021290430230A062E069D4E9013201
:1008700040EA030C531EB3FA83F35D091346B2F545
:10088000807F18BF2B02207D257B01284CEA450084
:1008900032D135B3A56A45F02005A562E56A45F079
:1008A0000105E56228E0054603E000BF8868C0074F
:1008B000D2D000F065FB401B21680328F6D388687E
:1008C000C007F3D0A06A40F01000A062E06A40F0D8
:1008D0000100E062A06A306840F010010120316040
:1008E00070BDD4F818C04EF20005CFF6FF7505EBC9
:1008F0004C352B4343F400634D68B2F5807F25F4FB
:10090000694543EA05034B608B684FF2FD75CFF6EE
:10091000E17503EA050343EA00038B6001D0012A75
:1009200006D122690023CFF6F07303EB025200E0F8
:100930000022CB6A23F470031A43CA62896840F626
:10094000FE62CFF61F721140814207D10020E062A3
:10095000A16A012262F30101316070BDA06A40F01A
:10096000100020F00200A06254F82C0F40F00101AA
:1009700001202646316070BD7047000070B586B01A
:100980000026044640F600000596CDE90366C4F251
:100990000100216800F5E0529142029601D006B0B4
:1009A00070BD41F21801C4F202010A6842F40072FB
:1009B0000A600A6802F400720192019A0A6842F021
:1009C00004020A60096801F0040101910199F02113
:1009D00002910321039102A900F0BEF940F2B8157B
:1009E0000820C2F20005C4F2020080214FF4807298
:1009F000C5E9000605F110004FF480634FF0200CAC
:100A0000C5E9026180E80C102846EE6100F0E2F8CA
:100A1000002818BFFFF7BCFD12200021002225622C
:100A20006C6200F02BFB122000F018FB06B070BDCA
:100A300010B50168D0E90FCEDCF800200B685C0728
:100A40002BD5042404FA0EF4144026D00A6892062A
:100A500003D40A6822F004020A602F22C4F20202C0
:100A6000914240F20402C4F202025FDD3023C4F27C
:100A70000203994275D04423C4F20203994276D00E
:100A80005823C4F2020399427CD14FF480231360AF
:100A9000C16A002940F081809BE09C0729D502248F
:100AA00004FA0EF4144024D00A68920606D40A68A8
:100AB00022F00A020A60012280F821202F22C4F2CB
:100AC0000202914240F20402C4F202023DDD3023F0
:100AD000C4F20203994263D04423C4F20203994250
:100AE00061D05823C4F20203994261D14FF400331C
:100AF00066E01B076DD5082303FA0EF31A4008BF02
:100B000010BD0A6822F00E020A60012101FA0EF2FD
:100B1000CCF80420816380F82110016B00220029A9
:100B200080F8202055D0BDE8104008470823C4F2C3
:100B30000203994221D01C23C4F20203994221D11D
:100B400040231360C16A41BB43E00823C4F202039F
:100B500099422BD01C23C4F20203994228D12023AE
:100B60002EE04FF480631360C16AB1B931E04FF4F5
:100B700080431360C16A81B92BE004231360C16A0A
:100B800059B926E002F168044FF08063A14208BF22
:100B90004FF480031360C16AD9B1BDE81040084723
:100BA0004FF400730CE04FF4005309E0022307E018
:100BB00002F168044FF00073A14208BF4FF4001324
:100BC0001360816A002280F8202011B1BDE8104036
:100BD000084710BD014600284FF0010008BF7047CC
:100BE0002DE9F043D1F800C04FF6F873CBF6FD7352
:100BF0004CF6CD426344CCF6CC42A3FB02236FF00B
:100C0000030707EA9303002701F10C09C4F2020766
:100C1000D1E9012E99E87002D1F81C80C1E90F7367
:100C2000022381F82130DCF8003043F6F077BB4333
:100C30001A4342EA0E0222432A43324342EA09029D
:100C400042EA0802CCF8002000228A6381F82100E1
:100C500081F820200020BDE8F043704742F20400F4
:100C6000C4F20200C16809065CBF0020704740F270
:100C70002311C4F26751016048F6AB11CCF6EF5175
:100C80000160C068C0F3C0107047000080B5B0F5C7
:100C9000005F02D0022818BF80BD41F20000C4F2FC
:100CA0000200016841F00101016000BF016889078D
:100CB0005FBF01685FEA817101685FEA817102D4F8
:100CC00001688907F2D5016841F08071016000BFB9
:100CD000016889015FBF01685FEA811101685FEA0D
:100CE000811102D401688901F2D54168022262F3C0
:100CF00001014160416801F00C0108290ED04168F2
:100D000001F00C01082909D0416801F00C01082903
:100D100004D0416801F00C010829EBD102F0E8FD94
:100D200001F060F840F60000C4F201004FF40061E9
:100D3000012200F01FF9BDE8804000F0DBB900009F
:100D400040F21441C4F201010A68024214BF086073
:100D50007047FFF79BBF00002DE9F04F82B00E688F
:100D6000002E00F0FD8040F20C4C41F200424FF6A4
:100D7000FF7BC4F2010CC4F201020423002401270A
:100D8000C1F2100B4FF0000A4FF000094FF00F0EA8
:100D9000904208BF032300933EE00123BB402B4356
:100DA00042F82B30D1F804B040F20047C4F20107FA
:100DB0005FEACB22BA6854BF22EA080242EA08027C
:100DC000BA60DCF800205FEA8B2354BF22EA0802F5
:100DD00042EA0802CCF800207A685FEA8B3354BFFD
:100DE00022EA080242EA08027A605FEACB333A68F4
:100DF0004FF6FF7B54BF22EA080242EA08023A603B
:100E00000127C1F2100B0E680AF1010A36FA0AF244
:100E100004F1040400F0A48007FA0AF816EA080FA7
:100E2000F1D04A685A4511DC122A51D8DFE802F0A5
:100E3000340A42465050505050505050505050502C
:100E400050494D00D1F80C9042E000BF4FF6FF73BF
:100E5000C1F221039A420FDC0023C1F211039A422E
:100E60001AD00023C1F212039A4215D00023C1F216
:100E700021039A4210D02BE00023C1F222039A42B0
:100E80000AD00023C1F231039A4205D00023C1F2F7
:100E900032039A421CD100BF8A6842B1012A14BFB2
:100EA000C0F81480C0F810804FF0080910E04FF02F
:100EB00004090DE0CA6802F1080909E04FF00009D1
:100EC00006E0CA6802F1040902E0CA6802F10C09EE
:100ED00022460346BAF1080F24BF203A04331D68A6
:100EE0000EFA02F6B54309FA02F22A431A60CA79E9
:100EF000D2067FF588AF41F21803C4F202031A68E4
:100F00004FEA9A0B42F001021A601A6804F00C07CB
:100F100002F001020192019A40F20042C4F2010281
:100F2000A2F57E7252F82B3040F600060EFA07F555
:100F3000C4F20106B04223EA05050FD040F6004393
:100F4000C4F2010398423FF428AF41F20003C4F217
:100F500001039842009B08BF02231FE700231DE7FF
:100F600002B0BDE8F08F00008068084018BF012083
:100F700070470000002A08BF0904016170470000A3
:100F800040F29830C2F200000068704740F2000062
:100F900040F29831C2F20000C2F2000100780A6803
:100FA000104408607047000080B542F20000C4F2AF
:100FB0000200016841F010010160032000F08AF88E
:100FC0000F2000F005F800F027F8002080BD000099
:100FD00070B540F20006C2F2000640F20801327815
:100FE000C2F200014FF47A730968B3FBF2F20446CF
:100FF000B1FBF2F1084600F001FF0F2C4FF00105A4
:1010000008D838B94FF0FF3021460022002500F003
:1010100035F87460284670BD82B041F21800C4F201
:1010200002000168022241F001010160016801F043
:10103000010101910199416841F08051416040688E
:1010400000F08050009000980420C4F20100016874
:1010500062F31A61016002B070470000002848BFC7
:10106000704700F01F01012202FA01F14EF2001256
:101070004009CEF2000242F82010704710B54EF63B
:101080000C5CCEF2000CDCF80030C3F3022E8EF0C4
:101090000704042C28BF0424BEF103034FF0FF3ED5
:1010A0000EFA04F438BF0023A14399400EFA03F36B
:1010B0009A4300F00F03043B1143634409010C33CE
:1010C00000F16042B0F1FF3FC8BF02F56443197000
:1010D00010BD00004EF60C51CEF200010A684FF62A
:1010E000FF031A4060F30A2242F0806040F0FD7076
:1010F000086070474EF61050CEF20000016821F0F3
:1011000002010160704700002020C4F20E2001217E
:101110000160704780B5012818D0022835D010280A
:1011200031D141F20401C4F202010A6851F8040C01
:10113000C00128D5C2F383402CA3185CD2033BD452
:1011400040F60012C0F23D02504341E041F204007B
:10115000C4F20200C16940F202320A40B2F5817F56
:1011600004BF4FF4004080BD01F44071B1F5407FF1
:101170001AD0B1F5007F06D1006A49F640418007D8
:1011800001EAE07080BD002080BD00F0AFF941F2BF
:101190000401C4F2020109680222C1F3813102EBA9
:1011A0004101B0FBF1F080BD50F8040C4FF2244136
:1011B000800301EAE07080BD0A6810A3C2F34042D8
:1011C0009A5C41F20023C0F27A03B3FBF2F250437F
:1011D0000968490248BF80BD4AF6AB214000CAF603
:1011E000AA21A0FB0101480880BD00BF020304053D
:1011F000060708090A0B0C0D0E0F10100102000063
:101200002DE9F04182B00446007841F21C06C00787
:10121000C4F202064AD0306810F0805808D1306815
:1012200040F080503060306800F0805001900198AC
:1012300047F20007C4F200073868C00512D43868C6
:1012400040F480703860FFF79BFE05463868C005A3
:1012500008D4FFF795FE401B6428F7D9032002B09D
:10126000BDE8F081706810F4407012D0616801F43C
:10127000407188420DD0706840F24042C4F2422270
:10128000012320F4407113600023C00713607160D4
:1012900029D17068616820F440700843B8F1000FEC
:1012A000706003D1306820F0805030602068810782
:1012B00007D556F8181CA26821F44041114346F89E
:1012C000181CC00603D4002002B0BDE8F08156F817
:1012D000180CE16820F48000084346F8180C002040
:1012E00002B0BDE8F081FFF74BFE054641F28837BA
:1012F00070688007CDD4FFF743FE401BB8424FF023
:101300000300F5D9ECE700002DE9F04381B0002897
:1013100000F0858042F20008C4F202080446D8F8C2
:1013200000000D4600F0070088420CD2D8F80000FB
:1013300020F007002843C8F80000D8F8000000F0AB
:101340000700A8426BD1206841F204098107C4F26A
:10135000020917D5410705D5D9F8001041F4E0611D
:10136000C9F80010010705D5D9F8001041F4605103
:10137000C9F80010D9F80010A26821F0F00111435B
:10138000C9F80010C00741D1D8F8000000F00700EC
:10139000A8420CD9D8F8000020F007002843C8F86C
:1013A0000000D8F8000000F00700A84237D12068FC
:1013B000410707D5D9F80010E26821F4E061114334
:1013C000C9F80010000708D5D9F80000216920F4F9
:1013D000605040EAC100C9F80000D9F8002002F0CE
:1013E0000C00082841F20020C0F27A004ED143F6EA
:1013F0006A63C2F38341C0F60003595CD20339D457
:1014000040F60010C0F23D0048433FE0606802280B
:1014100009D0012829D159F8041C890307D40120D7
:1014200001B0BDE8F08359F8041C8901F7D5D9F85B
:10143000001021F003010843C9F80000FFF7A0FDE8
:10144000064641F2883700BFD9F80000616800F015
:101450000C00B0EB810F97D0FFF792FD801BB842D4
:10146000F2D9032001B0BDE8F08359F8041C8907C4
:10147000D5D5DCE7D9F8002043F66863C2F34042D3
:10148000C0F600039A5C4843B0FBF2F0D9F80010B4
:1014900043F65062C1F30311C0F60002515C40F202
:1014A000080220FA01F140F20400C2F200000068D4
:1014B000C2F200021160FFF78BFD002001B0BDE811
:1014C000F083000040F2080041F20401C2F2000083
:1014D000C4F202010068096843F66062C1F30221A8
:1014E000C0F60002515CC8407047000040F208009E
:1014F00041F20401C2F20000C4F20201006809686E
:1015000043F66062C1F3C221C0F60002515CC840DC
:10151000704700002DE9F04182B0002868D00446F1
:10152000007841F20006C007C4F2020625D07068B8
:1015300000F00C0004281BD0706800F00C00082894
:1015400002D17068C00313D46068002800F0628183
:10155000B0F5A02F00F07681B0F5803F00F07681E5
:10156000306820F480303060306820F4802070E1F2
:101570003068800301D56068D0B32078800718D523
:10158000706810F00C0F07D0706800F00C0008288D
:101590006DD17068C0036AD43068800702D52069B5
:1015A000012825D13068616920F0F80040EAC100C7
:1015B0003060207800071FD42078400732D4E569D6
:1015C00095B1706800F00C00082840F08D80012D66
:1015D0000ED07068216A00F480328A4208D1616AB4
:1015E00000F47010884203D1002002B0BDE8F08101
:1015F000012002B0BDE8F081A069002860D0002081
:10160000C4F242200121C0F88014FFF7B9FC05465E
:10161000706A800700F18A80FFF7B2FC401B022845
:10162000F6D924E1F06910F0805808D1F06940F053
:101630008050F061F06900F080500090009847F20F
:101640000007C4F200073868C00527D4386840F4A2
:1016500080703860FFF794FC054600BF3868C0050D
:101660001CD4FFF78DFC401B6428F7D9FFE02069EC
:10167000002840F20000C4F2422000F081800121E5
:101680000160FFF77DFC0546306880073FF58AAFB3
:10169000FFF776FC401B0228F6D9E8E0E068002856
:1016A00000F08080052800F09680012800F09780E7
:1016B000306A20F001003062306A20F0040091E0CE
:1016C0000020C4F242200021C0F88014FFF758FC2B
:1016D000054600BF706A80077FF56EAFFFF750FCCC
:1016E000401B0228F6D9C2E00027C4F2422700209E
:1016F0003866FFF745FC022D05460BD130688001A6
:1017000040F1B980FFF73CFC401B02284FF003007A
:10171000F4D96AE7306880017FF566AFFFF730FCE7
:10172000401B02284FF00300F4D95EE740F20800A6
:10173000C2F20000006844F6D351C1F26201A0FB7E
:101740000101480A019000BF00BF0198411E002816
:1017500001913FF431AF00BF0198411E0028019173
:101760003FF42AAF00BF0198411E002801913FF4C9
:1017700023AF00BF0198411E00280191E4D11BE76F
:1017800000210160FFF7FCFB054600BF30688007C1
:101790007FF50FAFFFF7F4FB401B02284FF003006B
:1017A000F4D922E7306A20F001003062306A20F07C
:1017B00004003062FFF7E4FB054641F2883700BFC2
:1017C000306A80071DD5FFF7DBFB401BB8424FF0A6
:1017D0000300F5D909E7306A40F004003062306A4E
:1017E00040F001003062FFF7CBFB054641F288373D
:1017F000306A800705D4FFF7C3FB401BB842F7D916
:1018000035E0B8F1000F7FF4DAAEF06920F08050D7
:10181000F061D4E6306820F480303060306820F425
:1018200080203060FFF7ACFB054600BF30688003C6
:101830007FF5A3AEFFF7A4FB401B64284FF0030025
:10184000F4D9D2E6306840F480203060306840F44B
:1018500080303060FFF794FB054600BF306880039E
:101860003FF58BAEFFF78CFB401B6428F6D90320B5
:1018700002B0BDE8F081206AB0F5803F05D1716803
:10188000A26821F40031114371607168626A21F429
:10189000741110430843706001203866FFF770FB35
:1018A000044600BF306880013FF59EAEFFF768FB3D
:1018B000001B02284FF00300F4D996E640F2821094
:1018C000C2F20000012101708278013282708278B8
:1018D000022A22BF002282704170C178002908BF0D
:1018E0007047C1780139C17070470000704700002F
:1018F00010B5044600680168C9071CBF41685FEA6B
:10190000C17100D110BD406840070AD42046FFF7DE
:10191000D5FF012060742068416821F00101416019
:1019200010BD2046FFF7E2FF20686FF00401416020
:1019300004216174416821F00101416010BD000083
:1019400070B5002865D00446407C20B90020207482
:10195000204600F06FF8022060742068416821F092
:1019600008014160FFF70CFB064600BF2068456890
:10197000FFF706FB290705460ED4A81BB0F57A7FB2
:10198000F4D9012504206074284670BDFFF7F8FAE9
:10199000401BB0F57A7FF4D8216848688006F5D5F9
:1019A000486846F62C4240F0100048604868C4F28F
:1019B000000220F007004860A06818B1536823F0C7
:1019C00001035360136823F4607318431060606868
:1019D000421C06D101200125FFF79CFB28B321689A
:1019E0000138C0F3034280B28A60C860486820F0C2
:1019F00010004860FFF7C4FA054600BF2068406841
:101A0000800608D4FFF7BCFA401BB0F57A7FF5D901
:101A1000B7E7012070BD40F201100025A4F80D00C9
:101A20000120E5736074284670BD04206074284668
:101A300070BD000080B582B0006842F60001C4F2BB
:101A4000000188421CBF02B080BDFFF75DFB41F280
:101A50001C00C4F202000168002241F00061016034
:101A60000068012100F000600190019840F23C40C4
:101A7000C4F24220016003200021FFF7FFFA032097
:101A800002B0BDE88040FFF7E9BA000070B5044637
:101A900000284FF0010018BF002900D170BD207C44
:101AA00001284FF0020008BF70BD01232374607449
:101AB000C878BAB1020902EB820200F00F0000EB15
:101AC00042004A788E78130903EB830302F00F0279
:101AD00002EB4303320902EB820206F00F0606EB2B
:101AE000420201E04B788A78E073022BC0B2637344
:101AF000A2731CD81726734348F63966C3F6E3066B
:101B0000A3FB063C00F2CF7348F21F55D2B200EBA4
:101B10009300C5F2EB151044A3FB055600EB5C00E7
:101B2000A0EB561000EBD61000F2D4701CE0DBB234
:101B30001726734348F63966C3F6E306A3FB063C53
:101B400000F5FA6348F21F55C5F2EB15D2B200EB6F
:101B50009300A3FB05561044A0EB561000EBD610E3
:101B600000EB5C0000F2D27044F6251280B2C2F2A3
:101B70009242A0FB0223C21A03EB52029208A2EB8C
:101B8000C20210442268207308709169D069936979
:101B900083EA010636041CBFD069194680B240EAC8
:101BA000014045F69071C0F2010188426BD344F2C6
:101BB0000751CCF22E21A0FB0112110C40F2A322FE
:101BC0005143A0EBC116FFF7DBF9054620684168D9
:101BD000890606D4FFF7D4F9401BB0F57A7FF5D912
:101BE00018E0416841F010014160310C8161B1B2EF
:101BF000C161416821F010014160FFF7C1F905465C
:101C00002068416889060BD4FFF7BAF9401BB0F58C
:101C10007A7FF5D90420607400202074012070BD03
:101C2000016A406A80B240EA0140B0422BD200F51E
:101C3000803000F5A346FFF7A3F905462068416808
:101C4000890606D4FFF79CF9401BB0F57A7FF5D9D9
:101C5000E0E7416841F010014160310C0162B1B22E
:101C60004162416821F010014160FFF789F90546A2
:101C700020684068800606D4FFF782F9401BB0F563
:101C80007A7FF5D9C6E7012060740020207470BD0A
:101C900070B5044600284FF0010018BF002900D19C
:101CA00070BD207C01284FF0020008BF70BD0123E9
:101CB00023746074087802B3020902EB820200F018
:101CC0000F0000EB4200C0B24FF4616250434A780B
:101CD0008978130903EB830302F00F0202EB43023E
:101CE000D2B2C2EB021200EB82000A0902EB8202BE
:101CF00001F00F0101EB420108E04FF46162504333
:101D00004A788978C2EB021200EB8200C9B2461809
:101D1000FFF736F9054600BF20684168890606D4FA
:101D2000FFF72EF9401BB0F57A7FF5D918E041682E
:101D300041F010014160310C8161B1B2C161416873
:101D400021F010014160FFF71BF90546206841684A
:101D500089060BD4FFF714F9401BB0F57A7FF5D94B
:101D60000420607400202074012070BD416821F0BF
:101D700005014160016A406A80B240EA0140B04218
:101D80002BD200F5803000F5A346FFF7F9F80546A1
:101D900020684168890606D4FFF7F2F8401BB0F5C9
:101DA0007A7FF5D9DCE7416841F010014160310CE0
:101DB0000162B1B24162416821F010014160FFF758
:101DC000DFF8054620684068800606D4FFF7D8F89B
:101DD000401BB0F57A7FF5D9C2E70120607400207E
:101DE000207470BD4EF21000CEF20000016841F088
:101DF000020101607047000070470000411E002092
:101E0000B0EB116F1CBF012070474EF21002CEF2F2
:101E1000000251604EF62351CEF20001F0230B7008
:101E20000721906011607047FFF7E6BF7047000020
:101E300070470000B0B590F83C20012A04BF022092
:101E4000B0BD01F108053CCDD1E900CE23F47C53AF
:101E500022F470521A432EF4F0431A432CF4E04358
:101E60001A4324F4C0431A432A43C96922F4804226
:101E7000036811435964002180F83C100846B0BD46
:101E800010B590F83C20012A4FF0020235D0012312
:101E900080F83C3080F83D200268D2F804E0D2F8A7
:101EA00008C00C682EF07003234340F2FF74C4F2A4
:101EB0000004A242536009DCB2F1804F12D040F21C
:101EC0000043C4F200039A420CD010E042F60043F3
:101ED000C4F201039A4205D040F60003C4F20003A5
:101EE0009A4204D149682CF0800319439160012182
:101EF000002280F83D1080F83C20104610BD000004
:101F0000002804BF0120704710B5044690F83D003A
:101F100028B9002084F83C00204600F067F8022031
:101F200084F83D00206840F2FF730268C4F20003A9
:101F300042F6004C9842C4F2010C14DCB0F1804F20
:101F400019D040F20041C4F20001884213D09842F7
:101F500017DCB0F1804F1CD040F20041C4F2000108
:101F6000884216D019E0604505D040F60001C4F261
:101F700000018842EBD1A16822F070020A43984226
:101F8000E7DD604505D040F60001C4F2000188425B
:101F900003D1216922F440720A43A36922F080012F
:101FA000D4F804E0E268194360450160C262C0F8F9
:101FB00028E002D16169CCF8301001214161002094
:101FC00084F8461084F83E1084F83F1084F84010DE
:101FD00084F8411084F8421084F8431084F84410C7
:101FE00084F8451084F83D1010BD000080B584B021
:101FF000006840F60001C4F20001884217D040F2A8
:102000000041C4F20001884229D0B0F1804F0CD1C8
:1020100041F21C00C4F20200016841F001010160BC
:10202000006800F001000390039804B080BD41F205
:102030001C00C4F202000168002241F004010160AA
:102040000068002100F00400019001981E20FFF7B5
:1020500015F81E2004B0BDE88040FEF7FFBF41F236
:102060001C00C4F202000168002241F0020101607C
:102070000068002100F00200029002981D20FEF787
:10208000FDFF1D2004B0BDE88040FEF7E7BF000063
:1020900090F83D1001291CBF01207047022180F8F3
:1020A0003D10006840F2FF72C168C4F20002904225
:1020B00041F00101C16009DCB0F1804F12D040F263
:1020C0000041C4F2000188420CD012E042F6004107
:1020D000C4F20101884205D040F60001C4F20001BB
:1020E000884206D1816801F00701062904BF00205B
:1020F0007047016841F00101016000207047000055
:1021000080B590F83C20012A4FF0020200F0C28016
:10211000012380F83C3080F83D20D0F800C04FF615
:102120007772DCF8083023EA0202CCF808200B684A
:102130004F2B28DC1F2B43DD202B44D0302B42D0EB
:10214000402B40F0A980D1F804E0C968DCF82030C9
:10215000DCF8202022F00102CCF82020DCF8182046
:1021600022F0F00242EA011123F00A0242EA0E02D2
:10217000CCF81810CCF82020DCF8081041F047010A
:1021800021F030017DE06F2B25DDB3F5005F46D0F7
:10219000B3F5805F77D0702B7ED1D1E901E3C968B8
:1021A000DCF8082043EA0E0322F47F4243EA0121CF
:1021B0001143CCF80810DCF8081041F0770160E01A
:1021C0000BB1102B68D1DCF8081021F07001194315
:1021D00041F0070155E0502B34D0602B5CD1D1F891
:1021E00004E0C968DCF82030DCF8202022F010027E
:1021F000CCF82020DCF8182022F4704242EA0131A9
:1022000023F0A00242EA0E12CCF81810CCF82020DD
:10221000DCF8081041F0670121F0100131E0D1E94C
:1022200001E3C968DCF8082043EA0E0322F47F4288
:1022300043EA01211143CCF80810DCF8081041F4FE
:1022400080411EE0D1F804E0C968DCF82030DCF8F9
:10225000202022F00102CCF82020DCF8182022F007
:10226000F00242EA011123F00A0242EA0E02CCF81F
:102270001810CCF82020DCF8081041F0570121F0AC
:102280002001CCF808100022012180F83D10002127
:1022900080F83C10104680BD0122F5E790F83C2004
:1022A000012A4FF0020209D080F83D2002685161F6
:1022B0000121002280F83D1080F83C201046704734
:1022C0007047000010B5016804460869800744BFE4
:1022D000C8685FEA807038D40869400744BFC8689E
:1022E0005FEA40703DD40869000744BFC8685FEAF0
:1022F000007043D40869C00644BFC8685FEAC06084
:1023000048D40869C0071CBFC8685FEAC0704ED1D6
:102310000869000644BFC8685FEA00604FD40869D6
:10232000400644BFC8685FEA406050D40869800630
:1023300046BFC8685FEA806010BD6FF0200220468B
:102340000A61BDE81040FFF773BD6FF0020008613D
:10235000012020778869800741D02046FFF7B0FF31
:1023600043E06FF00400086102202077886910F4D0
:10237000407F3ED02046FFF7A3FF40E06FF008000B
:10238000086104202077C86980073CD02046FFF709
:1023900097FF3EE06FF01000086108202077C869C1
:1023A00010F4407F39D02046FFF78AFF3BE06FF002
:1023B00001000861204600F09BFD2168A8E76FF04E
:1023C000800008612046FFF731FD2168A7E76FF024
:1023D00040000861204600F0E5FD2168A6E72046A0
:1023E00000F0F2F8204600F0BBFC216800202077C6
:1023F00072E7204600F0E8F8204600F0B1FC2168C2
:10240000002020776FE7204600F0DEF8204600F03D
:10241000A7FC2168002020776CE7204600F0D4F864
:10242000204600F09DFC21680020207769E700002D
:102430002DE9F04190F83C30012B04BF0220BDE8AB
:10244000F0814FEAB2020123032A80F83C3000F207
:10245000B580DFE802F0022E5E8E026842F600458B
:10246000146A136AC4F2010523F00103136253686E
:10247000D2F818C0AA428D68D1F800E024F0020416
:1024800044EA05040BD1CD68D1E9056723F4407314
:1024900024F00C0425F0040533432C433B432CF07B
:1024A000730747EA0E0753609761496851631462E6
:1024B00083E0026842F60045146A136AC4F201051B
:1024C00023F0100313625368D2F818C0AA428D6833
:1024D000D1F800E024F0200444EA05140FD1CD68BF
:1024E000D1E905876FF0400623F4406324F0C0046F
:1024F00006EA051543EA88032C4343EA87032CF4D4
:10250000E64747EA0E275360976149689163146272
:1025100053E0026842F60045146A136AC4F20105EA
:1025200023F4807313625368D2F81CC0AA428D68EA
:10253000D1F800E024F4007444EA05240FD1CD68FA
:10254000D1E905872D0240F2FF4623F4405324F4DD
:102550004064B54343EA08132C4343EA07132CF0C5
:10256000730747EA0E075360D7614968D163146265
:1025700023E0026842F60046D2F820C0136AC4F293
:10258000010623F4805313625368D4690D68D1F8AF
:1025900008E0B24204D14E6923F4804343EA861333
:1025A00024F4E64646EA05265360D6612CF400572B
:1025B000496847EA0E33116413620023002180F852
:1025C0003C101846BDE8F08180B5006840F200413B
:1025D000C4F20001884218BF80BD40F20C00C2F274
:1025E00000000178B1B30078002800F0A18040F22B
:1025F0007010C2F200004168028831F812304FF6C4
:10260000FE72934204BF002303800388013231F835
:10261000133092B293423AD0028831F81220002A45
:1026200062D0028844F2402331F81220C0F20F0336
:10263000B3FBF2F240F2582CC2F2000CA2F1010EF0
:10264000DCF800201FFA8EF3D362CCF80C304FEA8E
:102650005E0355E040F27010C2F20000018811B133
:102660000188023900E0418801804168028831F820
:1026700012304FF6FE72934202D14388023B038030
:102680000388013231F8133092B293420FD140F2F5
:102690005820C2F20000002100F0D2FB40F2A0203E
:1026A000C2F200000021BDE8804000F06FB902884E
:1026B00031F81220EAB3028844F2402331F81220A4
:1026C000C0F20F03B3FBF2F240F2582CC2F2000C3E
:1026D000A2F1010EDCF800201FFA8EF3D362CCF8D1
:1026E0000C304FEA5E0330E040F2582CC2F2000C8E
:1026F000DCF800204FF6FF73D362CCF80C300023D7
:10270000536300235362028801EB420149884FF072
:10271000FF3201EB810102EB410140F2A022C2F243
:102720000002126889B2516353620188023101804C
:1027300080BD40F2582CC2F2000CDCF800204FF6AD
:10274000FF73D362CCF80C30002353630023536231
:10275000008801EB400040884FF0FF3100EB800023
:1027600001EB400040F2A021C2F20001096880B2F2
:1027700048634B6280BD0000002804BF0120704701
:1027800010B5044690F83D0028B9002084F83C00BC
:10279000204600F067F8022084F83D00206840F2EF
:1027A000FF730268C4F2000342F6004C9842C4F280
:1027B000010C14DCB0F1804F19D040F20041C4F29A
:1027C0000001884213D0984217DCB0F1804F1CD032
:1027D00040F20041C4F20001884216D019E0604581
:1027E00005D040F60001C4F200018842EBD1A16897
:1027F00022F070020A439842E7DD604505D040F6BA
:102800000001C4F20001884203D1216922F4407220
:102810000A43A36922F08001D4F804E0E268194376
:1028200060450160C262C0F828E002D16169CCF85D
:10283000301001214161002084F8461084F83E10D8
:1028400084F83F1084F8401084F8411084F8421056
:1028500084F8431084F8441084F8451084F83D103F
:1028600010BD00007047000041B1082916D00429AE
:1028700014BF00F1410200F13F0211E090F83E2048
:10288000012A1CBF01207047022280F83E204FEA37
:10289000B103032B4FF0010216D81FE000F14002F4
:1028A0001278012A1CBF01207047022208290DD08E
:1028B000042914BF80F8412080F83F204FEAB1037B
:1028C000032B4FF0010209D91046704780F84020D1
:1028D0004FEAB103032B4FF00102F5D843F67C6CAD
:1028E0000068C0F6000C5CF823C0C36801F01F014B
:1028F00043EA0C03C360036A8A4023EA02010162CF
:10290000036A42F64441C4F201011A43A1F14403AF
:10291000984202620FD040F2FF71C4F20001884277
:1029200013DCB0F1804F1CD040F20041C4F2000132
:10293000884216D022E00A6842F400420A6040F25F
:10294000FF71C4F200018842EBDD42F60041C4F29F
:102950000101884205D040F60001C4F2000188421E
:102960000CD1816801F00701062904BF00207047DF
:10297000016841F0010101600020704701680022F8
:1029800041F00101016010467047000010B54FEAA8
:10299000B102032A4FF0010E53D843F68C6C036842
:1029A000C0F6000C5CF82220DC6842F6444C224061
:1029B000DA6001F01F021C6A0EFA02F224EA020237
:1029C000C4F2010C1A621A6AACF14404A3421A62FE
:1029D00010D15CF8242C41F2111422420AD11A6A57
:1029E00040F24444224205D1DCF8002022F40042A7
:1029F000CCF800201A6A41F21114224208D11A6A56
:102A000040F24444224203D11A6822F001021A60C3
:102A1000082907D004290AD071B9012180F83E1095
:102A2000002010BD012180F84010002010BD0121C0
:102A300080F83F10002010BD01214FF0000E80F8FB
:102A40004110704610BD00002DE9F04390F83C3075
:102A5000012B04BF0220BDE8F0834FEAB20201233C
:102A6000032A80F83C3000F2E580DFE802F002390A
:102A700075AF036842F600461D6A1A6AC4F2010681
:102A800022F001021A621A465C6852F818CFB3426B
:102A90008E68D1F800E025F0020545EA06050CD164
:102AA000CE68D1E9057824F4407425F00C0526F0B1
:102AB00004063C43354344EA08042CF0730747EA14
:102AC0000E075C609F614F6809695F631D629F69C3
:102AD00047F008079F619F6927F004079F61A5E001
:102AE000036842F600461D6A1A6AC4F2010622F023
:102AF00010021A621A46D3F804C052F8184FB342B3
:102B00008E68D1F800E025F0200545EA06150FD1C2
:102B1000CE68D1E905986FF0400707EA06162CF455
:102B2000406725F0C00547EA8907354347EA880C26
:102B300024F4E64444EA0E27C3F804C09F614F68BA
:102B400009699F631D629F6947F400679F619F69E0
:102B500027F480679F6168E0036842F600461D6ABB
:102B60001A6AC4F2010622F480721A621A46D3F875
:102B700004C052F81CEFB3428E680C6825F400754F
:102B800045EA06250FD1CE68D1E90598360240F214
:102B9000FF47BE432CF4405725F4406547EA091728
:102BA000354347EA081C2EF073072743C3F804C0D7
:102BB000DF614F680969DF631D62DF6947F008075D
:102BC000DF61DF6927F00407DF612FE0036842F669
:102BD0000047D3F820C01A6AC4F2010722F48052D9
:102BE0001A621A465C6852F81C5FD1F800E08E68E1
:102BF000BB4204D14F6924F4804444EA87142CF486
:102C0000005747EA063725F4E64646EA0E265C609A
:102C1000DE614E6809691E641F62DF6947F4006760
:102C2000DF61DF6927F48067DF61090213681943F8
:102C300000231160002180F83C101846BDE8F083A5
:102C4000002804BF0120704710B5044690F83D00ED
:102C500028B9002084F83C00204600F067F80220E4
:102C600084F83D00206840F2FF730268C4F200035C
:102C700042F6004C9842C4F2010C14DCB0F1804FD3
:102C800019D040F20041C4F20001884213D09842AA
:102C900017DCB0F1804F1CD040F20041C4F20001BB
:102CA000884216D019E0604505D040F60001C4F214
:102CB00000018842EBD1A16822F070020A439842D9
:102CC000E7DD604505D040F60001C4F2000188420E
:102CD00003D1216922F440720A43A36922F08001E2
:102CE000D4F804E0E268194360450160C262C0F8AC
:102CF00028E002D16169CCF8301001214161002047
:102D000084F8461084F83E1084F83F1084F8401090
:102D100084F8411084F8421084F8431084F8441079
:102D200084F8451084F83D1010BD000081B00068A3
:102D300042F60041C4F20101884201D001B070475F
:102D400041F21800C4F20200016841F40061016020
:102D5000006800F400600090009801B07047000027
:102D60007047000041B1082910D0042914BF00F1B8
:102D7000410200F13F020BE090F83E20012A1CBF07
:102D800001207047022280F83E2012E000F140024C
:102D90001278012A1CBF012070470222082906D0A0
:102DA000042914BF80F8412080F83F2001E080F81A
:102DB0004020006801F01F010122036A8A4023EAD3
:102DC00002010162036A42F64441C4F201011A435E
:102DD000A1F14403984202620FD040F2FF71C4F2A5
:102DE0000001884213DCB0F1804F1CD040F200415A
:102DF000C4F20001884216D01CE00A6842F4004286
:102E00000A6040F2FF71C4F200018842EBDD42F635
:102E10000041C4F20101884205D040F60001C4F22D
:102E20000001884206D1816801F00701062904BF2C
:102E300000207047016841F00101016000207047E7
:102E400080B5026801F01F0C012303FA0CFE136A1F
:102E500042F6444C23EA0E03C4F2010C1362D2F88A
:102E600020E0ACF144039A42C2F820E013D15CF8B0
:102E700024EC41F211131EEA030F0CD1D2F820E02A
:102E800040F244431EEA030F05D1DCF8003023F47E
:102E90000043CCF80030D2F820C041F211131CEAF4
:102EA000030F06D1D2F820C040F244431CEA030FBE
:102EB00012D0082916D0042909D000294FF00101A9
:102EC00014BF80F8411080F83E10002080BD012121
:102ED00080F83F10002080BD136823F001031360C9
:102EE0000829E8D1012180F84010002080BD0000B1
:102EF00070B540F60004C4F201040068A4F5803106
:102F0000884200D070BD40F27815C2F200052878E2
:102F1000E8B1E8880130E8806978E88831B1B0F537
:102F2000FA7F82BF0020E880687010E0B0F57A7FF9
:102F30000DD90020E8800120687020460821012278
:102F4000FEF718F8204604210122FEF713F828782E
:102F500018B16878002818BF70BDA8782844007A96
:102F6000A9782944C97800F0C5FEA87860B1204648
:102F700008210122FDF7FEFF204604210022002443
:102F8000FDF7F8FFAC7070BD204604210122012638
:102F9000FDF7F0FF204608210022FDF7EBFFAE70A1
:102FA00070BD000070470000002804BF012070477A
:102FB00010B5044690F8410028B9002084F840007C
:102FC000204600F05FF8242084F841002068D4E90E
:102FD0000212C36823F40053C360036923F440530F
:102FE0001A430261D4E904231143C268194341F230
:102FF0000C639A431143C1604169A26921F4407195
:10300000114343F60002C4F201029042416102D032
:10301000FEF758FA01E0FEF769FA626819214843A1
:103020009100B0FBF1F048F21F51C5F2EB11A0FB8B
:1030300001235A096FF0630302FB0300322303EB01
:103040000010A0FB0101F02303EA5113206803EBF9
:103050000212C1F3431111448160016921F49041CE
:103060000161416921F02A014161C16841F40051C7
:10307000C16000202021606484F8411084F842106F
:10308000606310BD70B586B0002640F6004405961A
:10309000CDE90366C4F201040068A4F54441884206
:1030A000029601D006B070BD41F21800C4F20200D1
:1030B000416802AD41F480214160416801F4802102
:1030C00001910199016841F00801016000682946F9
:1030D00000F00800019001984FF4806002900220F7
:1030E0000390032005902046FDF736FE4FF4006064
:1030F000CDE90206204629460496FDF72DFE06B0CE
:1031000070BD0000FEE70000B0B584B040F288104A
:10311000C2F2000042F200424FF460250021C4F2E6
:1031200001024FF480730124C56104250391CDE9A8
:10313000011104730175C0E9002183600561FDF789
:1031400067FB002818BFFDF723FA0720CDE90154DB
:10315000039040F28810C2F2000001A9FDF720FAA6
:10316000002818BFFDF714FA0520019002200290F4
:1031700040F28810C2F2000001A9FDF711FA002800
:1031800018BFFDF705FA062001900320029040F2D7
:103190008810C2F2000001A9FDF702FA002818BF4A
:1031A000FDF7F6F9072001900420029040F2881004
:1031B000C2F2000001A9FDF7F3F9002818BFFDF7DE
:1031C000E7F904B0B0BD000080B582B041F2140050
:1031D000C4F202000168002241F0010101600068B0
:1031E000002100F00100019001980B20FDF746FF3F
:1031F0000B2002B0BDE88040FDF730BF2DE9F04361
:1032000085B04FF0000941F21800CDF81090C4F2DB
:103210000200016840F6004441F0100101600168BD
:10322000C4F2010401F01001009100990168A4F5B5
:10323000806541F0040101600168012201F0040190
:103240000091009901684FF0010841F00801016008
:1032500000680C2100F00800009000982846FDF757
:1032600089FE2046FF210122FDF784FE20464FF40F
:1032700080510022FDF77EFE28464FF4C051002207
:10328000FDF778FE4FF4005001AECDE9010904F5D9
:1032900080603146CDF80C80FDF75EFD02272846A0
:1032A0003146CDE90179CDF80C80FDF755FD41F6A9
:1032B0000C0001A981E80103284631460497FDF777
:1032C0004BFD41F2FF0001A981E801032046314690
:1032D0000497FDF741FD4FF40040CDE90109204678
:1032E0003146CDF80C90FDF737FD4FF44070CDE935
:1032F000010920463146CDF80C80FDF72DFD05B0C3
:10330000BDE8F08310B582B040F2FC1042F6000137
:103310000024C2F20000C4F200014FF0FF328DF829
:103320000640ADF804400094C0E90012FEF708FB27
:10333000002818BFFDF72CF940F2FC10C2F2000083
:1033400001A90122ADF804408DF80640FEF7A0FC6B
:10335000002818BFFDF71CF940F20110C0F201006F
:10336000009040F2FC10C2F2000069460122FEF714
:103370008DFB002818BFFDF70BF902B010BD00004F
:1033800070B598B040F60004C4F2010440F2102079
:10339000002504F51051C2F20000C72380261195C4
:1033A000CDE90F55CDE90D55CDE90B55CDE90955C1
:1033B000CDE90755CDE90555CDE90355CDE90155D1
:1033C0003F2280E82600C0E90335C0E90556FFF733
:1033D00037FC002818BFFDF7DBF840F21020C2F2DE
:1033E000000010A9CDE91055FEF74AFD002818BFCE
:1033F000FDF7CEF86020099063200A900020CDE907
:103400000B00CDE90D000F9040F21020C2F2000039
:1034100009A90022FFF718FB002818BFFDF7B8F82C
:1034200031200A9040F21020C2F2000009A90422C3
:10343000FFF70AFB002818BFFDF7AAF840F2102595
:1034400000264FF40050C2F200050596CDE9036650
:10345000CDE90166069001A928460896FEF7EAFC28
:10346000002818BFFDF794F82868CDE91666B0F17A
:10347000804F159614961ED042F60041C4F2010109
:1034800088423DD141F21800C4F20200016841F0C7
:1034900004010160006814A900F00400139013985F
:1034A0004FF4407014900220159017902046FDF7BD
:1034B00053FC18B070BD41F21800C4F2020001685C
:1034C00041F004010160006814A900F004001390A9
:1034D00013984FF400401490022015901790204646
:1034E000FDF73AFC0420C4F2010001684FF6FF42E8
:1034F000CFF6FF02114041F0E06141F480710160BC
:1035000018B070BD10B594B040F258200021C2F23E
:1035100000004FF080423F2340F2E734CDE90D1127
:10352000CDE90B110991CDE90711CDE90511CDE9DF
:103530000311CDE90111C0E90023C0E902140161C2
:103540008161FEF7DDFC002818BFFDF721F84FF47C
:1035500080500B9040F25820C2F200000BA9FEF7F9
:10356000CFFD002818BFFDF713F840F25820C2F233
:103570000000FFF765FB002818BFFDF709F840F2CF
:1035800058200024C2F2000008A9CDE90844FEF743
:1035900077FC002818BFFCF7FBFF6020CDE9010491
:1035A0000394059440F25824C2F2000401A9204675
:1035B0000022FFF749FA002818BFFCF7E9FF20684E
:1035C0000021B0F1804FCDE912111191109121D05D
:1035D00042F60041C4F20101884243D141F2180091
:1035E000C4F20200016841F004010160006810A902
:1035F00000F004000F900F984FF4407010900220DC
:103600001190139040F60000C4F20100FDF7A4FBF6
:1036100014B010BD41F21800C4F20200016841F07C
:1036200004010160006810A900F004000F900F98D9
:103630004FF40040109002201190139040F60000CB
:10364000C4F20100FDF788FB0420C4F20100016808
:103650004FF6FF42CFF6FF02114041F0E06141F426
:103660008071016014B010BD10B58EB040F2A02082
:1036700040F200420021C2F20000C4F2000241F612
:10368000FF034FF6FF740D91CDE90B11CDE9091140
:10369000CDE90711CDE90511CDE90311CDE90111FE
:1036A000C0E90023C0E9021401618161FEF728FC32
:1036B000002818BFFCF76CFF4FF480500A9040F2CE
:1036C000A020C2F200000AA9FEF71AFD002818BFC8
:1036D000FCF75EFF40F2A020C2F20000FFF74CF8BA
:1036E000002818BFFCF754FF40F2A0200024C2F2CB
:1036F000000008A9CDE90844FEF7C2FB002818BF66
:10370000FCF746FF40F2A020C2F2000001A900220F
:10371000CDE9014403940594FEF78AFE002818BF02
:10372000FCF736FF0EB010BD80B586B040F2E82041
:1037300040F600020021C2F20000C4F200023F2362
:1037400040F2E73CCDE90411CDE90211CDE90011C9
:10375000C0E90023C0E9021C01618161FEF7D0FBD2
:10376000002818BFFCF714FF4FF48050029040F27D
:10377000E820C2F2000002A9FEF7C2FC002818BF30
:10378000FCF706FF0020CDE9000040F2E820C2F27D
:1037900000006946FEF774FB002818BFFCF7F8FE2E
:1037A00006B080BD80B540F2303044F60001C2F270
:1037B0000000C4F2000100234FF00C0C4FF49652AD
:1037C00080E80E00C0E90333C0E905C3C361FFF719
:1037D000EBFB002808BF80BDBDE88040FCF7D8BEE9
:1037E000FEE70000FEE7000070470000B0B5056886
:1037F0000446FDF7C5FB281A0028C4BF0020B0BD51
:10380000D4E900010D182560FDF7BAFB281A00283D
:10381000C4BF0120B0BDFDF7B3FB61680844206060
:103820000120B0BDB0B50C4605464160FDF7A8FBD0
:1038300020442860B0BD000040F2FC10C2F200003D
:10384000FEF756B87047000080B5FDF79FFBBDE856
:103850008040FEF7E9BA00007047000040F2A02067
:10386000C2F20000FEF72EBD40F2E820C2F20000D6
:10387000FEF728BDFEE7000010B540F2781040F6D4
:103880000004C2F2000000212022C4F20104817071
:1038900001704170C18002724272C1700171204694
:1038A00004210122FDF766FB204608210122FDF7D5
:1038B00061FB40F2E820C2F20000BDE81040FEF7D4
:1038C000E7BB000040F27831C2F20001898840F481
:1038D0000040081AB0FA80F04009704740F2783191
:1038E000C2F200018988081AB0FA80F040097047D6
:1038F000F0B581B040F27835C2F20005A88840F6F4
:10390000004400F40040C4F20104A88004F5806083
:103910004FF400514FF0FF36FDF726FBB0FA80F070
:103920004709A4F580600221FDF71EFBB0FA80F084
:10393000400947EA400720464FF48071FDF714FB29
:10394000B0FA80F0400947EA800720464FF4007142
:10395000FDF70AFBB0FA80F0400947EAC000288072
:10396000B0B369888842014612D0A88805216FF358
:10397000DF30A8800020287605F10800FFF752FF0D
:1039800005F110004FF47A71FFF74CFF2988688821
:10399000084305F1100468802046FFF727FFB0B305
:1039A000B5F90400B04232DD6888297E40F4004059
:1039B000A880481CC1B2092928762AD308222046AB
:1039C0004FF47A712A7601B0BDE8F040FFF72ABFC4
:1039D00005F108042046FFF709FFB5F9041018B1F6
:1039E000B142C4BF6988A98000206FF3DF316880CD
:1039F000A980287605F110004FF47A71FFF712FFC5
:103A00002046052101B0BDE8F040FFF70BBF01B033
:103A1000F0BD2046002101B0BDE8F040FFF702BF35
:103A200094B0FDF7C1FA00240A200D94CDE90B44AF
:103A30000A90012010210E90CDE90F1002254FF4BD
:103A40006010CDE9115413900AA80994CDE90744F8
:103A5000CDE90544CDE90344CDE90144FDF75AFD24
:103A600018B1EFF3108072B6FEE70F20CDE905051F
:103A70004FF480600794CDE9080405A80221FDF702
:103A800043FC20B1EFF3108072B600BFFEE70320C5
:103A900001904FF4007002904FF40040039001A891
:103AA000FDF7AEFB18B1EFF3108072B6FEE7FFF73B
:103AB000A5FBFFF789FBFFF727FBFFF761FCFFF78B
:103AC00021FDFFF76FFEFFF71DFCFFF7CDFDFFF7B0
:103AD0002BFEFFF7D1FEFDF7C1F840F2FC10C2F259
:103AE0000000006843F69C690168C0F6000941F0D7
:103AF00001010AAD0160284649460122FCF768FB36
:103B000028460021002400F0E5F840F2E808C2F25F
:103B10000008404600F048F843F63467C0F6000756
:103B2000FFF7E6FE0120FFF7CDFE10B1404600F0A2
:103B30003BF80220FFF7D2FE20B1E0B257F8200098
:103B400000F05AF80120FFF7C9FE20B1E0B257F8A3
:103B5000200000F029F80420FFF7C0FE70B1013406
:103B6000E0B2062888BF0024E0B2421C284649463D
:103B7000FCF72EFB2846002100F0ACF80820FFF7E8
:103B8000ADFE0028CCD0661E200608BF0626F0B287
:103B9000421C28464946FCF71BFB2846002100F042
:103BA00099F83446BCE7000010B540F27011C2F23B
:103BB00000014860002240F20C000A80C2F20000BE
:103BC0000121017040F25820C2F200000168CA626F
:103BD000C2604A634A620021FFF7C4F840F2A024A1
:103BE000C2F2000420460021FEF73EFE20460221DC
:103BF000BDE81040FEF752BB10B540F20C02C2F215
:103C000000024FF0000C82F800C040F27012C2F2C5
:103C10000002A2F800C0138830F813404FF6FF737B
:103C20009C4235D05C1EA4B2118830F81110A1421C
:103C30002ED0118802311180118830F8111099426C
:103C400026D0118830F81110A14221D011880231FC
:103C50001180118830F81110994219D0118830F86C
:103C60001110A14214D0118802311180118830F84E
:103C7000111099420CD0118830F81110A14207D0D0
:103C8000118802311180118830F811109942CBD17E
:103C900050601088508040F25820C2F20000016845
:103CA000C1F82CC0C0F80CC0C1F834C0C1F824C0A1
:103CB0000021FFF757F840F2A024C2F2000420468A
:103CC0000021FEF7D1FD20460221BDE81040FEF79D
:103CD000E5BA000040F27812C2F2000200239370AD
:103CE00011705370D3800178117240785072D37084
:103CF00013717047A0F12002432A00F22B800FF2CB
:103D00000C0000EB82030020DFE802F03B242424B7
:103D10002424242424242424242424242226282A59
:103D20002C2E3032343624242424242424242438F1
:103D30002424242424242424242424242424242443
:103D40002424242424242424242424242424243A1D
:103D50003F2016E07F2014E0062012E05B2010E0F8
:103D60004F200EE066200CE06D200AE07D2008E088
:103D7000072006E07F2004E06F2002E0392000E009
:103D8000582070B540F29435C2F2000528702878AA
:103D900040F60044084328702878C4F20104C04368
:103DA000C0B2C20920468021FDF7E4F82878012638
:103DB00026EA000220460121FDF7DCF828780221DE
:103DC00026EA50022046FDF7D5F82878042126EA95
:103DD00090022046FDF7CEF82878202126EAD0026E
:103DE0002046FDF7C7F82878102126EA1012204651
:103DF000FDF7C0F82878082126EA50122046FDF782
:103E0000B9F82878402126EA90122046BDE8704093
:103E1000FDF7B0B830380A2801D2012070470020E1
:103E200070470400000800000000000000020001CC
:103E3000000010003E00002030000020180000208C
:103E40000E000020600000201E0000206E000020F8
:103E5000000000000000000001020304060708093A
:103E6000000000000102030401020203040506072A
:103E700008090A0B0C0D0E0F1010000002000000C4
:103E8000040000000800000010000000FDFFFFFF1C
:103E9000FBFFFFFFF7FFFFFFEFFFFFFF253032645F
:103EA00000000000C83E00080000002010010000D3
:103EB00028010008D83F00081001002090080000E9
:103EC0004401000800000000010000001000000094
:103ED0000024F4000100840390012C019001FEFFF6
:103EE000F4013200FFFF1704440097044400270543
:103EF000440075054400FFFFBC020A0084031E0055
:103F0000DC053200FFFF1704440097044400270536
:103F100044007505440020064400E0064400B8074C
:103F200044002D084400FFFFDC05C800F401C80070
:103F3000DC05C800FFFFDC0523002C012300DC05A5
:103F400023002C012300DC0523002C012300DC05C9
:103F500023002C012300DC0523002C012300DC05B9
:103F600023002C012300DC0523002C012300DC05A9
:103F700023002C012300DC0523002C012300DC0599
:103F800023002C012300DC0523002C012300DC0589
:103F900023002C012300DC0523002C012300DC0579
:103FA00023002C012300DC0523002C012300FFFF4C
:103FB0001704440097044400270544007505440095
:103FC00020064400E0064400B80744002D084400E1
:083FD000FFFF000000000000EB
:04000005080000ED02
:00000001FF
