:020000040800F2
:10000000B8080020990100081D3500087530000867
:1000100019350008A50C0008B538000800000000DC
:100020000000000000000000000000009D380008F3
:10003000A90C00080000000029350008A1380008BC
:10004000B3010008B3010008B3010008313800080B
:10005000B3010008B3010008B3010008B50C0008A3
:10006000B3010008B3010008B3010008B3010008A0
:10007000B3010008B3010008B3010008B301000890
:10008000B3010008B3010008B3010008B301000880
:10009000B3010008B3010008B3010008B301000870
:1000A000B3010008B3010008B3010008B301000860
:1000B000B3010008B3010008B3010008B301000850
:1000C000B3010008B3010008B3010008B301000840
:1000D000B3010008B3010008B3010008B301000830
:1000E000AD0C000879350008B301000800F002F8F3
:1000F00000F042F80AA090E8000C82448344AAF180
:100100000107DA4501D100F037F8AFF2090EBAE87D
:100110000F0013F0010F18BFFB1A43F0010318473B
:10012000D03C0000F03C0000103A24BF78C878C1F1
:10013000FAD8520724BF30C830C144BF04680C60ED
:10014000704700000023002400250026103A28BF35
:1001500078C1FBD8520728BF30C148BF0B60704739
:100160001FB59DE8030000F035FC00F0A7F91FBDA6
:1001700010B500F00CFA10BD00F03CFA1146FFF784
:10018000EFFF03F04BFD00F0F5FB03B4FFF7F0FFCA
:1001900003BC00F0F1FC0000094880470948004713
:1001A000FEE7FEE7FEE7FEE7FEE7FEE7FEE7FEE727
:1001B000FEE7FEE704480549054A064B7047000084
:1001C000B1380008ED000008B8020020B80800208F
:1001D000B8040020B804002010B5044603E003F082
:1001E000D7FD401C09D014F8010B05490028F6D1B1
:1001F000BDE810400A2003F0CBBD4FF0FF3010BD2A
:100200006C0000204FF0000200B51346944696465D
:10021000203922BFA0E80C50A0E80C50B1F1200119
:10022000BFF4F7AF090728BFA0E80C5048BF0CC0C7
:100230005DF804EB890028BF40F8042B08BF704725
:1002400048BF20F8022B11F0804F18BF00F8012B97
:10025000704700004FF0013C50F8042B51F8043B6C
:100260009A4221D1A2EB0C03934313EACC1317D18A
:1002700050F8042B51F8043B9A4215D1A2EB0C0321
:10028000934313EACC130BD150F8042B51F8043BE1
:100290009A4209D1A2EB0C03934313EACC13DBD0AF
:1002A0004FF00000704700BFD01A01BAB1FA81F1D7
:1002B00001F0180122FA01F0CB40DBB2C0B2C01A43
:1002C000C1F120012CFA01F3D11A914311EAC311B3
:1002D000E6D170477047704770472DE9F05F0546DB
:1002E00017460C46C86820F4201040F48000C8600F
:1002F000800602D5084600F07EFAE06841F28201ED
:100300004FF0FF3A0140022903D0204600F010FAD6
:10031000B9E000F42041B1F5004F0FD1C00306D57C
:100320006168E06A884200D80846606006E020699B
:10033000E0626060606903F0C9FAA061A068002211
:10034000EEB200280DDAE1688B050AD4C043A06044
:1003500041F490302260E0606068411C616006708A
:10036000AAE0E0689146226040F40050E060206915
:1003700078BB606903F0ACFA04F124054FF0010882
:10038000A8B1A08910F4407F08D0E06900F057F9C7
:10039000206118B1E06840F4006017E0C4F81C80E8
:1003A0002561E06820F4407040F480600EE0E06970
:1003B00000F045F900282061F0D0E06840F40060CA
:1003C00010F4407FE06002D140F48070E06020696A
:1003D0006060E06825696FF0010BC1051ED561689A
:1003E000E06A884200D80846411B04D022462846CD
:1003F00000F0A8F9E8BB1FB1E562C4E9015959E072
:10040000681CE0626060E069401EA060E06840F443
:100410008030E06030462E70BDE8F09F17B100F4E8
:1004200080320AE06068411C61600670E0680A2E54
:1004300040F48030E06006D00022E16A60688142CA
:1004400003D90B4602E00122F7E70346B4F80CC0DB
:100450005B1B5FEA4C5C04D4D4F81CC09C4500DDF7
:1004600002B3814200D80146002BA1EB0008E562EF
:1004700000E008E0C4E9015907DD22461946284694
:1004800000F060F908B15046C6E7B8F1000F09D096
:10049000A169E5626560A1EB0800A061E06840F039
:1004A0001000E06047B16168A069E562491B08443B
:1004B0006560A0615846AFE73046ADE710B54248E9
:1004C0005421FFF79FFE41485421FFF79BFE40480F
:1004D0005421FFF797FE3F493B483C4A3F4B086099
:1004E0003D490A603A491960531C0365481C106570
:1004F000012008653B48344A39A1784400F09CF952
:1005000020B9384878440A3800F03DFA37482F4A75
:1005100035A1784400F090F920B9344878440A387D
:1005200000F031FA32482A4A2FA1784400F084F9C9
:1005300020B92F4878440A3800F025FA4023224891
:10054000DC000021224600F0D0F820B12548784494
:10055000543800F018FA1D4822464023002100F0CC
:10056000C4F820B121487844543800F00CFA1848F7
:1005700022461023002100F0B8F8002806D01C48BD
:100580007844BDE81040563800F0FDB910BD104861
:1005900070B5006D20F001040B4800F0C5F90B4860
:1005A00000F0C2F90A4800F0BFF909E0206D20F020
:1005B0000105204600F0B8F9204600F06FF82C46FF
:1005C000002CF3D170BD0000180000206C0000204A
:1005D000C0000020000000200400002008000020CF
:1005E00072000000D038000077000000BF38000023
:1005F00098380000754600F0CDF9AE460500694612
:10060000534620F00700854618B020B5FFF7D2FD0D
:10061000BDE820404FF000064FF000074FF0000803
:100620004FF0000BAC46ACE8C009ACE8C009ACE840
:10063000C009ACE8C00921F007018D46704770B5CC
:10064000064600F0ABF9056806F10B0020F0070440
:10065000B4429CBF002070BD2B466A68BAB11068D6
:10066000A04210D304F1080188423CBF5068586092
:1006700007D35168101941601168091B0160586067
:100680001460101D70BD13465268002AE7D1214640
:10069000284600F08BF90028DED170BD70B5044605
:1006A000051F00F07BF90068002C14BF446870BD82
:1006B000002C18BFAC423CBF20466468F8D30168E8
:1006C0000A18AA4218BF456003D12A68054611449A
:1006D000016028684119A1421CBF6C6070BD61684F
:1006E000696021680844286070BD70B5C468A507BA
:1006F00013D0650211D4B2F5807F09D0B2F5007F26
:1007000006D0B2F5806F08D1012300F1240106E084
:100710005D1E6FF07F46B54201D3012070BD0161BF
:10072000C361416024F470611143C160002070BD59
:10073000C16821F4001141F08001C1600021816095
:10074000016070472DE9F74F15460C464FF0FF3B0F
:100750003848D768D2F814A0074209D05046A96992
:1007600003F0F0F8002819DB3248C0430740EF607F
:100770004FF000496FF000484C4501D3464600E079
:10078000264600993B465046324603F0DFF8A969F9
:1007900020F00042B21A1144A96128B12846FFF79F
:1007A000C7FF5846BDE8FE8FA41BE5D10020F9E73E
:1007B00070B504460569C06A6168884200D8084679
:1007C000E16821F42011E160C90312D5A84208D0E4
:1007D0002246411B2846FFF7B5FF10B14FF0FF300E
:1007E00070BD0020E562C4E90150E06820F480306B
:1007F000E060002070BD10B50446C06820F0200005
:10080000E060A16AA06988420DD02046FFF7D0FFC2
:10081000E06820F4405040F01000E060A06AA06161
:100820002069E062606044F24001E0688843E06073
:1008300010BD0000100002002DE9F0410C461646E4
:10084000070047D0104600F06FF82078611C61283F
:100850000AD0722802D077283CD102E0012500247A
:1008600005E00225042402E0082448F2020511F8FC
:10087000010B2B2806D0622809D011F8010C74282E
:100880000AD00BE045F0030544F00204EFE745F021
:10089000040544F00104EAE744F010043846214618
:1008A00003F01EF8411C15D00021316171604FF436
:1008B0000071F560F1617061200704D530460222B5
:1008C000002100F0BDF8306D40F001003065304689
:1008D000BDE8F0810020FBE72DE9F0410D4606461A
:1008E000104C206DC10704D0410804D020F0010451
:1008F000F7E722460EE05420FFF7A1FE07000ED0D6
:10090000206D47F001010843542120653846FFF768
:1009100079FC3A4629463046BDE8F0418CE7002094
:10092000D6E70000180000202DE9F04704464FF0FC
:10093000FF380026C568D4E90497A80718D02046D8
:10094000FFF736FF384602F0B7FF002800DA4646C8
:10095000280502D54846FFF7A1FE4C212046FFF7A7
:1009600051FC206D20F0010020653046BDE8F08785
:100970004046FBE710B50446AFF300802046BDE8D3
:100980001040FFF702BC10B500F0DCF8BDE81040E5
:1009900000F0D2B8004870471401002000487047AA
:1009A0001C010020704770477047704738B50446F7
:1009B0000A4600206946AFF30080002808BF38BD12
:1009C00002460099204600F0DDF8012038BD0120E4
:1009D00000F02CB9F8B5AFF30080054600200C46B6
:1009E000102000BF0646A819A0420DD9324669461C
:1009F0000020AFF30080070008BF00F017F900984F
:100A0000A04218BF0546C419FFF7C8FF0560074696
:100A1000F01D20F007004619284600F00AF8B442FD
:100A200008BFF8BDA21B31463868BDE8F84000F0A9
:100A3000A9B800210160C0E901107047102070477B
:100A40002DE9F041044616460D464769007B8007B4
:100A50002ED0384602F03CFF50BB3EB3012E02D0F0
:100A6000022E25D104E0204600F0A6F805441DE042
:100A7000384602F02BFFE168002841F01001E160E8
:100A800005DA2046FFF754FE0120BDE8F081C903D6
:100A90000BD56268E16A914200D81146A2691144FF
:100AA0002269891A814200DD08460544002D01DAD9
:100AB0000220EAE7E16A6068E268814206D29103B7
:100AC000E06203D522F4003141F01002A66900274C
:100AD000AE4213DCE16A814201D90B4600E00346D5
:100AE00003EB060C2369ACEB030CAC4506DD81423D
:100AF00001D98C4600E084469C4505D1A76027605B
:100B000042F02000A5620DE0AD1BE669AE1B8142FC
:100B1000A66000D90846C01A281A206058196060DB
:100B200022F0200003490840E060002084F848706B
:100B3000ABE70000BFCFD7FF002801D000F01CB802
:100B40007047000010B5014602A000F056F80120E1
:100B500010BD000053494752545245443A20526553
:100B60006469726563743A2063616E2774206F70E4
:100B7000656E3A200000000001491820ABBEFEE778
:100B800026000200034640688C46002818BF8842B1
:100B90003CBF03464068F8D318681844884207D021
:100BA0000CF1030020F00700001D411A521A014603
:100BB000081D0A60FFF772BD10B50146C2689007B4
:100BC00003D0900607D5886A0AE000F03FF80121BB
:100BD0000160881E10BD8B69486818440B69C01AF3
:100BE00091F848301BB191F84910401A10BD11031B
:100BF000FCD50028FADD401E10BD70B505460C4638
:100C00000A2000E06D1C00F018F835B128780028A3
:100C1000F8D102E0641C00F010F814B1207800282C
:100C2000F8D1BDE870400A2000F007B810B500F018
:100C300011F8BDE81040FFF77FBF08B569468DF891
:100C400000000320ABBE08BD70470000004870479D
:100C50001401002010B5012805D0002103A0FFF7E2
:100C6000CCFF012010BD09A1F8E70000534947520D
:100C7000544D454D3A204F7574206F66206865616C
:100C800070206D656D6F7279000000003A20486534
:100C90006170206D656D6F727920636F727275700F
:100CA00074656400FEE70000704700004FF40050D8
:100CB00000F01EBA022000F01BBA0000EFF3108013
:100CC00072B600BFFEE7000010B581B000220092AE
:100CD00090F82420012A03D10221084601B010BD5A
:100CE0004B680122062B80F8242017D8D0F800C0CA
:100CF00003EB83035A1F1F23DCF834E003FA02F4EA
:100D00000B682EEA040403FA02F22243CCF83420E2
:100D1000092B03EB430219D936E000BFD0F800C01D
:100D20000C2B03EB83021DD8233A1F23DCF830E0A1
:100D300003FA02F40B682EEA040403FA02F22243D7
:100D4000CCF83020092B03EB43021DD8DCF810301F
:100D5000072489689440A34391401943CCF81010AC
:100D6000002130E0413A1F23DCF82CE003FA02F4C2
:100D70000B682EEA040403FA02F22243CCF82C207A
:100D8000092B03EB4302E1D9DCF80CE01E3A0724FF
:100D9000896894402EEA0404914023F00102214323
:100DA000102ACCF80C100DD142F20841C4F2010116
:100DB000A1F1080294450DD0816A41F020018162C1
:100DC000012100E00021002280F82420084601B023
:100DD00010BD00BF0A68120230D40A68102B42F41A
:100DE00000020A602CD140F21401C2F2000109682D
:100DF0004DF68362C4F21B32A1FB0212910C01EB8F
:100E00008101490000910099E1B1009901390091F7
:100E10000099C9B10099013900910099B1B10099C7
:100E200001390091009999B1009901390091009917
:100E300000294FF00001E8D1C5E700BF0021C2E75B
:100E40000021C0E70021BEE70021BCE70021BAE78E
:100E50000021B8E7B0B5002800F0A8800446806AF9
:100E600020B121688868C0070BD114E00020E0623F
:100E700084F82400204600F09BF821688868C007A9
:100E800009D0886820F00100886000F05FFA2168CE
:100E90008A68D20726D1A06AC0063AD4A06A41F275
:100EA000021290430230A062E069D4E9013240EAC4
:100EB000030C531EB3FA83F35D091346B2F5807F2A
:100EC00018BF2B02207D257B01284CEA450030D13C
:100ED00035B3A56A45F02005A562E56A45F0010530
:100EE000E56226E0054602E08868C007D3D000F03E
:100EF0002DFA401B21680328F6D38868C007F3D079
:100F0000A06A40F01000A062E06A40F00100E062D8
:100F1000A06AA06A40F01000A0620120B0BD00BF2E
:100F2000D4F818C04EF60005CFF6FF7505EB4C352A
:100F30002B434D68B2F5807F25F4694543EA0503EC
:100F40004B608B684FF2FD75CFF6E17503EA050340
:100F500043EA00038B6001D0012A07D122690023F4
:100F6000CFF6F07303EB025201E000BF0022CB6A20
:100F700023F470031A43CA62896840F6FE62CFF612
:100F80001F721140814207D10020E062A16A012254
:100F900062F30101A162B0BDA06A40F0100020F030
:100FA0000200A062E06A40F00100E0620120B0BDF2
:100FB00080B586B0014640F60000C4F20100096821
:100FC00000F5E05291424FF00001CDE9041101D04B
:100FD00006B080BD41F21801C4F202010A6842F471
:100FE00000720A600A6802F400720192019A0A68AB
:100FF00042F004020A60096801F0040101910199BC
:10100000F02102910321039102A900F07DF806B0BE
:1010100080BD0000B0B5044600F098F9054640F2E6
:101020000C00C2F200000078611C18BF044400BF2D
:1010300000F08CF9401BA042FAD3B0BD10B50446B5
:1010400002F054FDB4F5005F02D0022C18BF10BDB1
:1010500041F20000C4F20200016841F001010160A8
:101060000168890709D4016889075CBF01685FEAE4
:10107000817102D401688907F2D5016841F080715D
:1010800001600168890109D4016889015CBF0168B8
:101090005FEA811102D401688901F2D54168022218
:1010A00062F30101416000BF416801F00C010829B1
:1010B0000ED0416801F00C01082909D0416801F007
:1010C0000C01082904D0416801F00C010829EBD17A
:1010D00001F07EFB40F60000C4F201004FF4006115
:1010E000012200F02DF9BDE8104000F0EDB900003C
:1010F00040F21441C4F201010A68024214BF0860C0
:101100007047FFF79BBF00002DE9F04F82B00E68DB
:10111000002E00F0038141F20042C4F201020423D8
:1011200040F2004E904208BF03234FF6FF7CC4F20A
:10113000010E009300240123C1F2100C4FF0000AAD
:101140004FF0000949E000BF012704F00C030F2213
:101150009A402BEA020207FA03F34FEA9A051A4370
:1011600046F82520D1F804B040F20C455FEACB22C6
:10117000DEF8082054BF22EA080242EA0802C4F25C
:101180000105CEF808202A685FEA8B2354BF22EAC3
:10119000080242EA08022A605FEA8B33DEF8042084
:1011A00054BF22EA080242EA08025FEACB33CEF8D3
:1011B0000420DEF800204FF0010354BF22EA0802A9
:1011C00042EA0802CEF800200E680AF1010A36FA57
:1011D0000AF204F1040400F0A18003FA0AF816EA06
:1011E000080FF1D04E68664512DC122E56D8DFE8A3
:1011F00006F0350B454955555555555555555555D9
:101200005555554D510000BFD1F80C9046E000BF38
:101210004FF6FF72C1F2210296420FDC0022C1F2AA
:10122000110296421AD00022C1F21202964215D043
:101230000022C1F22102964210D02FE00022C1F21A
:10124000220296420AD00022C1F23102964205D013
:101250000022C1F23202964220D100BF8A684AB110
:10126000012A14BFC0F81480C0F810804FF008099C
:1012700014E000BF4FF0040910E000BFCA6802F19B
:1012800008090BE04FF0000908E000BFCA6802F14E
:10129000040903E0CA6802F10C0900BF22460646B1
:1012A000BAF1080F24BF203A043637680F2595405D
:1012B00027EA050509FA02F22A433260CA79D20602
:1012C0007FF582AF41F21803C4F202031A68AEF54B
:1012D0007E7642F001021A601A6802F00102019261
:1012E000019A2AF0030256F802B040F60002C4F256
:1012F0000102904210D040F60042C4F20102904236
:101300003FF422AF41F20002C4F20102009F90427A
:1013100008BF022719E700BF002716E702B0BDE8A3
:10132000F08F00008068084018BF0120704700005F
:10133000C26802EA0103914341EA03410161704737
:10134000002A08BF090401617047000040F2B42080
:10135000C2F200000068704740F20C0040F2B42175
:10136000C2F20000C2F2000100780A68104408606E
:101370007047000080B542F20000C4F2020001682C
:1013800041F010010160032000F08EF80F2000F002
:1013900005F800F027F8002080BD000070B540F28D
:1013A0000C06C2F2000640F214013278C2F20001CB
:1013B0004FF47A730968B3FBF2F20446B1FBF2F121
:1013C000084601F037FA0F2C4FF0010508D838B95C
:1013D0004FF0FF3021460022002500F039F87460FC
:1013E000284670BD82B041F21800C4F202000168C4
:1013F000022241F001010160016801F00101019147
:101400000199416841F080514160406800F080508E
:10141000009000980420C4F20100016862F31A6190
:10142000016002B070470000002848BF7047C1B299
:1014300000F01F00012202FA00F04EF20012CEF27C
:10144000000242EAD10121F0030108607047000068
:1014500010B54EF60C5CCEF2000CDCF80030C3F395
:10146000022E8EF00704042C28BF0424BEF10303CF
:101470004FF0FF3E0EFA04F438BF0023A143994019
:101480000EFA03F39A43114300F00F0200F1604398
:101490000901043A03F564436244002848BF02F19D
:1014A0000C03197010BD00004EF60C51CEF2000175
:1014B0000A684FF6FF031A4060F30A2242F0806088
:1014C00040F0FD70086070474EF61050CEF20000FC
:1014D000016821F002010160704700002020C4F281
:1014E0000E2001210160704710B547F20002C4F2DE
:1014F000000213684EF6105423F0020313601368C1
:10150000CEF2000423F00103184310602068012983
:1015100040F00400206009D1BFF34F8F30BFBFF30C
:101520006F8F206820F00400206010BD40BF01F0E4
:10153000F7FF01F0F5FF206820F00400206010BDE7
:1015400080B5012818D0022836D0102832D141F2B7
:101550000401C4F202010A6851F8040CC00129D543
:10156000C2F383402DA3185CD2033DD440F6001291
:10157000C0F23D02504343E041F20400C4F20200D5
:10158000C16940F202320A40B2F5817F04BF4FF4D4
:10159000004080BD01F44071B1F5407F1CD0B1F531
:1015A000007F07D1006A49F64041800701EAE070F8
:1015B00080BD00BF002080BD00F0B4F941F20401FD
:1015C000C4F2020109680222C1F3813102EB410138
:1015D000B0FBF1F080BD00BF50F8040C4FF2244185
:1015E000800301EAE07080BD0A6810A3C2F34042A4
:1015F0009A5C41F20023C0F27A03B3FBF2F250434B
:101600000968490248BF80BD4AF6AB214000CAF6CE
:10161000AA21A0FB0101480880BD00BF0203040508
:10162000060708090A0B0C0D0E0F1010010200002E
:101630002DE9F04182B00446007841F21C06C00753
:10164000C4F202064AD0306810F0805808D13068E1
:1016500040F080503060306800F080500190019878
:1016600047F20007C4F200073868C00512D4386892
:1016700040F480703860FFF769FE05463868C005A1
:1016800008D4FFF763FE401B6428F7D9032002B09B
:10169000BDE8F081706810F4407012D0616801F408
:1016A000407188420DD0706840F24042C4F242223C
:1016B000012320F4407113600023C00713607160A0
:1016C0002AD17068616820F440700843B8F1000FB7
:1016D000706003D1306820F080503060206881074E
:1016E00007D556F8181CA26821F44041114346F86A
:1016F000181CC00604D4002002B0BDE8F08100BF71
:1017000056F8180CE16820F48000084346F8180CDD
:10171000002002B0BDE8F081FFF718FE054641F257
:10172000883700BF70688007CBD4FFF70FFE401BDF
:10173000B8424FF00300F5D9EBE700002DE9F04384
:1017400081B0002800F0858042F20008C4F202084F
:101750000446D8F800000D4600F0070088420CD27D
:10176000D8F8000020F007002843C8F80000D8F897
:10177000000000F00700A8426BD1206841F2040984
:101780008107C4F2020917D5410705D5D9F8001021
:1017900041F4E061C9F80010010705D5D9F800103F
:1017A00041F46051C9F80010D9F80010A26821F086
:1017B000F0011143C9F80010C00741D1D8F800006A
:1017C00000F00700A8420CD9D8F8000020F007006C
:1017D0002843C8F80000D8F8000000F00700A8422D
:1017E00037D12068410707D5D9F80010E26821F405
:1017F000E0611143C9F80010000708D5D9F80000CE
:10180000216920F4605040EAC100C9F80000D9F80D
:10181000002002F00C00082841F20020C0F27A00FB
:1018200050D143F6DD53C2F38341C0F60003595C47
:10183000D2033BD440F60010C0F23D00484341E0E3
:10184000606802280AD001282AD159F8041C8903AB
:1018500008D4012001B0BDE8F08300BF59F8041C92
:101860008901F6D5D9F8001021F003010843C9F821
:101870000000FFF76BFD064641F28837D9F80000FB
:10188000616800F00C00B0EB810F97D0FFF75EFDB0
:10189000801BB842F2D9032001B0BDE8F08300BF3D
:1018A00059F8041C8907D4D5DCE700BFD9F800201B
:1018B00043F6C453C2F34042C0F600039A5C484367
:1018C000B0FBF2F0D9F8001043F6AC52C1F30311AB
:1018D000C0F60002515C40F2140220FA01F140F21D
:1018E0001000C2F200000068C2F200021160FFF7AF
:1018F00055FD002001B0BDE8F083000040F2140067
:1019000041F20401C2F20000C4F202010068096859
:1019100043F6BC52C1F30221C0F60002515CC8403C
:101920007047000040F2140041F20401C2F20000CE
:10193000C4F202010068096843F6BC52C1F3C22137
:10194000C0F60002515CC840704700002DE9F0412C
:1019500082B0002868D00446007841F20006C00733
:10196000C4F2020625D0706800F00C0004281BD0D9
:10197000706800F00C00082802D17068C00313D40E
:101980006068002800F06881B0F5A02F00F07C812D
:10199000B0F5803F00F07C81306820F4803030600A
:1019A000306820F4802076E13068800301D56068DB
:1019B000D0B32078800718D5706810F00C0F07D0CE
:1019C000706800F00C0008286ED17068C0036BD4FA
:1019D0003068800702D52069012825D13068616907
:1019E00020F0F80040EAC1003060207800071FD4E2
:1019F0002078400732D4E56995B1706800F00C009A
:101A0000082840F08F80012D0ED07068216A00F404
:101A100080328A4208D1616A00F47010884203D192
:101A2000002002B0BDE8F081012002B0BDE8F081E5
:101A3000A069002862D00020C4F242200121C0F831
:101A40008014FFF783FC0546706A800700F18C80E4
:101A5000FFF77CFC401B0228F6D92AE1F06910F060
:101A6000805808D1F06940F08050F061F06900F0D2
:101A700080500090009847F20007C4F200073868D1
:101A8000C00529D4386840F480703860FFF75EFCE8
:101A9000054600BF3868C0051ED4FFF757FC401B41
:101AA0006428F7D905E100BF2069002840F2000052
:101AB000C4F2422000F0828001210160FFF746FC61
:101AC000054600BF306880073FF588AFFFF73EFC52
:101AD000401B0228F6D9ECE0E068002800F0808086
:101AE000052800F09780012800F09880306A20F0E7
:101AF00001003062306A20F0040092E00020C4F25D
:101B000042200021C0F88014FFF720FC054600BFEA
:101B1000706A80077FF56CAFFFF718FC401B022846
:101B2000F6D9C6E00027C4F2422700203866FFF746
:101B30000DFC022D05460BD13068800140F1BE80BE
:101B4000FFF704FC401B02284FF00300F4D968E7BC
:101B5000306880017FF564AFFFF7F8FB401B022877
:101B60004FF00300F4D95CE740F21400C2F2000029
:101B7000006844F6D351C1F26201A0FB0101480A9A
:101B8000019000BF00BF0198411E002801913FF461
:101B90002FAF00BF0198411E002801913FF428AFEC
:101BA00000BF0198411E002801913FF421AF00BF02
:101BB0000198411E00280191E4D119E7002101603C
:101BC000FFF7C4FB054600BF306880077FF50DAF07
:101BD000FFF7BCFB401B02284FF00300F4D920E7BD
:101BE000306A20F001003062306A20F00400306278
:101BF000FFF7ACFB054641F2883700BF306A80072B
:101C000020D5FFF7A3FB401BB8424FF00300F5D9E6
:101C100007E700BF306A40F004003062306A40F0ED
:101C200001003062FFF792FB054641F2883700BFA2
:101C3000306A800706D4FFF789FB401BB842F7D90A
:101C400037E000BFB8F1000F7FF4D5AEF06920F0A7
:101C50008050F061CFE600BF306820F48030306003
:101C6000306820F480203060FFF770FB054600BF2D
:101C7000306880037FF59DAEFFF768FB401B64284A
:101C80004FF00300F4D9CCE6306840F48020306097
:101C9000306840F480303060FFF758FB054600BFE5
:101CA000306880033FF585AEFFF750FB401B64288A
:101CB000F6D9032002B0BDE8F08100BF206AB0F57C
:101CC000803F05D17168A26821F400311143716031
:101CD0007168626A21F47411114308437060012035
:101CE0003866FFF733FB0446306880013FF598AE55
:101CF000FFF72CFB001B02284FF00300F4D990E6FD
:101D00007047000041F20000C4F20200016841F097
:101D1000010101600168890709D4016889075CBF76
:101D200001685FEA817102D401688907F2D5016810
:101D300041F0807101600168890109D4016889015D
:101D40005CBF01685FEA811102D401688901F2D5A4
:101D50004168022262F30101416000BF416801F065
:101D60000C0108290ED0416801F00C01082909D0A6
:101D7000416801F00C01082904D0416801F00C0110
:101D80000829EBD140F60040C4F201004FF4805125
:101D9000FFF7CEBA10B5044600680168C9071CBF3A
:101DA00041685FEAC17101D110BD00BF40684007C2
:101DB0000AD42046FFF7A4FF012060742068416820
:101DC00021F00101416010BD2046FFF79BFF206814
:101DD0006FF00401416004216174416821F0010148
:101DE000416010BD80B541F20000C4F202000168FC
:101DF00041F0010101600168890709D40168890780
:101E00005CBF01685FEA817102D401688907F2D57D
:101E1000016841F0807101600168890109D401689D
:101E200089015CBF01685FEA811102D40168890100
:101E3000F2D54168022262F301014160416801F07C
:101E40000C0108290ED0416801F00C01082909D0C5
:101E5000416801F00C01082904D0416801F00C012F
:101E60000829EBD100F0B4FC40F60000C4F20100F8
:101E70004FF40061FFF75CFA40F27410C2F2000008
:101E80008178013181708178082924BF0021817017
:101E90000121417080BD000010B504460068016852
:101EA000890744BF40685FEA807009D440F214405B
:101EB000C4F201004FF4003101600120607410BDD4
:101EC0002046FFF78FFF2068416821F00201416042
:101ED000ECE70000B0B5E8B10446007C01284FF003
:101EE000020008BFB0BD0121217460742068016840
:101EF00021F002010160FFF729FA054620684168D8
:101F0000890609D4FFF722FA401BB0F57A7FF5D98C
:101F100028E000BF0120B0BD416841F010014160E0
:101F2000416821F0020141604FF6FF710162416298
:101F300040F20041C4F201010A6822F400320A6052
:101F4000416821F010014160FFF700FA054600BF2B
:101F50002068406880060BD4FFF7F8F9401BB0F505
:101F60007A7FF5D901200421617400212174B0BD6C
:101F700000200121617400212174B0BD2DE9F047DA
:101F8000064600284FF0010000F0A5800C4600290D
:101F900000F0A18030684168490700F1D98091467E
:101FA0008269C169836948F6890583EA02073F04AB
:101FB0001CBFC1691A4689B241EA02414BF2C532DF
:101FC000C9F2A212A1FB0223DA0A4FF4616302FBF9
:101FD00013139FB26F437D0D65702D01A5EB57570D
:101FE000A3EB870345F28017C0F20107B942A37043
:101FF00036D344F20753CCF22E23A1FB03374AF623
:10200000AB23CAF6AA23A2FB03352B0903EB430338
:10201000A2EBC3022270026A406A4FEA174880B2FC
:1020200040EA0240451A98BF4FF0FF35421C4AF67D
:102030008062CFF6FE7208FB021A08BF0546FFF762
:1020400085F9074630684168890647D4FFF77EF96D
:10205000C01BB0F57A7FF5D90120BDE8F08700BF3D
:102060002270B9F1000F00F09F802178CD26A1F1F8
:102070000A03DFB27743FD0A05EB85056278A3EB1F
:1020800045030125A07805EBD727092988BF43EA36
:1020900007112170A2F10A01CBB27343DF0A07EBEB
:1020A0008707A1EB470105EBD323092A88BF41EA43
:1020B0000312A0F10A016270CAB27243D30A03EBA1
:1020C0008303A1EB430105EBD222092888BF41EA33
:1020D0000210A0700020BDE8F08700BF416841F009
:1020E000100141604FEA1A4181611FFA8AF1C16112
:1020F000416821F010014160FFF728F9074600BF51
:1021000030684068800609D4FFF720F9C01BB0F59D
:102110007A7FF5D90120BDE8F08700BF681C11D097
:102120005544FFF713F9074630684168890613D410
:10213000FFF70CF9C01BB0F57A7F4FF00100F3D91F
:10214000C9E700BF30464FF0FF3101F077FB18B30D
:102150000120BDE8F08700BF416841F010014160F7
:10216000290C0162A9B24162416821F0100141606D
:10217000FFF7ECF8074600BF3068406880060BD4D4
:10218000FFF7E4F8C01BB0F57A7F4FF0010088BF7D
:10219000BDE8F087F0E700BF3046414601F0F2F9B4
:1021A000B9F1000F7FF461AF0020BDE8F0870000B7
:1021B00070B5002866D00446407C20B90020207409
:1021C000204600F06FF8022060742068416821F01A
:1021D00008014160FFF7BAF8064600BF206845686D
:1021E000FFF7B4F8290705460ED4A81BB0F57A7F8F
:1021F000F4D9012504206074284670BDFFF7A6F8C5
:10220000401BB0F57A7FF4D8216848688006F5D580
:10221000486846F62C4240F0100048604868C4F216
:10222000000220F007004860A06818B1536823F04E
:1022300001035360136823F46073184310606068EF
:10224000421C06D101200125FFF77AF930B321683D
:102250000138C0F3034280B28A60C860486820F049
:1022600010004860FFF772F8054600BF206840681C
:10227000800609D4FFF76AF8401BB0F57A7FF5D9DC
:10228000B7E700BF012070BD40F201100025A4F89F
:102290000D000120E5736074284670BD0420607451
:1022A000284670BD80B582B0006842F60001C4F2D5
:1022B000000188421CBF02B080BDFFF70FF941F258
:1022C0001C00C4F202000168002241F000610160BC
:1022D0000068012100F000600190019840F23C404C
:1022E000C4F24220016003200021FFF7B1F803206F
:1022F000FFF79AF8292000210022FFF7A9F82920EA
:1023000002B0BDE88040FFF78FB8000070B582B022
:10231000044600208DF80600ADF804004FF00100DF
:102320009CB10D4689B1207C01284FF002000CD0F1
:10233000012116462174607401A920460022FFF78E
:102340001DFE00284FF0010002D002B070BD00BF9A
:102350009DF804009DF805204FF461619DF806305A
:102360004843C2EB021200EB82002A781844FEB107
:10237000130903EB830302F00F0202EB4302D2B214
:1023800051436A78AB78160906EB860602F00F0215
:1023900002EB4602D2B2C2EB021201EB82011A0931
:1023A00002EB820203F00F0303EB420207E000BFDF
:1023B0006B785143AA78C3EB031301EB8301D2B2CC
:1023C0008E1806F58031864238BF01F5A346FEF728
:1023D000BDFF054620684168890607D4FEF7B6FFB1
:1023E000401BB0F57A7FF5D91AE000BF416841F093
:1023F00010014160310C0162B1B24162416821F0CB
:1024000010014160FEF7A2FF054600BF2068416849
:10241000890609D4FEF79AFF401BB0F57A7FF5D9FB
:102420000120042116E000BF416821F00201416053
:10243000016841F00201016040F20040C4F2010075
:10244000016841F400310160816841F4003181602C
:102450000020012161740021217402B070BD0000D0
:10246000F0B581B0044600284FF0010018BF0029E4
:1024700002D101B0F0BD00BF207C01284FF0020066
:10248000F7D0012323746074CB78BAB1180900EB3C
:10249000800003F00F0202EB400348788A780709B6
:1024A00007EB870700F00F0000EB4707100900EB70
:1024B000800002F00F0202EB400001E04F788878C4
:1024C000022FDAB2E3736773A0730FD817237B432D
:1024D00048F63967C3F6E307A3FB0737C7F3470C92
:1024E00002F2CF7340F2D47E0CE000BF47F2D9165F
:1024F000FFB2C0F21406774302F5FA634FEAD74CF5
:1025000040F2D27EC0B210449D0841F27B47704435
:102510006F431D0940F63E2600EB93007543A0EB88
:10252000574000EB1540604482B242F293435A4355
:10253000A0EB12439BB25B0803EB12429208A2EBA2
:10254000C20210442268207308709169D0699369AF
:10255000002683EA01073F041CBFD069194680B2F8
:1025600040EA014045F69071C0F2010188421BD358
:1025700044F20751CCF22E21A0FB0112110C40F2C3
:10258000A3225143A0EBC117FEF7E0FE054600BFB2
:102590002068416889060DD4FEF7D8FE401BB0F5CF
:1025A0007A7FF5D920E000BF0121002061742674F4
:1025B00001B0F0BD416841F010014160390C81610A
:1025C000B9B2C161416821F010014160FEF7BEFE61
:1025D000054600BF2068416889060BD4FEF7B6FEA9
:1025E000401BB0F57A7FF5D901200421617426746F
:1025F00001B0F0BD016A406A80B240EA0140B842D1
:1026000030D200F5803000F5A347FEF79FFE054667
:1026100020684168890607D4FEF798FE401BB0F594
:102620007A7FF5D9E0E700BF416841F010014160D1
:10263000390C0162B9B24162416821F01001416078
:10264000FEF784FE05462068406880060AD4FEF73F
:102650007DFE411B0120B1F57A7F4FF00401F2D9D4
:10266000A4E700BF002001216174267401B0F0BD11
:1026700070B5044600284FF0010018BF002901D1B1
:1026800070BD00BF207C01284FF0020008BF70BD64
:10269000012323746074087802B3020902EB8202FA
:1026A00000F00F0000EB4200C0B24FF461625043F3
:1026B0004A788978130903EB830302F00F0202EBD7
:1026C0004302D2B2C2EB021200EB82000A0902EB13
:1026D000820201F00F0101EB420108E04FF4616258
:1026E00050434A788978C2EB021200EB8200C9B2EB
:1026F0004618FEF72BFE054620684168890607D478
:10270000FEF724FE401BB0F57A7FF5D91AE000BF32
:10271000416841F010014160310C8161B1B2C16189
:10272000416821F010014160FEF710FE054600BF30
:102730002068416889060BD4FEF708FE401BB0F5FF
:102740007A7FF5D90120042161740021217470BDC4
:10275000416821F005014160016A406A80B240EAA7
:102760000140B0422ED200F5803000F5A346FEF7BE
:10277000EDFD054620684168890607D4FEF7E6FDB1
:10278000401BB0F57A7FF5D9DCE700BF416841F026
:1027900010014160310C0162B1B24162416821F027
:1027A00010014160FEF7D2FD054600BF2068406879
:1027B000800607D4FEF7CAFD401BB0F57A7FF5D935
:1027C000C0E700BF0020012161740021217470BDA9
:1027D0004EF21000CEF20000016841F002010160EB
:1027E0007047000010B540F27414C2F20004207863
:1027F00001280DD0022818BF10BD40F60000C4F219
:1028000001004FF480510022BDE81040FEF798BD52
:10281000606818B160680138606010BD40F6000063
:10282000C4F201004FF48051FEF782FD6420606025
:1028300010BD0000411E0020B0EB116F1CBF012035
:1028400070474EF21002CEF2000251604EF6235154
:10285000CEF20001F0230B700721906011607047E9
:10286000FFF7C0BF4EF21000CEF20000016821F069
:102870000201016070470000B0B590F83C20012AC9
:1028800004BF0220B0BD01F108053CCDD1E900CE66
:1028900023F47C5322F470521A432EF4F0431A436B
:1028A0002CF4E0431A4324F4C0431A432A43C96971
:1028B00022F48042036811435964002180F83C10DF
:1028C0000846B0BD10B590F83C20012A4FF0020236
:1028D00033D080F83D200268D2F804E0D2F808C076
:1028E0000C682EF07003234340F2FF74C4F200041E
:1028F000A24253600ADCB2F1804F13D040F2004391
:10290000C4F200039A420DD011E000BF42F600432A
:10291000C4F201039A4205D040F60003C4F200035A
:102920009A4204D149682CF0800319439160012137
:10293000002280F83D1080F83C20104610BD0000B9
:102940002DE9F04390F83C30012B04BF0220BDE894
:10295000F0834FEAB202032A3CD8DFE802F00343D7
:1029600081BD00BF036842F600461D6A1A6AC4F2C0
:10297000010622F001021A621A465C6852F818CF6A
:10298000B3428E68D1F800E025F0020545EA06055D
:102990000CD1CE68D1E9057824F4407425F00C05FB
:1029A00026F004063C43354344EA08042CF0730740
:1029B00047EA0E075C609F614F6809695F631D62AB
:1029C0009F6947F008079F619F6927F004079F618F
:1029D000B2E000BF0121002280F83C200846BDE89B
:1029E000F08300BF036842F600461D6A1A6AC4F20B
:1029F000010622F010021A621A46D3F804C052F8F7
:102A0000184FB3428E68D1F800E025F0200545EA62
:102A1000061510D1CE68D1E9058725F0C0096FF001
:102A2000400505EA06152CF4406647EA080745EA22
:102A3000090546EA870C24F4E64444EA0E27C3F865
:102A400004C09F614F6809699F631D629F6947F4D5
:102A500000679F619F6927F480679F616BE000BFFB
:102A6000036842F600461D6A1A6AC4F2010622F49F
:102A700080721A621A46D3F804C052F81CEFB342AF
:102A80008E680C6825F4007545EA062511D1CE68DC
:102A9000D1E9058725F44069360240F2FF4526EA70
:102AA00005052CF4405647EA080745EA090546EAB9
:102AB000071C2EF073072743C3F804C0DF614F687B
:102AC0000969DF631D62DF6947F00807DF61DF69BD
:102AD00027F00407DF612FE0036842F60047D3F8D0
:102AE00020C01A6AC4F2010722F480521A621A4600
:102AF0005C6852F81C5FD1F800E08E68BB4204D1DC
:102B00004F6924F4804444EA87142CF4005747EAC0
:102B1000063725F4E64646EA0E265C60DE614E681E
:102B200009691E641F62DF6947F40067DF61DF69BE
:102B300027F48067DF6109021368194311600021DF
:102B4000002280F83C200846BDE8F083002804BF3E
:102B50000120704710B5044690F83D0028B90020C8
:102B600084F83C00204600F067F8022084F83D001D
:102B7000206840F2FF730268C4F2000342F6004C82
:102B80009842C4F2010C15DCB0F1804F1AD040F22B
:102B90000041C4F20001884214D0984218DCB0F120
:102BA000804F1DD040F20041C4F20001884217D08E
:102BB0001AE000BF604505D040F60001C4F20001F4
:102BC0008842EAD1A16822F070020A439842E6DD09
:102BD000604505D040F60001C4F20001884203D1EF
:102BE000216922F440720A43A36922F08001D4F8DB
:102BF00004E0E268194360450160C262C0F828E061
:102C000002D16169CCF8301001214161002084F8C3
:102C1000461084F83E1084F83F1084F8401084F881
:102C2000411084F8421084F8431084F8441084F86A
:102C3000451084F83D1010BD82B00068B0F1804F9F
:102C400014D042F60041C4F2010188421BD141F286
:102C50001800C4F20200016841F4006101600068DC
:102C600000F400600190019802B0704741F2180032
:102C7000C4F20200416841F001014160406800F087
:102C800001000090009802B07047000090F84110D9
:102C900090F842000843C0B270470000002804BF0B
:102CA0000120704710B5044690F8410028B9002073
:102CB00084F84000204600F063F8242084F84100A6
:102CC0002068D4E90212C36823F40053C360036987
:102CD00023F440531A430261D4E904231143C26828
:102CE000194341F20C639A431143C1604169A269DF
:102CF00021F44071114343F60002C4F201029042F4
:102D0000416103D0FEF7FAFD02E000BFFEF70AFEC4
:102D10006268192148439100B0FBF1F048F21F515D
:102D2000C5F2EB11A0FB01235A094FF69C73C0F6C4
:102D3000FF7302FB0300322303EB0010A0FB010131
:102D4000F02303EA5113206803EB0212C1F343118D
:102D500011448160016921F490410161416921F0D0
:102D60002A014161C16841F40051C1600020202165
:102D7000606484F8411084F84210606310BD000064
:102D800070B586B040F60044C4F201040068A4F5B2
:102D9000444100268842049602D006B070BD00BFB0
:102DA00041F21800C4F20200416802AD41F48021F2
:102DB0004160416801F4802101910199016841F06D
:102DC000080101600068294600F0080001900198A0
:102DD0004FF480600290022003900320059020466B
:102DE000FEF792F94FF40060CDE90206204629462D
:102DF0000496FEF789F906B070BD00002DE9F04396
:102E000081B0044690F84100202840F0B180884607
:102E100000294FF0010000F0D6801646002A00F08D
:102E2000D2800020606421201D4684F84100FEF716
:102E30008DFAA684E684A1680646B1F5805F03D1C9
:102E40002069002800F0988047464FF00008E18C88
:102E50002068002900F0968005F101090BE000BF11
:102E600047B317F8011B4160E18C0139E184E18C23
:102E7000002900F0878001680906F1D4B9F1000F3C
:102E80000AD0EDB1FEF762FA801BA84218D820687C
:102E900001680906F6D5E3E701680906E0D4016890
:102EA00009065CBF01685FEA0161D9D401680906BF
:102EB000F2D5D5E738F8021B00276FF35F21D2E780
:102EC000206850E8030F216820F4D07041E8030225
:102ED000BAB3206850E8030F216820F4D07041E8AD
:102EE000030272B3206850E8030F216820F4D07009
:102EF00041E803022AB3206850E8030F216820F458
:102F0000D07041E80302002ADAD11AE0206850E8C4
:102F1000050F216820F0010041E80502DAB12068C0
:102F200050E8050F216820F0010041E8050292B148
:102F3000206850E8050F216820F0010041E80502F3
:102F40004AB1206850E8050F216820F0010041E8EF
:102F50000502002ADAD1202084F8410084F84200DA
:102F6000002084F84000032001B0BDE8F08300BFDA
:102F7000022001B0BDE8F0830027E18C2068002921
:102F80007FF46AAF0168490619D4FDB1691C0DD1FF
:102F90000168490613D4016849065CBF01685FEA0D
:102FA00041610CD401684906F2D508E0FEF7CEF97C
:102FB000801BA8420AD8206800684006F6D5202069
:102FC00084F84100002001B0BDE8F083206850E89B
:102FD000030F216820F4D07041E80302002A3ED09C
:102FE000206850E8030F216820F4D07041E8030204
:102FF000AAB3206850E8030F216820F4D07041E89C
:10300000030262B3206850E8030F216820F4D070F7
:1030100041E80302002AD9D121E000BF206850E82E
:10302000050F216820F0010041E80502002A3FF465
:1030300092AF206850E8050F216820F0010041E8B8
:103040000502002A3FF487AF206850E8050F216889
:1030500020F0010041E80502002A3FF47CAF20681F
:1030600050E8050F216820F0010041E80502002A20
:10307000D4D170E7FEE70000B0B584B040F27C1018
:1030800042F20041C2F20000C4F2010100244FF4F8
:103090006022012504730475C261C0E900148460D4
:1030A0000561FDF7D7FE002818BFFDF707FE0420D5
:1030B000CDE9010540F27C10C2F2000001A90394A1
:1030C000FDF702FE002818BFFDF7F8FD04B0B0BD03
:1030D0002DE9F04385B04FF0000941F21800CDF81A
:1030E0001090C4F20200016840F6000541F01001A2
:1030F00001600168C4F2010501F01001009100991E
:103100000168012241F00401016001684FF00108EB
:1031100001F0040100910099016841F0080101608B
:1031200000680C2100F00800009000982846FEF787
:1031300007F905F580642046FF210122FEF700F91A
:1031400020464FF480510022FEF7FAF828464FF44B
:10315000C0510022FEF7F4F84FF4005001AECDE963
:10316000010905F500603146CDF80C90FDF7CCFF64
:10317000022728463146CDE90179CDF80C90FDF7BC
:10318000C3FF41F60C0001A981E80103284631463E
:103190000497FDF7B9FF41F2FF0001A981E801039F
:1031A000204631460497FDF7AFFF4FF40340CDE9C9
:1031B000010920463146CDF80C90FDF7A5FF05B07A
:1031C000BDE8F08380B582B040F20110C0F201008A
:1031D000009040F2AC1042F60001C2F20000C4F2CE
:1031E00000014FF0FF32C0E90012FEF7E1FF0028B6
:1031F00018BFFDF763FD0020ADF804008DF8060050
:1032000040F2AC10C2F2000001A90122FFF730FA2F
:10321000002818BFFDF752FD40F2AC10C2F20000CA
:1032200069460122FFF71CF9002818BFFDF746FD8B
:1032300002B080BD70B598B040F60004C4F201043D
:1032400040F2C010002104F51052C2F200003F23EA
:10325000632680251191CDE90F11CDE90D11CDE93E
:103260000B11CDE90911CDE90711CDE90511CDE922
:103270000311CDE90111C0E90023C0E90216C0E93C
:1032800004118561FFF762FC002818BFFDF716FDE9
:1032900040F2C010C2F2000010A9FFF713FB002893
:1032A00018BFFDF70BFD6020099063200A900020F5
:1032B000CDE90B00CDE90D000F9040F2C010C2F235
:1032C000000009A90022FFF73BFB002818BFFDF70B
:1032D000F5FC31200A9040F2C010C2F2000009A9AA
:1032E0000422FFF72DFB002818BFFDF7E7FC40F292
:1032F000C0154FF40050C2F200050026069001A947
:1033000028460596CDE90366CDE901660896FFF7E4
:10331000B3FA002818BFFDF7D1FC2868CDE916667E
:10332000B0F1804F159614961ED042F60041C4F2BB
:10333000010188423DD141F21800C4F20200016847
:1033400041F004010160006814A900F0040013902A
:1033500013984FF440701490022015901790204657
:10336000FDF7D2FE18B070BD41F21800C4F20200A1
:10337000016841F004010160006814A900F0040034
:10338000139013984FF4004014900220159017905A
:103390002046FDF7B9FE0420C4F2010001684FF693
:1033A000FF42CFF6FF02114041F0E06141F480712D
:1033B000016018B070BD0000B0B590B040F20820B8
:1033C0000021C2F200006325CDE90811CDE9061104
:1033D000CDE904114FF0804240F27F23C0E902158D
:1033E00001618021C0E900238161FFF7AFFB002864
:1033F00018BFFDF763FC40F20820C2F2000008A9E4
:10340000FFF760FA002818BFFDF758FC602040F273
:10341000082401903120C2F200040290002501A985
:103420002046002203950595FFF78AFA002818BF69
:10343000FDF744FC2068CDE90E55B0F1804F0D95A5
:103440000C9521D042F60041C4F20101884243D1DB
:1034500041F21800C4F20200016841F00401016069
:1034600000680CA900F004000B900B984FF440701A
:103470000C9002200D900F9040F60000C4F2010065
:10348000FDF742FE10B0B0BD41F21800C4F20200D8
:10349000016841F00401016000680CA900F004001B
:1034A0000B900B984FF400400C9002200D900F9061
:1034B00040F60000C4F20100FDF726FE0420C4F22D
:1034C000010001684FF6FF42CFF6FF02114041F0C4
:1034D000E06141F48071016010B0B0BD80B540F290
:1034E000502044F60001C2F20000C4F200010023A3
:1034F0004FF00C0C4FF4965280E80E00C0E90333F5
:10350000C0E905C3C361FFF7C9FB002808BF80BD40
:10351000BDE88040FDF7D2BBFEE70000FEE70000FB
:1035200020BF00BF7047000070470000B0B50568BD
:103530000446FDF70BFF281A0028C4BF0020B0BDC9
:10354000D4E900010D182560FDF700FF281A0028B6
:10355000C4BF0120B0BDFDF7F9FE616808442060DA
:103560000120B0BDB0B50C4605464160FDF7EEFE4A
:1035700020442860B0BD000040F2AC10C2F2000050
:10358000FEF78ABC2DE9F043427B837B90F80FC0A5
:10359000002900F0D380012901F0010E18D1BEF1FD
:1035A000000F00F0CB800C2A00F2C880012191406E
:1035B00041F2AA57394200F0B7801F2BC0F0B98002
:1035C0000C2A40F0B9800CF1010C0122B5E000BFDB
:1035D00045F6294945F628474DF20B7821F00101BF
:1035E000012441F2AA55CCF28F29C0F28F27C0F2F4
:1035F000A30802E001330239D1D00C2A16D804FA0C
:1036000002F62E4208D01E2B0BD90C2A0CD10CF13D
:10361000010C012209E000BF16F4256F1ED01D2BFE
:1036200002D8013302E000BF013201230C2AE2D8A4
:1036300004FA02F62E4209D01F2BDBD30C2A0AD142
:103640000CF1010C01220123D5E700BF16F4256F10
:103650000CD01E2BCED301320123CCE7022AE5D1B8
:103660001B2B0BD801330222E0E700BF022AC2D194
:103670001C2B0DD201330222BDE700BF1D2B0DD044
:103680001C2B0FD15FEA8C7216D000222FE000BFF6
:103690000AD01D2B0ED101230322ACE70123032204
:1036A000C4E700BF0222C1E75FEA8C720ED000229D
:1036B0002FE000BF02229EE71FFA8CF202FB09F204
:1036C0004FEAB203BB420BD9012210E01FFA8CF281
:1036D00002FB09F24FEAB203BB4213D9012218E000
:1036E0004FEA321242454FF0000238BF0122002A51
:1036F0004FF002024FF01D0308BF032208BF012351
:1037000094E700BF4FEA321242454FF0000238BF43
:103710000122002A4FF002024FF01D0308BF0322CE
:1037200008BF012367E700BF11F4256F48D01E2BA7
:1037300002D2013302E000BF01320123D1B20229DB
:1037400080F80FC0427383730ED81722514348F696
:103750003962C3F6E302A1FB0212C2F347010CF285
:10376000CF7240F2D47709E047F2D917C0F21407BC
:1037700079430CF5FA62C90C40F2D277DBB248F219
:103780001F566344C5F2EB163B44A2FB066503EBF0
:103790009202A2EB551202EBD512114444F6251207
:1037A000C2F29242A1FB0223CA1A03EB520293080F
:1037B000DB00A3EB9202891A0173BDE8F08300BF1E
:1037C000022ABBD11C2B03D201330222B6E700BF71
:1037D00004D01D2B08D101230322AFE75FEA8C71CF
:1037E00004D001211CE000BF0222A7E745F62942D0
:1037F0001FFA8CF1CCF28F224A4345F628434FEA58
:10380000B201C0F28F2399424FF0000108D84DF267
:103810000A734FEA3212C0F2A3039A4288BF012111
:1038200002221D23002918BF032218BF012385E7A8
:1038300040F2AC10C2F20000FEF7ACBA70B50D4613
:103840000446FDF783FD064620684168890607D4D3
:10385000FDF77CFD801BB0F57A7FF5D9012070BDA6
:10386000416841F010014160290C0162A9B2416236
:10387000416821F010014160FDF768FD054600BF79
:1038800020684068800607D4FDF760FD401BB0F556
:103890007A7FF5D9012070BD002070BD704700000F
:1038A00080B5FDF759FDBDE88040FEF7D9BF0000A7
:1038B00070470000FEE7000048F20401411A0020B2
:1038C00011F1030F38BF4FF0FF30704700207047F1
:1038D00048F20101411A0020032938BF0120704736
:1038E00010B518B3044600783A281FD143F6CE51DC
:1038F000C0F600012046FCF7ADFCD8B143F6D55127
:10390000C0F600012046FCF7A5FCB8B143F6C6514D
:10391000C0F600012046FCF79DFC01464FF0FF3049
:10392000002908BF48F2030010BD00BF4FF0FF3070
:1039300010BD00BF48F2010010BD00BF48F20200F8
:1039400010BD00004FF0FF3070470000B0B51446C6
:1039500048F2030290420BD048F20202904209D191
:1039600034B14D1E15F8010F00F0F2F9013CF9D108
:103970000020B0BD4FF0FF30B0BD00002DE9F04396
:1039800089B040F6000940F27418C4F20109C2F28D
:103990000008022700264FF40050002404AD88F8E8
:1039A000007008960490C1F2210409F500602946D0
:1039B000CDE90546FDF7A8FB282000210022FDF7F0
:1039C00047FD2820FDF730FDCDE904740127484666
:1039D000294606960797FDF797FB0720002100224E
:1039E000FDF736FD0720FDF71FFD40F2AC15C2F2D2
:1039F000000503A9284601228DF80E60ADF80C6081
:103A0000FEF736FE20B1EFF3108072B6FEE700BF7E
:103A10000A208DF8060001A928460022ADF80460AE
:103A20000296FEF773FC09F5806630464FF480512C
:103A30000022FDF785FC48464FF400610022FDF7A7
:103A40007FFC48464FF480510022FDF779FC484640
:103A500008210122FDF774FC484604210122FDF7EC
:103A60006FFC304601210122FDF76AFC304602213D
:103A70000122FDF765FC00F039F80FA0FCF7ACFB64
:103A80004FF47A70FDF7C6FAFEF7ECFE0120012133
:103A9000FDF72AFD0CA0FCF79FFB28460021FEF74E
:103AA00019FA2868016821F00101016088F80070A6
:103AB00009B0BDE8F08300BF42796521676F746F7C
:103AC0002073746F700D000048692157616B657534
:103AD000700D000040F29821C2F20001898840F484
:103AE0000040081AB0FA80F04009704770B540F203
:103AF0009825C2F20005A88840F6004400F4004072
:103B0000C4F20104A88004F580604FF40051FDF771
:103B100009FCB0FA80F04609A4F580600221FDF7A7
:103B200001FCB0FA80F0400946EA400620464FF416
:103B30008071FDF7F7FBB0FA80F0400946EA800695
:103B400020464FF40071FDF7EDFBB0FA80F040091C
:103B500046EAC0002880B8B369888842014612D07E
:103B6000A88805216FF3DF30A8800020287605F1B2
:103B70000800FFF7F7FC05F110004FF47A71FFF72A
:103B8000F1FC29886888084305F110046880204604
:103B9000FFF7CCFC00283FD0B5F90400002848BF4F
:103BA00070BD6888297E40F40040A880481CC1B2DE
:103BB000092928762AD3082220464FF47A712A76DA
:103BC000BDE87040FFF7CEBC05F108042046FFF7C2
:103BD000ADFCB5F904106A88B1F1FF3FD8BF0A46C1
:103BE000002808BF0A46002068806FF3DF3228767D
:103BF00005F110004FF47A71AA80FFF7B3FC20465C
:103C00000521BDE87040FFF7ADBC00BF2046002194
:103C1000BDE87040FFF7A6BC70BD000094B0FDF792
:103C2000A9FB062000240A900120CDE90F44CDE92C
:103C30000D44CDE90D0010200F904FF460100225C7
:103C400013900AA8CDE90B440494CDE91154FDF773
:103C50007DFE28B1EFF3108072B600BFFEE700BF13
:103C60000F20CDE905054FF48060CDE9080405A8D3
:103C700002210794FDF762FD20B1EFF3108072B6C8
:103C8000FEE700BF032001904FF4807002904FF4D4
:103C90000040039001A8FDF7CBFC28B1EFF31080A2
:103CA00072B600BFFEE700BF47F20004C4F2000492
:103CB000FFF70EFAFFF7E0F9FFF7BCFAFFF77CFB1E
:103CC000FFF70CFCFFF77EFAFFF710FF6068800734
:103CD0000AD41DA0FCF780FA40F27410C2F2000072
:103CE0000121017007E000BF206840F00C00206057
:103CF0000EA0FCF771FA04F51C404FF40041FDF7EB
:103D000011FB40F2AC14C2F2000400BFFFF7EEFE5C
:103D10000220FFF7DFFE0028F8D02068016841F09C
:103D200001010160FFF72AFEF0E700BF68656C6CD7
:103D30006F2177616B652075702066726F6D2073DF
:103D400074616E6462790D0068656C6C6F210D00A2
:103D500010B582B040F25024C2F20004019000BFBE
:103D60002046FEF793FF2028FAD140F25020C2F2FD
:103D7000000001A901224FF0FF334FF0FF34FFF79D
:103D80003DF80199002818BF2146084602B010BD31
:103D90008A68002A02DC0022FCF79FBA521E8A6061
:103DA0004A68C0B2531C4B6010707047000000009E
:103DB00000000000010203040607080900000000DB
:103DC0000102030401023A535444455252003A534B
:103DD0005444494E003A5354444F5554000203048E
:103DE00005060708090A0B0C0D0E0F101000000045
:103DF000103E000800000020180000002801000804
:103E0000283E000818000020A00800004401000817
:103E100000000000000000000000000001000000A1
:083E2000100000000024F40072
:04000005080000ED02
:00000001FF
