:020000040800F2
:10000000A00800209101000891370008E1300008A5
:100010008D3700084505000815380008000000006D
:10002000000000000000000000000000E5370008AC
:10003000550500080000000095370008E937000862
:10004000AB010008AB010008AB010008AB010008E0
:10005000AB010008AB010008AB0100086105000816
:10006000AB010008AB010008AB010008490500081E
:10007000AB010008AB010008AB010008AB010008B0
:10008000AB010008AB01000839050008AB0100080E
:10009000AB010008AB010008AB010008AB01000890
:1000A000AB010008AB010008AB010008AB01000880
:1000B000AB010008FD37000809380008AB01000853
:1000C000AB010008AB010008AB010008AB01000860
:1000D000AB010008AB010008AB010008AB01000850
:1000E00059050008AB010008AB01000800F002F858
:1000F00000F03FF80AA090E8000C82448344AAF183
:100100000107DA4501D100F034F8AFF2090EBAE880
:100110000F0013F0010F18BFFB1A43F0010318473B
:100120005C3D00007C3D0000103A24BF78C878C1D7
:10013000FAD8520724BF30C830C144BF04680C60ED
:10014000704700000023002400250026103A28BF35
:1001500078C1FBD8520728BF30C148BF0B60704739
:10016000642900F07180002070471FB51FBD10B5D5
:1001700010BD00F0A6F91146FFF7F7FF03F01CFCD5
:1001800000F0C4F903B4FFF7F2FF03BC00F0CCF9B0
:100190000948804709480047FEE7FEE7FEE7FEE71B
:1001A000FEE7FEE7FEE7FEE7FEE7FEE70448054957
:1001B000054A064B70470000F9370008ED000008BB
:1001C000A0020020A0080020A0040020A00400201D
:1001D0000FB41CB5074B06AA7B44694600900598EE
:1001E00000F057F90020694600F066F91CBC5DF884
:1001F00014FB0000DD02000070B50446856900684C
:10020000C10601D5302600E02026C00707D070BD0A
:10021000D4E9012130469047206A401C20626D1EBF
:10022000F6D570BD70B5044685690078C00707D162
:1002300070BDD4E9012120209047206A401C206233
:100240006D1EF6D570BD00002DE9F0410646002474
:1002500010687529314616A510D0AFF3008000282C
:1002600002DA404213A507E031688A0701D512A5DA
:1002700002E0490704D511A5012401E0AFF3008095
:1002800000210A2206F1240709E0B0FBF2FCB0FBD2
:10029000F2F302FB1C00303078541846491C002849
:1002A000F3D123462A463046BDE8F04100F092B82B
:1002B000000000002D0000002B00000020000000C6
:1002C0002DE9F0474FF0000A89460446C0F820A007
:1002D0002046E1688847002876D0252806D0D4E952
:1002E00001219047206A401C2062F1E7E168204626
:1002F00000258847C4F81CA006460027C4F818A0AB
:100300002A2E09D0304603F07CFD38B304EB870871
:10031000303EC8F8186019E059F8041B204604EB79
:1003200087029161E1688847012F064618D1E0698C
:10033000002820DA25F020051DE0D8F8180000EB91
:10034000800006EB40003038C8F818002046E1680D
:100350008847064603F055FD0028EED1012F0AD04C
:100360002E2E08D12046E16888477F1C0646022FC2
:1003700045F02005C4DBA069002803DA404245F0BF
:100380000105A061E80701D025F01005B6B1A6F17E
:100390004100192802D8203645F400654A46314606
:1003A000204625604D46FFF7DBFE58B1012806D0F8
:1003B000ED1D25F0070000F1080989E704E005F1CB
:1003C000040985E730468AE7206ABDE8F087704770
:1003D000704770472DE9F0470D469946924604460E
:1003E00000F124080168880604D5E06921F01001B5
:1003F000216000E00120A84201DD471B00E000274A
:10040000A1697A1902EB0900081AA0612078C006D8
:1004100002D42046FFF7F0FE002608E0D4E90121CF
:100420001AF806009047206A401C761C20624E4550
:10043000F4DB2078C0060AD52046FFF7DDFE06E093
:10044000D4E9012130209047206A401C2062381EE8
:10045000A7F10107F4DC07E0D4E9012118F8050051
:100460009047206A401C2062281EA5F10105F3DC9C
:100470002046FFF7D7FE2078000602D50220BDE80F
:10048000F0870120FBE7000001694A1C026108783F
:10049000704700B58FB0CDE90131002105910549C4
:1004A0007944CDE9031011466846FFF709FF0FB004
:1004B00000BD0000E5FFFFFF0A6802F8010B0A60BB
:1004C0007047754600F02CF8AE4605006946534665
:1004D00020F00700854618B020B5FFF767FEBDE89D
:1004E00020404FF000064FF000074FF000084FF09B
:1004F000000BAC46ACE8C009ACE8C009ACE8C009E8
:10050000ACE8C00921F007018D46704710B50446DC
:10051000AFF300802046BDE81040FFF733BE000077
:10052000004870471000002001491820ABBEFEE7CC
:10053000260002007047000040F28800C2F200006E
:1005400000F0E2B8FEE7000040F2B800C2F200009E
:1005500000F05CBA704700004FF4005000F0D6BBCA
:10056000022000F0D3BB0000EFF3108072B600BF92
:10057000FEE700007047000010B581B00022009235
:1005800090F82420012A03D10221084601B010BDB1
:100590004B680122062B80F8242017D8D0F800C021
:1005A00003EB83035A1F1F23DCF834E003FA02F441
:1005B0000B682EEA040403FA02F22243CCF834203A
:1005C000092B03EB430219D936E000BFD0F800C075
:1005D0000C2B03EB83021DD8233A1F23DCF830E0F9
:1005E00003FA02F40B682EEA040403FA02F222432F
:1005F000CCF83020092B03EB43021DD8DCF8103077
:10060000072489689440A34391401943CCF8101003
:10061000002130E0413A1F23DCF82CE003FA02F419
:100620000B682EEA040403FA02F22243CCF82C20D1
:10063000092B03EB4302E1D9DCF80CE01E3A072456
:10064000896894402EEA0404914023F0010221437A
:10065000102ACCF80C100DD142F20841C4F201016D
:10066000A1F1080294450DD0816A41F02001816218
:10067000012100E00021002280F82420084601B07A
:1006800010BD00BF0A68120230D40A68102B42F471
:1006900000020A602CD140F20801C2F20001096890
:1006A0004DF68362C4F21B32A1FB0212910C01EBE6
:1006B0008101490000910099E1B10099013900914F
:1006C0000099C9B10099013900910099B1B100991F
:1006D00001390091009999B100990139009100996F
:1006E00000294FF00001E8D1C5E700BF0021C2E7B3
:1006F0000021C0E70021BEE70021BCE70021BAE7E6
:100700000021B8E77047000070B50446006805682E
:100710004668B10627D515F0020124D0A16AC906A2
:1007200003D4A16A41F40071A162816801F46021DF
:10073000B1F5602F10D1217B71B9416821F0200102
:100740004160A06A20F48070A062A06AC00403D453
:10075000A06A40F00100A0622046FFF7D3FF2068A6
:100760006FF012010160310633D515F0040130D06D
:10077000A16AC90603D4A16A41F40051A16281684B
:1007800001F4E041B1F5E04F10D1416821F0800162
:100790004160A06A20F48050A062A06AC00511D414
:1007A000A06A40F00100A0620CE000BF416849056A
:1007B00008D4816801F46021B1F5602F02D1217B5A
:1007C0000029E2D02046FFF7D5FE20686FF00C012B
:1007D000016070060ED515F0010008BF70BDA06A5B
:1007E00040F48030A062204600F0B4F820686FF03A
:1007F0000101016070BD0000B0B5002800F0A880C4
:100800000446806A20B121688868C0070BD114E0D3
:100810000020E06284F82400204600F09DF8216862
:100820008868C00709D0886820F00100886000F05F
:100830009BFB21688A68D20726D1A06AC0063AD4F9
:10084000A06A41F2021290430230A062E069D4E94A
:10085000013240EA030C531EB3FA83F35D091346D9
:10086000B2F5807F18BF2B02207D257B01284CEA42
:10087000450030D135B3A56A45F02005A562E56A8B
:1008800045F00105E56226E0054602E08868C007FC
:10089000D3D000F069FB401B21680328F6D3886899
:1008A000C007F3D0A06A40F01000A062E06A40F0F8
:1008B0000100E062A06AA06A40F01000A06201207E
:1008C000B0BD00BFD4F818C04EF60005CFF6FF75D6
:1008D00005EB4C352B434D68B2F5807F25F4694517
:1008E00043EA05034B608B684FF2FD75CFF6E17567
:1008F00003EA050343EA00038B6001D0012A07D114
:1009000022690023CFF6F07303EB025201E000BF2F
:100910000022CB6A23F470031A43CA62896840F646
:10092000FE62CFF61F721140814207D10020E062C3
:10093000A16A012262F30101A162B0BDA06A40F088
:10094000100020F00200A062E06A40F00100E062C6
:100950000120B0BD7047000070B586B0044640F677
:100960000000C4F20100216800F5E0520026914227
:100970000596049602D006B070BD00BF41F2180182
:10098000C4F202010A6842F400720A600A6802F4C2
:1009900000720192019A0A6842F004020A60096832
:1009A00001F0040101910199F021029103210391C9
:1009B00002A900F0B7F940F2B8050820C2F200051C
:1009C000C4F202004FF48072C5E9000605F1100080
:1009D00080214FF480634FF0200C80E80C102846F3
:1009E000C5E90261EE6100F0E1F8002818BFFFF7E9
:1009F000BBFD12200021002225626C6200F036FB54
:100A0000122000F01FFB06B070BD000010B5D0E949
:100A10000FCE0168DCF800300A6823FA0EF35C0799
:100A20002AD512F0040427D00A68920603D40A6873
:100A300022F004020A602F22C4F20202914240F224
:100A40000402C4F202025BDD3023C4F202039942C5
:100A500072D04423C4F20203994273D05823C4F2E3
:100A60000203994240F07A804FF480231360C16AF8
:100A7000002940F098806FE09C0727D512F002040F
:100A800024D00A68920606D40A6822F00A020A6094
:100A9000012280F821202F22C4F20202914240F26A
:100AA0000402C4F202023BDD3023C4F20203994285
:100AB00060D04423C4F2020399425FD05823C4F2A9
:100AC0000203994260D14FF4003365E01B0743D520
:100AD00012F0080208BF10BD0A6822F00E020A6078
:100AE000012101FA0EF2CCF80420816380F8211074
:100AF000016B0022002980F8202054D12CE000BF97
:100B00000823C4F20203994222D01C23C4F2020338
:100B1000994223D140231360C16A002943D11BE0CD
:100B20000823C4F2020399422CD01C23C4F202030E
:100B3000994229D120232FE04FF480631360C16ACA
:100B400089BB09E04FF480431360C16A59BB03E0DD
:100B500004231360C16A31BB10BD00BF02F16804F9
:100B60004FF08063A14208BF4FF480031360C16A55
:100B7000C9B9F1E74FF400730EE000BF4FF4005322
:100B80000AE000BF022307E002F168044FF000739F
:100B9000A14208BF4FF400131360816A00220029AC
:100BA00080F82020D8D0BDE8104008470146002832
:100BB0004FF0010008BF70472DE9F043D1F800C0A5
:100BC0004FF6F873CBF6FD734CF6CD426344CCF68A
:100BD000CC42A3FB02236FF0030707EA930300272D
:100BE000C4F2020701F10C09C1E90F730223D1E934
:100BF000012E99E87002D1F81C8081F82130DCF8D0
:100C0000003043F6F077BB431A4342EA0E02224318
:100C10002A43324342EA090242EA0802CCF80020A1
:100C200000228A6381F8210081F820200020BDE89D
:100C3000F0437047B0B5044600F096F9054640F21F
:100C40000000C2F200000078611C18BF044400BF1D
:100C500000F08AF9401BA042FAD3B0BD80B5B0F5D0
:100C6000005F02D0022818BF80BD41F20000C4F22C
:100C70000200016841F0010101600168890709D49F
:100C8000016889075CBF01685FEA817102D401686D
:100C90008907F2D5016841F080710160016889011E
:100CA00009D4016889015CBF01685FEA811102D43F
:100CB00001688901F2D54168022262F301014160B5
:100CC000416801F00C0108290ED0416801F00C01C7
:100CD000082909D0416801F00C01082904D04168B5
:100CE00001F00C010829EBD102F0CEFD01F040F833
:100CF00040F60000C4F201004FF40061012200F050
:100D00002DF9BDE8804000F0EDB9000040F214413B
:100D1000C4F201010A68024214BF08607047FFF77D
:100D20009DBF00002DE9F04F82B00E68002E00F04C
:100D3000038141F20042C4F20102042340F2004E5A
:100D4000904208BF03234FF6FF7CC4F2010E0093CC
:100D500000240123C1F2100C4FF0000A4FF00009EB
:100D600049E000BF012704F00C030F229A402BEA50
:100D7000020207FA03F34FEA9A051A4346F82520C0
:100D8000D1F804B040F20C455FEACB22DEF808202F
:100D900054BF22EA080242EA0802C4F20105CEF872
:100DA00008202A685FEA8B2354BF22EA080242EA3D
:100DB00008022A605FEA8B33DEF8042054BF22EA7F
:100DC000080242EA08025FEACB33CEF80420DEF8DC
:100DD00000204FF0010354BF22EA080242EA080251
:100DE000CEF800200E680AF1010A36FA0AF204F180
:100DF000040400F0A18003FA0AF816EA080FF1D003
:100E00004E68664512DC122E56D8DFE806F0350B28
:100E10004549555555555555555555555555554DA6
:100E2000510000BFD1F80C9046E000BF4FF6FF72B2
:100E3000C1F2210296420FDC0022C1F21102964259
:100E40001AD00022C1F21202964215D00022C1F23D
:100E50002102964210D02FE00022C1F222029642D7
:100E60000AD00022C1F23102964205D00022C1F21E
:100E70003202964220D100BF8A684AB1012A14BFCB
:100E8000C0F81480C0F810804FF0080914E000BFCB
:100E90004FF0040910E000BFCA6802F108090BE036
:100EA0004FF0000908E000BFCA6802F1040903E03E
:100EB000CA6802F10C0900BF22460646BAF1080FC3
:100EC00024BF203A043637680F25954027EA0505E8
:100ED00009FA02F22A433260CA79D2067FF582AF5C
:100EE00041F21803C4F202031A68AEF57E7642F0AE
:100EF00001021A601A6802F001020192019A2AF0B6
:100F0000030256F802B040F60002C4F20102904219
:100F100010D040F60042C4F2010290423FF422AFEA
:100F200041F20002C4F20102009F904208BF022772
:100F300019E700BF002716E702B0BDE8F08F0000F8
:100F40008068084018BF012070470000C26802EAAC
:100F50000103914341EA034101617047002A08BF40
:100F6000090401617047000040F29820C2F20000BD
:100F70000068704740F2000040F29821C2F2000081
:100F8000C2F2000100780A6810440860704700004F
:100F900080B542F20000C4F20200016841F0100185
:100FA0000160032000F08EF80F2000F005F800F03B
:100FB00027F8002080BD000070B540F20006C2F2A4
:100FC000000640F208013278C2F200014FF47A7351
:100FD0000968B3FBF2F20446B1FBF2F1084600F0F7
:100FE000EDFE0F2C4FF0010508D838B94FF0FF3057
:100FF00021460022002500F039F87460284670BDB3
:1010000082B041F21800C4F202000168022241F0ED
:1010100001010160016801F001010191019941683C
:1010200041F080514160406800F08050009000988D
:101030000420C4F20100016862F31A61016002B089
:1010400070470000002848BF7047C1B200F01F0081
:10105000012202FA00F04EF20012CEF2000242EA41
:10106000D10121F0030108607047000010B54EF671
:101070000C5CCEF2000CDCF80030C3F3022E8EF0D4
:101080000704042C28BF0424BEF103034FF0FF3EE5
:101090000EFA04F438BF0023A14399400EFA03F37B
:1010A0009A43114300F00F0200F160430901043A32
:1010B00003F564436244002848BF02F10C03197031
:1010C00010BD00004EF60C51CEF200010A684FF63A
:1010D000FF031A4060F30A2242F0806040F0FD7086
:1010E000086070474EF61050CEF20000016821F003
:1010F00002010160704700002020C4F20E2001218F
:101100000160704780B5012818D0022836D0102819
:1011100032D141F20401C4F202010A6851F8040C10
:10112000C00129D5C2F383402DA3185CD2033DD45E
:1011300040F60012C0F23D02504343E041F2040089
:10114000C4F20200C16940F202320A40B2F5817F66
:1011500004BF4FF4004080BD01F44071B1F5407F01
:101160001CD0B1F5007F07D1006A49F640418007E5
:1011700001EAE07080BD00BF002080BD00F0B4F93E
:1011800041F20401C4F2020109680222C1F3813173
:1011900002EB4101B0FBF1F080BD00BF50F8040C40
:1011A0004FF22441800301EAE07080BD0A6810A379
:1011B000C2F340429A5C41F20023C0F27A03B3FBCF
:1011C000F2F250430968490248BF80BD4AF6AB219C
:1011D0004000CAF6AA21A0FB0101480880BD00BF5B
:1011E00002030405060708090A0B0C0D0E0F101068
:1011F000010200002DE9F04182B00446007841F27E
:101200001C06C007C4F202064AD0306810F08058AD
:1012100008D1306840F080503060306800F0805075
:101220000190019847F20007C4F200073868C00532
:1012300012D4386840F480703860FFF795FE054698
:101240003868C00508D4FFF78FFE401B6428F7D923
:10125000032002B0BDE8F081706810F4407012D035
:10126000616801F4407188420DD0706840F24042DC
:10127000C4F24222012320F4407113600023C0070E
:10128000136071602AD17068616820F4407008436F
:10129000B8F1000F706003D1306820F080503060EA
:1012A0002068810707D556F8181CA26821F4404130
:1012B000114346F8181CC00604D4002002B0BDE853
:1012C000F08100BF56F8180CE16820F48000084354
:1012D00046F8180C002002B0BDE8F081FFF744FE8C
:1012E000054641F2883700BF70688007CBD4FFF70E
:1012F0003BFE401BB8424FF00300F5D9EBE700007E
:101300002DE9F04381B0002800F0858042F200080A
:10131000C4F202080446D8F800000D4600F00700A9
:1013200088420CD2D8F8000020F007002843C8F803
:101330000000D8F8000000F00700A8426BD1206838
:1013400041F204098107C4F2020917D5410705D506
:10135000D9F8001041F4E061C9F80010010705D583
:10136000D9F8001041F46051C9F80010D9F8001004
:10137000A26821F0F0011143C9F80010C00741D163
:10138000D8F8000000F00700A8420CD9D8F80000F7
:1013900020F007002843C8F80000D8F8000000F04B
:1013A0000700A84237D12068410707D5D9F80010B7
:1013B000E26821F4E0611143C9F80010000708D584
:1013C000D9F80000216920F4605040EAC100C9F852
:1013D0000000D9F8002002F00C00082841F200209B
:1013E000C0F27A0050D143F64C63C2F38341C0F699
:1013F0000003595CD2033BD440F60010C0F23D001C
:10140000484341E0606802280AD001282AD159F8EF
:10141000041C890308D4012001B0BDE8F08300BF9B
:1014200059F8041C8901F6D5D9F8001021F0030100
:101430000843C9F80000FFF797FD064641F28837D8
:10144000D9F80000616800F00C00B0EB810F97D074
:10145000FFF78AFD801BB842F2D9032001B0BDE836
:10146000F08300BF59F8041C8907D4D5DCE700BF1E
:10147000D9F8002043F64A63C2F34042C0F60003A5
:101480009A5C4843B0FBF2F0D9F8001043F63262A0
:10149000C1F30311C0F60002515C40F2080220FAC9
:1014A00001F140F20400C2F200000068C2F2000242
:1014B0001160FFF781FD002001B0BDE8F08300005E
:1014C00040F2080041F20401C2F20000C4F202013D
:1014D0000068096843F64262C1F30221C0F60002C7
:1014E000515CC8407047000040F2080041F204011E
:1014F000C2F20000C4F202010068096843F64262C9
:10150000C1F3C221C0F60002515CC8407047000020
:101510002DE9F04182B0002868D00446007841F2FD
:101520000006C007C4F2020625D0706800F00C0067
:1015300004281BD0706800F00C00082802D17068E5
:10154000C00313D46068002800F06881B0F5A02FB4
:1015500000F07C81B0F5803F00F07C81306820F4A1
:1015600080303060306820F4802076E1306880037D
:1015700001D56068D0B32078800718D5706810F066
:101580000C0F07D0706800F00C0008286ED170684E
:10159000C0036BD43068800702D52069012825D1AB
:1015A0003068616920F0F80040EAC10030602078BE
:1015B00000071FD42078400732D4E56995B17068E0
:1015C00000F00C00082840F08F80012D0ED07068CC
:1015D000216A00F480328A4208D1616A00F47010F6
:1015E000884203D1002002B0BDE8F081012002B0A2
:1015F000BDE8F081A069002862D00020C4F242203A
:101600000121C0F88014FFF7AFFC0546706A80071F
:1016100000F18C80FFF7A8FC401B0228F6D92AE1D4
:10162000F06910F0805808D1F06940F08050F06106
:10163000F06900F080500090009847F20007C4F273
:1016400000073868C00529D4386840F480703860D5
:10165000FFF78AFC054600BF3868C0051ED4FFF7B7
:1016600083FC401B6428F7D905E100BF20690028EE
:1016700040F20000C4F2422000F0828001210160AB
:10168000FFF772FC054600BF306880073FF588AF62
:10169000FFF76AFC401B0228F6D9ECE0E06800285E
:1016A00000F08080052800F09780012800F09880E5
:1016B000306A20F001003062306A20F0040092E0CD
:1016C0000020C4F242200021C0F88014FFF74CFC37
:1016D000054600BF706A80077FF56CAFFFF744FCDA
:1016E000401B0228F6D9C6E00027C4F2422700209A
:1016F0003866FFF739FC022D05460BD130688001B2
:1017000040F1BE80FFF730FC401B02284FF0030081
:10171000F4D968E7306880017FF564AFFFF724FCF7
:10172000401B02284FF00300F4D95CE740F20800A8
:10173000C2F20000006844F6D351C1F26201A0FB7E
:101740000101480A019000BF00BF0198411E002816
:1017500001913FF42FAF00BF0198411E0028019175
:101760003FF428AF00BF0198411E002801913FF4CB
:1017700021AF00BF0198411E00280191E4D119E773
:1017800000210160FFF7F0FB054600BF30688007CD
:101790007FF50DAFFFF7E8FB401B02284FF0030079
:1017A000F4D920E7306A20F001003062306A20F07E
:1017B00004003062FFF7D8FB054641F2883700BFCE
:1017C000306A800720D5FFF7CFFB401BB8424FF0AF
:1017D0000300F5D907E700BF306A40F0040030622B
:1017E000306A40F001003062FFF7BEFB054641F26F
:1017F000883700BF306A800706D4FFF7B5FB401B6F
:10180000B842F7D937E000BFB8F1000F7FF4D5AE8A
:10181000F06920F08050F061CFE600BF306820F41E
:1018200080303060306820F480203060FFF79CFB0F
:10183000054600BF306880037FF59DAEFFF794FB3F
:10184000401B64284FF00300F4D9CCE6306840F424
:1018500080203060306840F480303060FFF784FBD7
:10186000054600BF306880033FF585AEFFF77CFB7F
:10187000401B6428F6D9032002B0BDE8F08100BF08
:10188000206AB0F5803F05D17168A26821F400316B
:10189000114371607168626A21F474111143084345
:1018A000706001203866FFF75FFB044630688001F6
:1018B0003FF598AEFFF758FB001B02284FF00300DE
:1018C000F4D990E670B5002866D00446407C20B973
:1018D00000202074204600F06FF802206074206819
:1018E000416821F008014160FFF73EFB064600BF5A
:1018F00020684568FFF738FB290705460ED4A81B6A
:10190000B0F57A7FF4D9012504206074284670BDB3
:10191000FFF72AFB401BB0F57A7FF4D821684868AE
:101920008006F5D5486846F62C4240F01000486025
:101930004868C4F2000220F007004860A06818B1AF
:10194000536823F001035360136823F46073184352
:1019500010606068421C06D101200125FFF7D2FB10
:1019600030B321680138C0F3034280B28A60C86096
:10197000486820F010004860FFF7F6FA054600BFFF
:1019800020684068800609D4FFF7EEFA401BB0F5E6
:101990007A7FF5D9B7E700BF012070BD40F2011092
:1019A0000025A4F80D000120E5736074284670BD81
:1019B00004206074284670BD80B582B0006842F68D
:1019C0000001C4F20001884202D002B080BD00BF15
:1019D000FFF792FB41F21C00C4F20200016841F0E3
:1019E000006101600068012100F000600190019831
:1019F00040F23C40C4F24220016002B080BD0000D1
:101A0000F0B581B0044600284FF0010018BF00294E
:101A100002D101B0F0BD00BF207C01284FF00200D0
:101A2000F7D0012323746074CB78BAB1180900EBA6
:101A3000800003F00F0202EB400348788A78070920
:101A400007EB870700F00F0000EB4707100900EBDA
:101A5000800002F00F0202EB400001E04F7888782E
:101A6000022FDAB2E3736773A0730FD817237B4397
:101A700048F63967C3F6E307A3FB0737C7F3470CFC
:101A800002F2CF7340F2D47E0CE000BF47F2D916C9
:101A9000FFB2C0F21406774302F5FA634FEAD74C5F
:101AA00040F2D27EC0B210449D0841F27B477044A0
:101AB0006F431D0940F63E2600EB93007543A0EBF3
:101AC000574000EB1540604482B242F293435A43C0
:101AD000A0EB12439BB25B0803EB12429208A2EB0D
:101AE000C20210442268207308709169D06993691A
:101AF000002683EA01073F041CBFD069194680B263
:101B000040EA014045F69071C0F2010188421BD3C2
:101B100044F20751CCF22E21A0FB0112110C40F22D
:101B2000A3225143A0EBC117FFF71EFA054600BFE1
:101B30002068416889060DD4FFF716FA401BB0F5FE
:101B40007A7FF5D920E000BF01210020617426745E
:101B500001B0F0BD416841F010014160390C816174
:101B6000B9B2C161416821F010014160FFF7FCF991
:101B7000054600BF2068416889060BD4FFF7F4F9D9
:101B8000401BB0F57A7FF5D90120042161742674D9
:101B900001B0F0BD016A406A80B240EA0140B8423B
:101BA00030D200F5803000F5A347FFF7DDF9054698
:101BB00020684168890607D4FFF7D6F9401BB0F5C5
:101BC0007A7FF5D9E0E700BF416841F0100141603C
:101BD000390C0162B9B24162416821F010014160E3
:101BE000FFF7C2F905462068406880060AD4FFF76F
:101BF000BBF9411B0120B1F57A7F4FF00401F2D906
:101C0000A4E700BF002001216174267401B0F0BD7B
:101C100070B5044600284FF0010018BF002901D11B
:101C200070BD00BF207C01284FF0020008BF70BDCE
:101C3000012323746074087802B3020902EB820264
:101C400000F00F0000EB4200C0B24FF4616250435D
:101C50004A788978130903EB830302F00F0202EB41
:101C60004302D2B2C2EB021200EB82000A0902EB7D
:101C7000820201F00F0101EB420108E04FF46162C2
:101C800050434A788978C2EB021200EB8200C9B255
:101C90004618FFF769F9054620684168890607D4A8
:101CA000FFF762F9401BB0F57A7FF5D91AE000BF63
:101CB000416841F010014160310C8161B1B2C161F4
:101CC000416821F010014160FFF74EF9054600BF61
:101CD0002068416889060BD4FFF746F9401BB0F530
:101CE0007A7FF5D90120042161740021217470BD2F
:101CF000416821F005014160016A406A80B240EA12
:101D00000140B0422ED200F5803000F5A346FFF727
:101D10002BF9054620684168890607D4FFF724F9A6
:101D2000401BB0F57A7FF5D9DCE700BF416841F090
:101D300010014160310C0162B1B24162416821F091
:101D400010014160FFF710F9054600BF20684068A8
:101D5000800607D4FFF708F9401BB0F57A7FF5D964
:101D6000C0E700BF0020012161740021217470BD13
:101D70004EF21000CEF20000016841F00201016055
:101D80007047000010B540F27804C2F200042078D9
:101D9000002818BF10BD606820B16068013860601D
:101DA00010BD00BF40F60040C4F201004FF4805166
:101DB000FFF7CCF86420606010BD0000411E0020D9
:101DC000B0EB116F1CBF012070474EF21002CEF233
:101DD000000251604EF62351CEF20001F0230B7049
:101DE0000721906011607047FFF7CCBF704700007B
:101DF00070470000B0B590F83C20012A04BF0220D3
:101E0000B0BD01F108053CCDD1E900CE23F47C53EF
:101E100022F470521A432EF4F0431A432CF4E04398
:101E20001A4324F4C0431A432A43C96922F4804266
:101E3000036811435964002180F83C100846B0BD86
:101E400010B590F83C20012A4FF0020233D080F800
:101E50003D200268D2F804E0D2F808C00C682EF0E9
:101E60007003234340F2FF74C4F20004A2425360A3
:101E70000ADCB2F1804F13D040F20043C4F20003F9
:101E80009A420DD011E000BF42F60043C4F20103B4
:101E90009A4205D040F60003C4F200039A4204D1EE
:101EA00049682CF08003194391600121002280F8D9
:101EB0003D1080F83C20104610BD0000002804BFF3
:101EC0000120704710B5044690F83D0028B9002065
:101ED00084F83C00204600F067F8022084F83D00BA
:101EE000206840F2FF730268C4F2000342F6004C1F
:101EF0009842C4F2010C15DCB0F1804F1AD040F2C8
:101F00000041C4F20001884214D0984218DCB0F1BC
:101F1000804F1DD040F20041C4F20001884217D02A
:101F20001AE000BF604505D040F60001C4F2000190
:101F30008842EAD1A16822F070020A439842E6DDA5
:101F4000604505D040F60001C4F20001884203D18B
:101F5000216922F440720A43A36922F08001D4F877
:101F600004E0E268194360450160C262C0F828E0FD
:101F700002D16169CCF8301001214161002084F860
:101F8000461084F83E1084F83F1084F8401084F81E
:101F9000411084F8421084F8431084F8441084F807
:101FA000451084F83D1010BD80B584B0006840F63F
:101FB0000001C4F20001884218D040F20041C4F28E
:101FC000000188422AD0B0F1804F0CD141F21C00B0
:101FD000C4F20200016841F001010160006800F0F4
:101FE00001000390039804B080BD00BF41F21C00C3
:101FF000C4F202000168002241F00401016000689F
:10200000002100F00400019001981E20FFF72EF837
:102010001E2004B0BDE88040FFF714B841F21C0058
:10202000C4F202000168002241F002010160006870
:10203000002100F00200029002981D20FFF716F820
:102040001D2004B0BDE88040FEF7FCBF90F83D10B5
:1020500001291CBF01207047022180F83D10006853
:1020600040F2FF72C168C4F20002904241F00101E7
:10207000C16009DCB0F1804F12D040F20041C4F2DF
:10208000000188420CD012E042F60041C4F2010186
:10209000884205D040F60001C4F20001884206D112
:1020A000816801F00701062904BF0020704701681C
:1020B00041F00101016000207047000080B590F8F8
:1020C0003C20012A4FF0020200F0C28080F83D203F
:1020D000D0F800C04FF67772DCF8083023EA02022D
:1020E000CCF808200B684F2B28DC1F2B44DD202B5D
:1020F00045D0302B43D0402B40F0AC80D1F804E0E9
:10210000C968DCF82030DCF8202022F00102CCF88D
:102110002020DCF8182022F0F00242EA011123F01E
:102120000A0242EA0E02CCF81810CCF82020DCF8A3
:10213000081041F0470121F0300180E06F2B27DDCE
:10214000B3F5005F48D0B3F5805F7AD0702B40F0D4
:102150008180D1E901E3C968DCF8082043EA0E0375
:1021600022F47F4243EA01211143CCF80810DCF845
:10217000081041F0770162E00BB1102B6AD1DCF856
:10218000081021F07001194341F0070157E000BF2A
:10219000502B35D0602B5DD1D1F804E0C968DCF854
:1021A0002030DCF8202022F01002CCF82020DCF8CF
:1021B000182022F4704242EA013123F0A00242EAE0
:1021C0000E12CCF81810CCF82020DCF8081041F0E2
:1021D000670121F0100132E0D1E901E3C968DCF8C0
:1021E000082043EA0E0322F47F4243EA012111430F
:1021F000CCF80810DCF8081041F480411FE000BF63
:10220000D1F804E0C968DCF82030DCF8202022F0A6
:102210000102CCF82020DCF8182022F0F00242EA7B
:10222000011123F00A0242EA0E02CCF81810CCF891
:102230002020DCF8081041F0570121F02001CCF8F3
:1022400008100022012180F83D10002180F83C1088
:10225000104680BD0122F5E790F83C20012A4FF09E
:10226000020209D080F83D2002685161012100225C
:1022700080F83D1080F83C20104670477047000001
:1022800010B5016804460869800744BFC8685FEA62
:10229000807039D40869400744BFC8685FEA40705D
:1022A0003ED40869000744BFC8685FEA007045D49F
:1022B0000869C00644BFC8685FEAC0604AD40869BC
:1022C000C0071CBFC8685FEAC07051D1086900062A
:1022D00044BFC8685FEA006052D40869400644BF42
:1022E000C8685FEA406053D40869800646BFC86882
:1022F0005FEA806010BD6FF0200220460A61BDE8F1
:102300001040FFF775BD00BF6FF0020008610120AB
:1023100020778869800743D02046FFF7AFFF45E06C
:102320006FF00400086102202077886910F4407F74
:1023300040D02046FFF7A2FF42E000BF6FF0080048
:10234000086104202077C86980073DD02046FFF748
:1023500095FF3FE06FF01000086108202077C86902
:1023600010F4407F3AD02046FFF788FF3CE000BFE2
:102370006FF001000861204600F0ACFD2168A5E780
:102380006FF0800008612046FFF730FD2168A4E768
:102390006FF040000861204600F0F0FD2168A3E7DF
:1023A000204600F0F7F8204600F0C8FC2168002025
:1023B00020776FE7204600F0EDF8204600F0BEFCE5
:1023C0002168002020776CE7204600F0E3F82046E3
:1023D00000F0B4FC21680020207769E7204600F077
:1023E000D9F8204600F0AAFC21680020207766E793
:1023F0002DE9F04190F83C30012B04BF0220BDE8EC
:10240000F0814FEAB202032A30D8DFE802F0033746
:10241000679700BF026842F60045146A136AC4F267
:10242000010523F0010313625368D2F818C0AA42D1
:102430008D68D1F800E024F0020444EA05040BD1D1
:10244000CD68D1E9056723F4407324F00C0425F02E
:10245000040533432C433B432CF0730747EA0E0734
:10246000536097614968516314628BE00121002237
:1024700080F83C200846BDE8F08100BF026842F6C3
:102480000045146A136AC4F2010523F010031362B5
:102490005368D2F818C0AA428D68D1F800E024F041
:1024A000200444EA05140FD1CD68D1E905876FF007
:1024B000400624F0C00406EA05152C4323F44063CB
:1024C00048EA070543EA85032CF4E64747EA0E2766
:1024D0005360976149689163146253E0026842F661
:1024E0000045146A136AC4F2010523F48073136271
:1024F0005368D2F81CC0AA428D68D1F800E024F4D9
:10250000007444EA05240FD1CD68D1E905872D0276
:1025100040F2FF4624F44064B5432C4323F4405377
:1025200048EA070543EA05132CF0730747EA0E074C
:102530005360D7614968D163146223E0026842F6B0
:102540000046D2F820C0136AC4F2010623F4805377
:1025500013625368D4690D68D1F808E0B24204D11F
:102560004E6923F4804343EA861324F4E64646EAA0
:1025700005265360D6612CF40057496847EA0E33AC
:10258000116413620021002280F83C200846BDE857
:10259000F081000080B5006840F20041C4F2000103
:1025A000884218BF80BD40F20C00C2F200000178E2
:1025B000B1B30078002800F0A38040F27000C2F2AE
:1025C00000004168028831F812304FF6FE729342E3
:1025D00004BF002303800388013231F8133092B224
:1025E00093423BD0028831F81220002A64D002883E
:1025F00044F2402331F81220C0F20F03B3FBF2F291
:1026000040F2581CC2F2000CA2F1010EDCF80020CE
:102610001FFA8EF3D362CCF80C304FEA5E0357E01A
:1026200040F27000C2F20000018819B1018802393D
:1026300001E000BF418801804168028831F8123012
:102640004FF6FE72934202D14388023B0380038817
:10265000013231F8133092B293420FD140F2581048
:10266000C2F20000002100F0DBFB40F2A010C2F239
:1026700000000021BDE8804000F06AB9028831F80E
:102680001220002A3ED0028844F2402331F8122062
:10269000C0F20F03B3FBF2F240F2581CC2F2000C7E
:1026A000A2F1010EDCF800201FFA8EF3D362CCF801
:1026B0000C304FEA5E0331E040F2581CC2F2000CCD
:1026C000DCF800204FF6FF73D362CCF80C30002307
:1026D000536300235362028801EB420149884FF0A3
:1026E000FF3201EB810102EB410140F2A012C2F284
:1026F0000002126889B2516353620188023101807D
:1027000080BD00BF40F2581CC2F2000CDCF8002073
:102710004FF6FF73D362CCF80C30002353630023D1
:102720005362008801EB400040884FF0FF3100EB1E
:10273000800001EB400040F2A011C2F200010968E4
:1027400080B248634B6280BD002804BF01207047FF
:1027500010B5044690F83D0028B9002084F83C00EC
:10276000204600F067F8022084F83D00206840F21F
:10277000FF730268C4F2000342F6004C9842C4F2B0
:10278000010C15DCB0F1804F1AD040F20041C4F2C8
:102790000001884214D0984218DCB0F1804F1DD05F
:1027A00040F20041C4F20001884217D01AE000BF95
:1027B000604505D040F60001C4F200018842EAD12C
:1027C000A16822F070020A439842E6DD604505D018
:1027D00040F60001C4F20001884203D1216922F4CD
:1027E00040720A43A36922F08001D4F804E0E26851
:1027F000194360450160C262C0F828E002D16169F6
:10280000CCF8301001214161002084F8461084F892
:102810003E1084F83F1084F8401084F8411084F88A
:10282000421084F8431084F8441084F8451084F86A
:102830003D1010BD7047000041B1082916D0042991
:1028400014BF00F1410200F13F0211E090F83E2078
:10285000012A1CBF01207047022280F83E204FEA67
:10286000B103032B4FF0010216D81FE000F1400224
:102870001278012A1CBF01207047022208290DD0BE
:10288000042914BF80F8412080F83F204FEAB103AB
:10289000032B4FF0010209D91046704780F8402001
:1028A0004FEAB103032B4FF00102F5D843F65C6CFD
:1028B0000068C0F6000C5CF823C0C36801F01F017B
:1028C00043EA0C03C360036A8A4023EA02010162FF
:1028D000036A42F64441C4F201011A43A1F14403E0
:1028E0009842026210D040F2FF71C4F200018842A7
:1028F00014DCB0F1804F1DD040F20041C4F2000161
:10290000884217D01DE000BF0A6842F400420A6006
:1029100040F2FF71C4F200018842EADD42F6004154
:10292000C4F20101884205D040F60001C4F2000162
:10293000884206D1816801F00701062904BF002002
:1029400070470168002241F00101016010467047A4
:1029500010B54FEAB102032A4FF0010E55D843F6E5
:102960006C6C0368C0F6000C5CF82220DC6842F650
:10297000444C2240DA6001F01F021C6A0EFA02F297
:1029800024EA0202C4F2010C1A621A6AACF144048D
:10299000A3421A6210D15CF8242C41F21114224295
:1029A0000AD11A6A40F24444224205D1DCF80020E0
:1029B00022F40042CCF800201A6A41F2111422429B
:1029C00008D11A6A40F24444224203D11A6822F024
:1029D00001021A60082907D004290BD081B901210E
:1029E00080F83E10002010BD012180F8401000202A
:1029F00010BD00BF012180F83F10002010BD00BFB6
:102A000001214FF0000E80F84110704610BD00000B
:102A10002DE9F04390F83C30012B04BF0220BDE8C3
:102A2000F0834FEAB202032A3CD8DFE802F0034306
:102A300081BD00BF036842F600461D6A1A6AC4F2EF
:102A4000010622F001021A621A465C6852F818CF99
:102A5000B3428E68D1F800E025F0020545EA06058C
:102A60000CD1CE68D1E9057824F4407425F00C052A
:102A700026F004063C43354344EA08042CF073076F
:102A800047EA0E075C609F614F6809695F631D62DA
:102A90009F6947F008079F619F6927F004079F61BE
:102AA000B2E000BF0121002280F83C200846BDE8CA
:102AB000F08300BF036842F600461D6A1A6AC4F23A
:102AC000010622F010021A621A46D3F804C052F826
:102AD000184FB3428E68D1F800E025F0200545EA92
:102AE000061510D1CE68D1E9058725F0C0096FF031
:102AF000400505EA06152CF4406647EA080745EA52
:102B0000090546EA870C24F4E64444EA0E27C3F894
:102B100004C09F614F6809699F631D629F6947F404
:102B200000679F619F6927F480679F616BE000BF2A
:102B3000036842F600461D6A1A6AC4F2010622F4CE
:102B400080721A621A46D3F804C052F81CEFB342DE
:102B50008E680C6825F4007545EA062511D1CE680B
:102B6000D1E9058725F44069360240F2FF4526EA9F
:102B700005052CF4405647EA080745EA090546EAE8
:102B8000071C2EF073072743C3F804C0DF614F68AA
:102B90000969DF631D62DF6947F00807DF61DF69EC
:102BA00027F00407DF612FE0036842F60047D3F8FF
:102BB00020C01A6AC4F2010722F480521A621A462F
:102BC0005C6852F81C5FD1F800E08E68BB4204D10B
:102BD0004F6924F4804444EA87142CF4005747EAF0
:102BE000063725F4E64646EA0E265C60DE614E684E
:102BF00009691E641F62DF6947F40067DF61DF69EE
:102C000027F48067DF61090213681943116000210E
:102C1000002280F83C200846BDE8F083002804BF6D
:102C20000120704710B5044690F83D0028B90020F7
:102C300084F83C00204600F067F8022084F83D004C
:102C4000206840F2FF730268C4F2000342F6004CB1
:102C50009842C4F2010C15DCB0F1804F1AD040F25A
:102C60000041C4F20001884214D0984218DCB0F14F
:102C7000804F1DD040F20041C4F20001884217D0BD
:102C80001AE000BF604505D040F60001C4F2000123
:102C90008842EAD1A16822F070020A439842E6DD38
:102CA000604505D040F60001C4F20001884203D11E
:102CB000216922F440720A43A36922F08001D4F80A
:102CC00004E0E268194360450160C262C0F828E090
:102CD00002D16169CCF8301001214161002084F8F3
:102CE000461084F83E1084F83F1084F8401084F8B1
:102CF000411084F8421084F8431084F8441084F89A
:102D0000451084F83D1010BD81B0006842F60041C6
:102D1000C4F20101884201D001B0704741F21800AD
:102D2000C4F20200016841F400610160006800F42F
:102D300000600090009801B07047000070470000EC
:102D400041B1082910D0042914BF00F1410200F15B
:102D50003F020BE090F83E20012A1CBF0120704783
:102D6000022280F83E2013E000F140021278012A8E
:102D70001CBF012070470222082907D0042914BF74
:102D800080F8412080F83F2002E000BF80F840201A
:102D9000006801F01F010122036A8A4023EA020150
:102DA0000162036A42F64441C4F201011A43A1F1EF
:102DB0004403984202620FD040F2FF71C4F2000156
:102DC000884213DCB0F1804F1CD040F20041C4F2C5
:102DD0000001884216D01CE00A6842F400420A60F2
:102DE00040F2FF71C4F200018842EBDD42F600417F
:102DF000C4F20101884205D040F60001C4F200018E
:102E0000884206D1816801F00701062904BF00202D
:102E10007047016841F00101016000207047000027
:102E200080B5026801F01F0C012303FA0CFE136A3F
:102E300042F6444C23EA0E03C4F2010C1362D2F8AA
:102E400020E0ACF144039A42C2F820E013D15CF8D0
:102E500024EC41F211131EEA030F0CD1D2F820E04A
:102E600040F244431EEA030F05D1DCF8003023F49E
:102E70000043CCF80030D2F820C041F211131CEA14
:102E8000030F06D1D2F820C040F244431CEA030FDE
:102E900014D0082918D004290AD000294FF00101C4
:102EA00014BF80F8411080F83E10002080BD00BFA4
:102EB000012180F83F10002080BD00BF136823F07F
:102EC000010313600829E6D1012180F84010002099
:102ED00080BD0000F0B581B040F60004C4F20104EA
:102EE0000068A4F58031884202D001B0F0BD00BF77
:102EF00040F28005C2F200052878F0B1A8880130C0
:102F0000A8806978A88839B1B0F5FA7F82BF00201F
:102F1000A880687011E000BFB0F57A7F0DD900205D
:102F2000A88001206870204608210122FEF716F8CB
:102F3000204604210122FEF711F8287810B16878A4
:102F40000028D2D1AF780821B7FA87F04609204689
:102F50000122002F08BF0421FEF700F804212046BB
:102F60000022002F08BF0821FDF7F8FFA8782844A9
:102F7000807900F0B5FEAE7001B0F0BD7047000082
:102F8000002804BF0120704710B5044690F84100A6
:102F900028B9002084F84000204600F063F824207F
:102FA00084F841002068D4E90212C36823F4005376
:102FB000C360036923F440531A430261D4E9042334
:102FC0001143C268194341F20C639A431143C16033
:102FD0004169A26921F44071114343F60002C4F231
:102FE00001029042416103D0FEF76AFA02E000BF9D
:102FF000FEF77AFA6268192148439100B0FBF1F0BC
:1030000048F21F51C5F2EB11A0FB01235A094FF6FC
:103010009C73C0F6FF7302FB0300322303EB001026
:10302000A0FB0101F02303EA5113206803EB021215
:10303000C1F3431111448160016921F490410161A0
:10304000416921F02A014161C16841F40051C16028
:1030500000202021606484F8411084F842106063ED
:1030600010BD000070B586B040F60044C4F2010403
:103070000068A4F5444100268842049602D006B0B8
:1030800070BD00BF41F21800C4F20200416802ADF9
:1030900041F480214160416801F48021019101994E
:1030A000016841F0080101600068294600F008004D
:1030B000019001984FF48060029002200390032059
:1030C00005902046FDF72EFE4FF40060CDE9020684
:1030D000204629460496FDF725FE06B070BD000087
:1030E000FEE70000B0B584B040F28800C2F20000F4
:1030F00042F200414FF46025C4F201014FF48072A6
:1031000001240023C561042504730375C0E900137D
:1031100082600561FDF770FB002818BFFDF724FAF7
:103120000720039040F28800C2F2000001A9CDE917
:103130000154FDF721FA002818BFFDF715FA052004
:1031400001900220029040F28800C2F2000001A922
:10315000FDF712FA002818BFFDF706FA06200190C5
:103160000320029040F28800C2F2000001A9FDF79E
:1031700003FA002818BFFDF7F7F907200190042093
:10318000029040F28800C2F2000001A9FDF7F4F9B4
:10319000002818BFFDF7E8F904B0B0BD80B582B0D3
:1031A00041F21400C4F202000168002241F0010162
:1031B00001600068002100F00100019001980B20DF
:1031C000FDF754FF0B2002B0BDE88040FDF73ABF89
:1031D0002DE9F04385B04FF0000941F21800CDF819
:1031E0001090C4F20200016840F6000541F01001A1
:1031F00001600168C4F2010501F01001009100991D
:103200000168012241F00401016001684FF00108EA
:1032100001F0040100910099016841F0080101608A
:1032200000680C2100F00800009000982846FDF787
:1032300095FE05F580642046FF210122FDF78EFEF4
:1032400020464FF480510022FDF788FE28464FF4B7
:10325000C0510022FDF782FE4FF4005001AECDE9CF
:10326000010905F500603146CDF80C90FDF75AFDD7
:10327000022728463146CDE90179CDF80C90FDF7BB
:1032800051FD41F60C0001A981E8010328463146B1
:103290000497FDF747FD41F2FF0001A981E8010312
:1032A000204631460497FDF73DFD4FF40340CDE93C
:1032B000010920463146CDF80C90FDF733FD05B0ED
:1032C000BDE8F08380B582B040F20110C0F2010089
:1032D000009040F2FC0042F60001C2F20000C4F28D
:1032E00000014FF0FF32C0E90012FEF7EBFA0028B0
:1032F00018BFFDF739F90020ADF804008DF806007D
:1033000040F2FC00C2F2000001A90122FEF780FC9D
:10331000002818BFFDF728F940F2FC00C2F20000B7
:1033200069460122FEF76CFB002818BFFDF71CF967
:1033300002B080BD70B598B040F60004C4F201043C
:1033400040F21010002104F51052C2F200003F2399
:10335000632680251191CDE90F11CDE90D11CDE93D
:103360000B11CDE90911CDE90711CDE90511CDE921
:103370000311CDE90111C0E90023C0E90216C0E93B
:1033800004118561FFF74AFC002818BFFDF7ECF82F
:1033900040F21010C2F2000010A9FEF751FD002803
:1033A00018BFFDF7E1F86020099063200A90002023
:1033B000CDE90B00CDE90D000F9040F21010C2F2E4
:1033C000000009A90022FFF723FB002818BFFDF722
:1033D000CBF831200A9040F21010C2F2000009A987
:1033E0000422FFF715FB002818BFFDF7BDF840F2D7
:1033F00010154FF40050C2F200050026069001A9F6
:1034000028460596CDE90366CDE901660896FEF7E4
:10341000F1FC002818BFFDF7A7F82868CDE916666B
:10342000B0F1804F159614961ED042F60041C4F2BA
:10343000010188423DD141F21800C4F20200016846
:1034400041F004010160006814A900F00400139029
:1034500013984FF440701490022015901790204656
:10346000FDF760FC18B070BD41F21800C4F2020014
:10347000016841F004010160006814A900F0040033
:10348000139013984FF40040149002201590179059
:103490002046FDF747FC0420C4F2010001684FF606
:1034A000FF42CFF6FF02114041F0E06141F480712C
:1034B000016018B070BD000010B594B040F2581013
:1034C0000021C2F200004FF080423F2340F2E73477
:1034D0000E91CDE90C110991CDE90711CDE9051146
:1034E000CDE90311CDE90111C0E90023C0E90214BF
:1034F00001618161FEF7E2FC002818BFFDF734F896
:103500004FF480500B9040F25810C2F200000BA90B
:10351000FEF7D4FD002818BFFDF726F840F258103A
:10352000C2F20000FFF77AFB002818BFFDF71CF875
:1035300040F258100024C2F2000008A9CDE9084466
:10354000FEF77EFC002818BFFDF70EF86020CDE9DD
:1035500001040394059440F25814C2F2000401A936
:1035600020460022FFF754FA002818BFFCF7FCFFA2
:1035700020680021B0F1804FCDE912111191109116
:1035800022D042F60041C4F20101884244D141F206
:103590001800C4F20200016841F0040101600068F3
:1035A00010A900F004000F900F984FF44070109095
:1035B00002201190139040F60000C4F20100FDF7C4
:1035C000B1FB14B010BD00BF41F21800C4F20200FC
:1035D000016841F004010160006810A900F00400D6
:1035E0000F900F984FF4004010900220119013900C
:1035F00040F60000C4F20100FDF794FB0420C4F281
:10360000010001684FF6FF42CFF6FF02114041F082
:10361000E06141F48071016014B010BD10B58EB04E
:1036200040F2A01040F200420021C2F20000C4F2B9
:10363000000241F6FF034FF6FF740D91CDE90B1127
:103640000991CDE90711CDE90511CDE90311CDE9C6
:103650000111C0E90023C0E9021401618161FEF794
:103660002DFC002818BFFCF77FFF4FF480500A9014
:1036700040F2A010C2F200000AA9FEF71FFD0028C8
:1036800018BFFCF771FF40F2A010C2F20000FFF774
:103690005BF8002818BFFCF767FF40F2A010002479
:1036A000C2F2000008A9CDE90844FEF7C9FB0028D2
:1036B00018BFFCF759FF40F2A010C2F2000001A9A8
:1036C0000022CDE9014403940594FEF791FE002801
:1036D00018BFFCF749FF0EB010BD000080B586B0E2
:1036E00040F2E81040F600020021C2F20000C4F2ED
:1036F00000023F2340F2E73C0591CDE90311CDE9FB
:103700000011C0E90023C0E9021C01618161FEF7DC
:10371000D5FB002818BFFCF727FF4FF4805002901C
:1037200040F2E810C2F2000002A9FEF7C7FC002830
:1037300018BFFCF719FF40F2E810C2F2000069461A
:10374000FEF77EFB002818BFFCF70EFF06B080BD19
:1037500080B540F2302044F60001C2F20000C4F20D
:10376000000100234FF00C0C4FF4965280E80E003D
:10377000C0E90333C0E905C3C361FFF701FC0028BA
:1037800008BF80BDBDE88040FCF7EEBEFEE700004C
:10379000FEE7000070470000B0B505680446FDF77D
:1037A000E3FB281A0028C4BF0020B0BDD4E9000103
:1037B0000D182560FDF7D8FB281A0028C4BF01208A
:1037C000B0BDFDF7D1FB6168084420600120B0BDA9
:1037D000B0B50C4605464160FDF7C6FB20442860A5
:1037E000B0BD00007047000080B5FDF7C3FBBDE829
:1037F0008040FEF7F9BA00007047000040F2A010C8
:10380000C2F20000FEF73CBD40F2E810C2F2000038
:10381000FEF736BDFEE7000040F28001C2F2000173
:1038200000228A7008704A708A80704710B540F292
:103830008000C2F20000002140F600048170017097
:10384000417081802021C4F2010481718171204680
:1038500004210122FDF782FB204608210122FDF709
:103860007DFB40F2E810C2F20000BDE81040FEF718
:10387000EDBB000040F27821C2F200018988081AED
:10388000B0FA80F04009704770B540F27825C2F276
:103890000005A88840F6004400F40040C4F201048A
:1038A000A88004F580604FF40051FDF749FBB0FAA1
:1038B00080F04609A4F580600221FDF741FBB0FAD3
:1038C00080F0400946EA400620464FF48071FDF73B
:1038D00037FBB0FA80F0400946EA800620464FF4F4
:1038E0000071FDF72DFBB0FA80F0400946EAC000F8
:1038F0002880B8B369888842014612D0A88805217B
:103900006FF3DF30A8800020287605F10800FFF76C
:103910005FFF05F110004FF47A71FFF759FF298816
:103920006888084305F1100468802046FFF734FFDB
:1039300000283FD0B5F90400002848BF70BD688852
:10394000297E40F40040A880481CC1B2092928768D
:103950002AD3082220464FF47A712A76BDE87040B7
:10396000FFF736BF05F108042046FFF715FFB5F94C
:1039700004106A88B1F1FF3FD8BF0A46002808BF8B
:103980000A46002068806FF3DF32287605F11000C8
:103990004FF47A71AA80FFF71BFF20460521BDE88E
:1039A0007040FFF715BF00BF20460021BDE8704002
:1039B000FFF70EBF70BD000094B0FDF7E9FA0620D6
:1039C00000240A900120CDE90F44CDE90D44CDE952
:1039D0000D0010200F904FF46010022513900AA8DC
:1039E000CDE90B440494CDE91154FDF791FD28B1C4
:1039F000EFF3108072B600BFFEE700BF0F20CDE9E5
:103A000005054FF48060CDE9080405A8022107945C
:103A1000FDF776FC20B1EFF3108072B6FEE700BF31
:103A2000032001904FF4807002904FF40040039007
:103A300001A8FDF7DFFB28B1EFF3108072B600BFDD
:103A4000FEE700BFFFF7C4FBFFF7A8FBFFF74AFB49
:103A5000FFF770FCFFF730FDFFF77AFEFFF732FC4F
:103A6000FFF7DCFDFFF73AFEFFF7E0FE40F600400F
:103A7000C4F201004FF40041FDF762FA43F6106012
:103A8000C0F6000090E88E00D0E90465D0E9064C4D
:103A9000008C0DF1280EADF848000AA88EE88E00C3
:103AA000CDE90E651094CDF844C000F075F80024FF
:103AB0002AA505AE304629462246FCF789FB30464A
:103AC000002100F0FFF84FF4FA70FDF7B3F801346D
:103AD000642CEFD122A0002100F0F4F84FF44870DC
:103AE000FDF7A8F81FA0002100F0ECF800F042F864
:103AF00040F27805C2F200050AAC0FF26C081CA671
:103B00001AA700BFFFF7C0FE0120FFF7B3FE58B1B0
:103B1000287848B9204600F067F80020FFF77CFEBF
:103B20004046002100F0CEF80220FFF7A3FE48B186
:103B3000204600F031F80020FFF76EFE38460021E5
:103B400000F0C0F80420FFF795FE0028DAD000F05E
:103B500011F83046002100F0B5F8D3E725326400B3
:103B6000636300004343000032320000333300003F
:103B70003434000080B540F25810C2F20000002139
:103B8000FFF74EF940F2A010C2F200000021BDE89C
:103B90008040FEF7DDBE000010B540F27001C2F2B9
:103BA00000014860002240F20C000A80C2F20000CE
:103BB0000121017040F25810C2F200000168CA628F
:103BC000C2604A634A620021FFF7BAF840F2A014CB
:103BD000C2F2000420460021FEF72EFE20460221FC
:103BE000BDE81040FEF738BB10B540F20C02C2F23F
:103BF00000024FF0000C82F800C040F27002C2F2E6
:103C00000002A2F800C0138830F813404FF6FF738B
:103C10009C4235D05C1EA4B2118830F81110A1422C
:103C20002ED0118802311180118830F8111099427C
:103C300026D0118830F81110A14221D0118802310C
:103C40001180118830F81110994219D0118830F87C
:103C50001110A14214D0118802311180118830F85E
:103C6000111099420CD0118830F81110A14207D0E0
:103C7000118802311180118830F811109942CBD18E
:103C800050601088508040F25810C2F20000016865
:103C9000C1F82CC0C0F80CC0C1F834C0C1F824C0B1
:103CA0000021FFF74DF840F2A014C2F200042046B4
:103CB0000021FEF7C1FD20460221BDE81040FEF7BD
:103CC000CBBA000040F28002C2F2000200239370DF
:103CD000117053709380017891714078D071704762
:103CE000A0F12001432900F22B800FF20C0000EB21
:103CF00081020020DFE801F03B2424242424242432
:103D000024242424242424242226282A2C2E30323D
:103D1000343624242424242424242438242424242D
:103D20002424242424242424242424242424242453
:103D300024242424242424242424243A3F2016E068
:103D40007F2014E0062012E05B2010E04F200EE000
:103D500066200CE06D200AE07D2008E0072006E0E8
:103D60007F2004E06F2002E0392000E0582070B589
:103D700040F29425C2F20005287095F9000040F643
:103D80000044C4F201040022B0F1FF3F20464FF08E
:103D90008001C8BF0122FDF7E1F82878012626EA54
:103DA000000220460121FDF7D9F82878022126EAF1
:103DB00050022046FDF7D2F82878042126EA900226
:103DC0002046FDF7CBF82878202126EAD0022046AD
:103DD000FDF7C4F82878102126EA10122046FDF7D6
:103DE000BDF82878082126EA50122046FDF7B6F8DB
:103DF0002878402126EA90122046BDE87040FDF761
:103E0000ADB830380A2801D2012070470020704731
:103E10001704440097044400270544007505440036
:103E200020064400E0064400B80744002D08440082
:103E3000FEFF00000000000000000102030406076E
:103E40000809000000000102030401020203040546
:103E5000060708090A0B0C0D0E0F101002000000D7
:103E6000040000000800000010000000FDFFFFFF3C
:103E7000FBFFFFFFF7FFFFFFEFFFFFFFA03E000884
:103E8000000000201000000028010008B03E0008DB
:103E9000100000209008000044010008000000000D
:103EA00001000000100000000024F40001000000E8
:04000005080000ED02
:00000001FF
