:020000040800F2
:10000000980A0020B9010008A96D000835670008AA
:10001000A56D0008C1170008597100080000000014
:10002000000000000000000000000000297100082E
:10003000D117000800000000B56D00082D71000800
:10004000D3010008D3010008D3010008BD700008E7
:10005000D3010008D3010008D3010008592E00087D
:10006000D3010008D3010008D3010008C517000818
:10007000D3010008D3010008D3010008D301000810
:10008000D3010008D301000835160008D301000889
:10009000D3010008D3010008D3010008D3010008F0
:1000A000D3010008D3010008D3010008D3010008E0
:1000B000D3010008417100084D710008D301000808
:1000C000D3010008D3010008D3010008D3010008C0
:1000D000D3010008D3010008D3010008D3010008B0
:1000E000512E0008056E0008D301000800F002F848
:1000F00000F052F80AA090E8000C82448344AAF170
:100100000107DA4501D100F047F8AFF2090EBAE86D
:100110000F0013F0010F18BFFB1A43F0010318473B
:10012000EC9C00000C9D0000103A24BF78C878C1F8
:10013000FAD8520724BF30C830C144BF04680C60ED
:10014000704700000023002400250026103A28BF35
:1001500078C1FBD8520728BF30C148BF0B60704739
:10016000662909F01B85642900F08E800020704705
:100170001FB59DE8030001F0F5F800F075FC0400E0
:100180000020002109F070F9E06000F05FFE1FBD63
:1001900010B500F0C4FE10BD00F0F8FE1146FFF7E8
:1001A000E7FF07F07BFC01F0B1F803B4FFF7F0FFC5
:1001B00003BC01F0A9F9000009488047094800473D
:1001C000FEE7FEE7FEE7FEE7FEE7FEE7FEE7FEE707
:1001D000FEE7FEE704480549054A064B7047000064
:1001E0003D710008ED00000898040020980A0020E6
:1001F00098060020980600200FB4044910B503AA01
:10020000029800F01FFC10BC5DF814FB5C0100209C
:100210000FB41CB5074B06AA7B44694600900598AD
:1002200000F0F7FB0020694600F006FC1CBC5DF8FE
:1002300014FB00001D08000070B5044685690068C5
:10024000C10601D5302600E02026C00707D070BDCA
:10025000D4E9012130469047206A401C20626D1E7F
:10026000F6D570BD70B5044685690078C00707D122
:1002700070BDD4E9012120209047206A401C2062F3
:100280006D1EF6D570BD00002DE9F0410646002434
:1002900010687529314616A510D0AFF300800028EC
:1002A00002DA404213A507E031688A0701D512A59A
:1002B00002E0490704D511A5012401E0AFF3008055
:1002C00000210A2206F1240709E0B0FBF2FCB0FB92
:1002D000F2F302FB1C00303078541846491C002809
:1002E000F3D123462A463046BDE8F04100F025B957
:1002F000000000002D0000002B0000002000000086
:100300002DE9F05F894604464FF0000ADFF824B17A
:10031000FB44C0F820A02046E168884700287DD033
:10032000252806D0D4E901219047206A401C20628C
:10033000F1E700255F462046E16888472028064609
:1003400007DB312E05D2B81910F8200C08B105438F
:10035000F1E7A80701D525F00405C4F81CA0002783
:10036000C4F818A02A2E09D0304609F067F838B32F
:1003700004EB8708303EC8F8186019E059F8041BF0
:10038000204604EB87029161E1688847012F064609
:1003900018D1E069002820DA25F020051DE0D8F802
:1003A000180000EB800006EB40003038C8F8180059
:1003B0002046E1688847064609F040F80028EED15B
:1003C000012F0AD02E2E08D12046E16888477F1CD5
:1003D0000646022F45F02005C4DBA069002803DA99
:1003E000404245F00105A061E80701D025F0100565
:1003F000A6B1A6F14100192802D8203645F40065BF
:100400004A463146204625604D46FFF7A9FE60B1B9
:10041000012807D0ED1D25F0070000E007E000F1FE
:10042000080978E705F1040975E730467AE7206A9C
:10043000BDE8F09F8C98000010B5044603E009F079
:1004400004F8401C09D014F8010B05490028F6D126
:10045000BDE810400A2008F0F8BF4FF0FF3010BD93
:100460005C0100204FF0000200B51346944696460A
:10047000203922BFA0E80C50A0E80C50B1F12001B7
:10048000BFF4F7AF090728BFA0E80C5048BF0CC065
:100490005DF804EB890028BF40F8042B08BF7047C3
:1004A00048BF20F8022B11F0804F18BF00F8012B35
:1004B000704700004FF0013C50F8042B51F8043B0A
:1004C0009A4221D1A2EB0C03934313EACC1317D128
:1004D00050F8042B51F8043B9A4215D1A2EB0C03BF
:1004E000934313EACC130BD150F8042B51F8043B7F
:1004F0009A4209D1A2EB0C03934313EACC13DBD04D
:100500004FF00000704700BFD01A01BAB1FA81F174
:1005100001F0180122FA01F0CB40DBB2C0B2C01AE0
:10052000C1F120012CFA01F3D11A914311EAC31150
:10053000E6D170477047704770472DE9F0470D4688
:1005400099469246044600F124080168880604D5BD
:10055000E06921F01001216000E00120A84201DDE6
:10056000471B00E00027A1697A1902EB0900081A6D
:10057000A0612078C00602D42046FFF75DFE002669
:1005800008E0D4E901211AF806009047206A401CCF
:10059000761C20624E45F4DB2078C0060AD5204642
:1005A000FFF74AFE06E0D4E9012130209047206A97
:1005B000401C2062381EA7F10107F4DC07E0D4E9F3
:1005C000012118F805009047206A401C2062281E6F
:1005D000A5F10105F3DC2046FFF744FE2078000674
:1005E00002D50220BDE8F0870120FBE72DE9FF4F8F
:1005F0000C461E464FF0FF378BB0D2E90001DDF804
:1006000060800A908A46C1F30A5505B93D4600212B
:1006100008464FF00000BAF1000F00F4400005DA80
:1006200000EB80004FF4400101EA50004FEA90597E
:10063000B9F1010F00DDB9460A9850EA4A000ED020
:1006400044F61050A5F2FF3545432F14B8F1000FC2
:100650001ED07542291E1EDDC9F100021CE0B8F152
:10066000010F4FF0000001D0302103E0F24305E01C
:100670002154401CB042FBDB3046002200212154B3
:100680000B99C1F80880C1E900200FB0BDE8F08FD8
:10069000BD1B6D1CDEE74A4600DA694206A800F081
:1006A0006DFA06AB93E8070003AB83E807005046FA
:1006B0000A9908F0E6FA8DE80700A0F500501F3807
:1006C00000900398002D0ADD42F21F014A460844BB
:1006D000002303A90390684608F050FD09E0A0F547
:1006E00000504A461F38002303A90390684608F0CB
:1006F0005AFD8DE807000004000C03D04FF0FF30D6
:10070000410800E01046B8F1000F03D0002200922B
:1007100015461EE0751E05D400F0AAF93032625568
:100720006D1EF9D5B3460122084302D000227F1C7A
:1007300004E02078302801D100227F1E002A09978A
:1007400084D01DE0112D07DA00F092F930326255A5
:100750006D1C50EA0102F5D1084302D00098C8B1DF
:100760000EE00021681E05E0235C625C63542254A5
:10077000401E491C8142F7DBAB46A81B401E099076
:10078000002004F80B000B98099AC0F80880C0E913
:10079000002B7AE711264FF0000857E72DE9F04FBC
:1007A00088460446D21D22F0070191B0D1E900012C
:1007B000CDE90A0108F02EFE02460B98C00F01D0C9
:1007C0002D2007E02068810701D52B2002E02021A1
:1007D00001EAC000032A099001D0072A05DB03467D
:1007E0004146204600F08AF90BE12078800601D5C9
:1007F000E06900E00620B8F1650F814606D0B8F147
:10080000660F18D0B8F1670F70D131E00020B9F150
:10081000110F009001DB112301E009F101030AAA85
:1008200001A90CA8FFF7E2FEDDE90C70002609F132
:100830000105834647E001204B4600904FF00047FA
:100840000AAA01A90CA8FFF7D1FEDDE90DB00C99A9
:100850005D46002610B909F101000D18B9EB05003D
:1008600003D4C0F1FF3609F10105A5EB09002BE027
:10087000B9F1010F01DA4FF001090020B9F1110FB0
:100880000090484601DD112300E003460AAA01A9B1
:100890000CA8FFF7ABFEDDE90C704D460026834641
:1008A000207800070AD4AB4500DA5D4601A8012D87
:1008B00004DD411911F8011C302907D04F4502DA37
:1008C00017F1040F04DA012082460FE06D1EEEE7F7
:1008D000002F02DCED1B3E4403E0781CA84200DD43
:1008E0007D1CB81B00F1010A4FF00047207800077B
:1008F00003D4AA4501DB4FF0FF3A0021B7F1004FC6
:100900000DF143088DF8431024D002202B23002F33
:1009100001DA7F422D230A21021EA0F1010000DC32
:100920005FB197FBF1FC97FBF1F201FB1C7C1746D2
:100930000CF1300C08F801CDEEE7A8F101000370CE
:100940002188090501D5452100E06521A0F10108B4
:1009500000F8011C09980FA9A1EB0807FF1D00B1C1
:100960000120411901EBEA70A1693844081A401EC0
:10097000A0612078C00602D42046FFF75DFC0998EC
:1009800028B1D4E901219047206A401C20622078D8
:10099000C00622D52046FFF74FFC1EE0002E04DBE8
:1009A000B34502DD01A8805D00E03020D4E90121DB
:1009B0009047206A401C2062761CAAF101005FEA81
:1009C000000A0AD100F050F8C0680168405CD4E920
:1009D00001219047206A401C2062281EA5F10105D4
:1009E000DCDC07E0D4E9012118F8010B9047206A0C
:1009F000401C2062381EA7F10107F3DC2046FFF7F8
:100A000031FC032011B041E601694A1C02610878FB
:100A1000704700B58FB0CDE901310021059105493E
:100A20007944CDE9031011466846FFF769FC0FB021
:100A300000BD0000E5FFFFFF0A6802F8010B0A6035
:100A400070470000074B70B50D467B44FFF7E1FF90
:100A50000446284600F004F910B14FF0FF3070BD95
:100A6000204670BDFD890000004870472402002028
:100A700030B5B0F10A0271F100034FEA900E4EEA70
:100A8000817EB0EB0E0061EB91014FEA101E4EEA41
:100A9000017E10EB0E0041EB11114FEA102E4EEAD1
:100AA000016E10EB0E0041EB11214FEA104E4EEAA1
:100AB000014E10EB0E0041EB1141401841F10001D5
:100AC0004FEAD00040EA41704FEAD1014FEA810479
:100AD00044EA907410EB800544EB01046D1944EB7B
:100AE0000404521BA3414FF0000348BF0A3200D553
:100AF00030BD401C41F1000130BD00002DE9F04146
:100B00001F46044603260168072A01F4006004DB3F
:100B100008B116A505E016A503E008B115A500E08B
:100B200015A521F010002060A069C01EA0610FB1C2
:100B3000401EA0612046FFF77FFB4FB1D4E90121A1
:100B400038469047206A401C2062C01C206206E0A4
:100B5000206AFAE7D4E9012115F8010B9047761EC7
:100B6000F8D22046FFF77EFBBDE8F0814E414E00F3
:100B70006E616E00494E4600696E66002DE9F047D1
:100B8000814616468AB0354878440DC88DE80D0078
:100B900032487844801C03AC0DC884E80D0041F64F
:100BA0009B300844372190FBF1F290FBF1F5A5F161
:100BB000800501FB12041B3C02D56442012000E0C9
:100BC0000020DFF898A080460027FA44AAF1BE0A68
:100BD0000EE0E0070AD03246684607EB47010123E2
:100BE0000AEB810108F0DFFA8DE8070064107F1C32
:100BF000002CEED1194F7F44AE3F19E0E80715D025
:100C000007EB04100DF1180A90E80E008AE80E00B8
:100C1000C068F04201D1981908903246012306A914
:100C200003A808F0C0FA03AB83E807006D10641C4A
:100C3000002DE3D14FF0010332466946B8F1000FB1
:100C400003A802D008F09AFA01E008F0ACFAC9E96A
:100C50000001C9F808200AB0BDE8F087A4900000A0
:100C6000007B00F0800070472DE9F05F05461746D5
:100C70000C46C86820F4201040F48000C86080064C
:100C800002D5084600F083FAE06841F282014FF095
:100C9000FF3A0140022903D0204600F015FAB9E0DE
:100CA00000F42041B1F5004F0FD1C00306D56168B3
:100CB000E06A884200D80846606006E02069E06289
:100CC0006060606906F054FAA061A0680022EEB28C
:100CD00000280DDAE1688B050AD4C043A06041F416
:100CE00090302260E0606068411C61600670AAE09C
:100CF000E0689146226040F40050E060206978BBD3
:100D0000606906F037FA04F124054FF00108A8B134
:100D1000A08910F4407F08D0E06900F05CF9206100
:100D200018B1E06840F4006017E0C4F81C80256149
:100D3000E06820F4407040F480600EE0E06900F06C
:100D40004AF900282061F0D0E06840F4006010F417
:100D5000407FE06002D140F48070E0602069606014
:100D6000E06825696FF0010BC1051ED56168E06A76
:100D7000884200D80846411B04D02246284600F08D
:100D8000ADF9E8BB1FB1E562C4E9015959E0681C3F
:100D9000E0626060E069401EA060E06840F480307E
:100DA000E06030462E70BDE8F09F17B100F480324D
:100DB0000AE06068411C61600670E0680A2E40F439
:100DC0008030E06006D00022E16A6068814203D989
:100DD0000B4602E00122F7E70346B4F80CC05B1BA8
:100DE0005FEA4C5C04D4D4F81CC09C4500DD02B31F
:100DF000814200D80146002BA1EB0008E56200E02B
:100E000008E0C4E9015907DD22461946284600F0EA
:100E100065F908B15046C6E7B8F1000F09D0A169DD
:100E2000E5626560A1EB0800A061E06840F0100099
:100E3000E06047B16168A069E562491B08446560EC
:100E4000A0615846AFE73046ADE7000010B5424814
:100E50005421FFF707FB41485421FFF703FB4048AB
:100E60005421FFF7FFFA3F493B483C4A3F4B08609B
:100E70003D490A603A491960531C0365481C1065D6
:100E8000012008653B48344A39A1784400F0A0F9B4
:100E900020B9384878440A3800F041FA37482F4AD8
:100EA00035A1784400F094F920B9344878440A38E0
:100EB00000F035FA32482A4A2FA1784400F088F928
:100EC00020B92F4878440A3800F029FA40232248F4
:100ED000DC000021224600F0D4F820B125487844F7
:100EE000543800F01CFA1D4822464023002100F02F
:100EF000C8F820B121487844543800F010FA184856
:100F000022461023002100F0BCF8002806D01C481F
:100F10007844BDE81040563800F001BA10BD1048C2
:100F200070B5006D20F001040B4800F0C9F90B48C2
:100F300000F0C6F90A4800F0C3F909E0206D20F07E
:100F40000105204600F0BCF9204600F073F82C465D
:100F5000002CF3D170BD0000080100205C010020CE
:100F6000B001002000000020040000200800002044
:100F700072000000DC8D000077000000CB8D0000C7
:100F8000A48D000000487047040200207546FFF75A
:100F9000F9FFAE4605006946534620F00700854636
:100FA00018B020B5FFF716F9BDE820404FF0000655
:100FB0004FF000074FF000084FF0000BAC46ACE8D4
:100FC000C009ACE8C009ACE8C009ACE8C00921F030
:100FD00007018D46704770B5064600F0A7F9056811
:100FE00006F10B0020F00704B4429CBF002070BD46
:100FF0002B466A68BAB11068A04210D304F1080108
:1010000088423CBF5068586007D35168101941604E
:101010001168091B016058601460101D70BD1346F3
:101020005268002AE7D12146284600F087F90028B7
:10103000DED170BD70B50446051F00F077F9006879
:10104000002C14BF446870BD002C18BFAC423CBFDC
:1010500020466468F8D301680A18AA4218BF4560A0
:1010600003D12A6805461144016028684119A1424C
:101070001CBF6C6070BD61686960216808442860AD
:1010800070BD70B5C468A50713D0650211D4B2F560
:10109000807F09D0B2F5007F06D0B2F5806F08D10D
:1010A000012300F1240106E05D1E6FF07F46B5428A
:1010B00001D3012070BD0161C361416024F47061FE
:1010C0001143C160002070BDC16821F4001141F0DE
:1010D0008001C16000218160016070472DE9F74FF8
:1010E00015460C464FF0FF3B3848D768D2F814A09D
:1010F000074209D05046A96906F076F8002819DBA6
:101100003248C0430740EF604FF000496FF000489D
:101110004C4501D3464600E0264600993B465046E2
:10112000324606F065F8A96920F00042B21A11446F
:10113000A96128B12846FFF7C7FF5846BDE8FE8FD2
:10114000A41BE5D10020F9E770B504460569C06A23
:101150006168884200D80846E16821F42011E16006
:10116000C90312D5A84208D02246411B2846FFF7E2
:10117000B5FF10B14FF0FF3070BD0020E562C4E94B
:101180000150E06820F48030E060002070BD10B5B0
:101190000446C06820F02000E060A16AA06988428F
:1011A0000DD02046FFF7D0FFE06820F4405040F01B
:1011B0001000E060A06AA0612069E062606044F213
:1011C0004001E0688843E06010BD000010000200AC
:1011D0002DE9F0410C461646070047D0104600F0B6
:1011E0006FF82078611C61280AD0722802D0772815
:1011F0003CD102E00125002405E00225042402E0A0
:10120000082448F2020511F8010B2B2806D06228A9
:1012100009D011F8010C74280AD00BE045F0030541
:1012200044F00204EFE745F0040544F00104EAE766
:1012300044F010043846214605F0A4FF411C15D0A7
:101240000021316171604FF40071F560F1617061EE
:10125000200704D530460222002100F0B9F8306D95
:1012600040F0010030653046BDE8F0810020FBE72A
:101270002DE9F0410D460646104C206DC10704D003
:10128000410804D020F00104F7E722460EE0542084
:10129000FFF7A1FE07000ED0206D47F001010843C3
:1012A000542120653846FFF7DDF83A462946304696
:1012B000BDE8F0418CE70020D6E7000008010020DF
:1012C0002DE9F04704464FF0FF380026C568D4E901
:1012D0000497A80718D02046FFF736FF384605F0D8
:1012E0003DFF002800DA4646280502D54846FFF7AC
:1012F000A1FE4C212046FFF7B5F8206D20F001003B
:1013000020653046BDE8F0874046FBE710B504464F
:10131000AFF300802046BDE81040FEF746BF10B591
:1013200000F0D8F8BDE8104000F0CEB80048704793
:101330000C020020704770477047704738B504466C
:101340000A4600206946AFF30080002808BF38BD78
:1013500002460099204600F0DDF8012038BD01204A
:1013600000F02CB9F8B5AFF30080054600200C461C
:10137000102000BF0646A819A0420DD93246694682
:101380000020AFF30080070008BF00F017F90098B5
:10139000A04218BF0546C419FFF7C8FF05600746FD
:1013A000F01D20F007004619284600F00AF8B44264
:1013B00008BFF8BDA21B31463868BDE8F84000F010
:1013C000A9B800210160C0E90110704710207047E2
:1013D0002DE9F041044616460D464769007B80071B
:1013E0002ED0384605F0C6FE50BB3EB3012E02D0CB
:1013F000022E25D104E0204600F0A6F805441DE0A9
:10140000384605F0B5FEE168002841F01001E160C2
:1014100005DA2046FFF758FE0120BDE8F081C90338
:101420000BD56268E16A914200D81146A269114465
:101430002269891A814200DD08460544002D01DA3F
:101440000220EAE7E16A6068E268814206D291031D
:10145000E06203D522F4003141F01002A6690027B2
:10146000AE4213DCE16A814201D90B4600E003463B
:1014700003EB060C2369ACEB030CAC4506DD8142A3
:1014800001D98C4600E084469C4505D1A7602760C1
:1014900042F02000A5620DE0AD1BE669AE1B814263
:1014A000A66000D90846C01A281A20605819606042
:1014B00022F0200003490840E060002084F84870D2
:1014C000ABE70000BFCFD7FF002801D000F01CB869
:1014D0007047000010B5014602A000F056F8012048
:1014E00010BD000053494752545245443A205265BA
:1014F0006469726563743A2063616E2774206F704B
:10150000656E3A200000000001491820ABBEFEE7DE
:1015100026000200034640688C46002818BF884217
:101520003CBF03464068F8D318681844884207D087
:101530000CF1030020F00700001D411A521A014669
:10154000081D0A60FFF776BD10B50146C268900716
:1015500003D0900607D5886A0AE000F03FF8012121
:101560000160881E10BD8B69486818440B69C01A59
:1015700091F848301BB191F84910401A10BD110381
:10158000FCD50028FADD401E10BD70B505460C469E
:101590000A2000E06D1C00F018F835B1287800280A
:1015A000F8D102E0641C00F010F814B12078002893
:1015B000F8D1BDE870400A2000F007B810B500F07F
:1015C00011F8BDE81040FFF77FBF08B569468DF8F8
:1015D00000000320ABBE08BD704700000048704704
:1015E0000402002010B5012805D0002103A0FFF758
:1015F000CCFF012010BD09A1F8E700005349475274
:10160000544D454D3A204F7574206F6620686561D2
:1016100070206D656D6F7279000000003A2048659A
:101620006170206D656D6F727920636F7272757075
:101630007465640040F2A820C2F2000001F0E2BD2F
:10164000B0B5044600688168C90709D0816821F0F7
:101650000101816002F034FC21688968C90701D169
:101660000020B0BD054602E08068C007F8D002F057
:1016700027FC411B20680329F6D38168C907F3D0F2
:10168000A06A40F01000A062E06A40F00100E06251
:101690000120B0BD0146406A826A12F0500F03D0AB
:1016A000006A026B084610470168826A42F40072C1
:1016B0008262896801F46021B1F5602F01D1017B5C
:1016C00011B101F093BD00BF816A21F48071816284
:1016D000816AC90448BF01F089BD816A41F00101F6
:1016E000816201F083BD0000406A816A41F04001DF
:1016F0008162C16A41F00401C16201F081BD000054
:10170000406A01F07BBD0000B0B582B00446002005
:10171000019021688A68D2074FD1886840F00100A3
:10172000886040F21400C2F2000000684DF6836148
:10173000C4F21B31A0FB0101880C01900198A0B1FB
:10174000019801380190019878B101980138019011
:10175000019850B1019801380190019828B1019881
:101760000138019001980028EAD102F0A9FB216814
:101770008968C9071CD1054603E000BF8068C0071F
:101780001AD102F09DFB411B20680329F6D3816822
:10179000C907F3D1A06A40F01000A062E06A40F0EF
:1017A0000100E062002084F82400012002B0B0BDF6
:1017B000002002B0B0BD00BF002002B0B0BD0000EC
:1017C000FEE7000040F2D820C2F2000001F0A8BFFE
:1017D000704700002DE9F0438BB04FF60044002223
:1017E0004FF60045C0F600040592C0F601052088BA
:1017F00029880192012200280394049200F0BC8001
:101800004EF6EE62904200F095814FF6FF729042E4
:1018100040F0BE81002900F057824EF6EE60814212
:1018200040F0E8824FF6FF7004F57F712288824213
:1018300040F0E08434F8042F824240F0DB8434F836
:10184000042F824240F0D68434F8042F824240F0C4
:10185000D18434F8042F824240F0CC8434F8042F31
:10186000824240F0C78434F8042F824240F0C284A0
:1018700034F8042F824240F0BD8434F8042F8242B1
:1018800040F0B88434F8042F824240F0B38434F836
:10189000042F824240F0AE8434F8042F824240F09C
:1018A000A98434F8042F824240F0A48434F8042F31
:1018B000824240F09F8434F8042F824240F09A84A0
:1018C00034F8042F824240F0958434F8042F824289
:1018D00040F0908434F8042F824240F08B8434F836
:1018E000042F824240F0868434F8042F824240F074
:1018F000818434F8042F824240F07C8434F8042F31
:10190000824240F0778434F8042F824240F072849F
:1019100034F8042F824240F06D8434F8042F824260
:1019200040F0688434F8042F824240F0638434F835
:10193000042F824240F05E8434F8042F824240F04B
:10194000598434F8042F824240F0548434F8042F30
:10195000824240F04F8434F8042F824240F04A849F
:1019600034F8042F824240F045848C4204F1040490
:10197000FFF45CAF00F056BC00294FF0000000F00F
:10198000E9824FF6FF72914200F0398440F26429F7
:10199000C2F20009E888B9F802604FF6FE78B0425A
:1019A000C0F6000840F02E84E888B9F80460B04220
:1019B00040F03C84E888B9F80660B04240F04A84C0
:1019C00001202946002200230126002502F096F876
:1019D000002840F014844FF6FF710195CDE90346CD
:1019E00004F57F722088884240F0FC8134F8040FAF
:1019F000884240F0F78134F8040F884240F0F281C9
:101A000034F8040F884240F0ED8134F8040F884226
:101A100040F0E88134F8040F884240F0E38134F864
:101A2000040F884240F0DE8134F8040F884240F011
:101A3000D98134F8040F884240F0D48134F8040F7F
:101A4000884240F0CF8134F8040F884240F0CA81C8
:101A500034F8040F884240F0C58134F8040F8842FE
:101A600040F0C08134F8040F884240F0BB8134F864
:101A7000040F884240F0B68134F8040F884240F0E9
:101A8000B18134F8040F884240F0AC8134F8040F7F
:101A9000884240F0A78134F8040F884240F0A281C8
:101AA00034F8040F884240F09D8134F8040F8842D6
:101AB00040F0988134F8040F884240F0938134F864
:101AC000040F884240F08E8134F8040F884240F0C1
:101AD000898134F8040F884240F0848134F8040F7F
:101AE000884240F07F8134F8040F884240F07A81C8
:101AF00034F8040F884240F0758134F8040F8842AE
:101B000040F0708134F8040F884240F06B8134F863
:101B1000040F884240F0668134F8040F884240F098
:101B20006181944204F104044FF00000FFF45AAFC5
:101B300065E300BF4FF6FF70814200F05283002939
:101B400040F0B88240F26429C2F20009E088B9F896
:101B500002604FF6FE78B042C0F6000840F05A83AB
:101B6000E088B9F80460B04240F06A83E088B9F8D0
:101B70000660B04200F0358321882888002900F0F3
:101B8000D383002800F02C84B9F8002000F095BD24
:101B900000210A91069101214FF6FF7008940991E6
:101BA00004F57F7122461388834240F0838032F827
:101BB000043F83427ED132F8043F83427AD132F827
:101BC000043F834276D132F8043F834272D132F827
:101BD000043F83426ED132F8043F83426AD132F827
:101BE000043F834266D132F8043F834262D132F827
:101BF000043F83425ED132F8043F83425AD132F827
:101C0000043F834256D132F8043F834252D132F826
:101C1000043F83424ED132F8043F83424AD132F826
:101C2000043F834246D132F8043F834242D132F826
:101C3000043F83423ED132F8043F83423AD132F826
:101C4000043F834236D132F8043F834232D132F826
:101C5000043F83422ED132F8043F83422AD132F826
:101C6000043F834226D132F8043F834222D132F826
:101C7000043F83421ED132F8043F83421AD132F826
:101C8000043F834216D132F8043F834212D132F826
:101C9000043F83420ED132F8043F83420AD132F826
:101CA000043F834206D18A4202F10402FFF47BAF73
:101CB00007E000BF06A80AA901F0A8FE002840F02E
:101CC0009E82012021468EE24FF6FF7104F57F725D
:101CD0002088884240F0868034F8040F884240F023
:101CE000818034F8040F88427CD134F8040F884294
:101CF00078D134F8040F884274D134F8040F884244
:101D000070D134F8040F88426CD134F8040F884243
:101D100068D134F8040F884264D134F8040F884243
:101D200060D134F8040F88425CD134F8040F884243
:101D300058D134F8040F884254D134F8040F884243
:101D400050D134F8040F88424CD134F8040F884243
:101D500048D134F8040F884244D134F8040F884243
:101D600040D134F8040F88423CD134F8040F884243
:101D700038D134F8040F884234D134F8040F884243
:101D800030D134F8040F88422CD134F8040F884243
:101D900028D134F8040F884224D134F8040F884243
:101DA00020D134F8040F88421CD134F8040F884243
:101DB00018D134F8040F884214D134F8040F884243
:101DC00010D134F8040F88420CD134F8040F884243
:101DD00008D1944204F104044FF00000FFF478AFFE
:101DE0000DE200BF01A805A901F010FE0BB0BDE88F
:101DF000F08300BF00210A91069101214FF6FF7088
:101E00000894099104F57F7122461388834240F0BB
:101E1000E38132F8043F834240F0DE8132F8043F30
:101E2000834240F0D98132F8043F834240F0D481AC
:101E300032F8043F834240F0CF8132F8043F8342BE
:101E400040F0CA8132F8043F834240F0C58132F845
:101E5000043F834240F0C08132F8043F834240F0A7
:101E6000BB8132F8043F834240F0B68132F8043F30
:101E7000834240F0B18132F8043F834240F0AC81AC
:101E800032F8043F834240F0A78132F8043F834296
:101E900040F0A28132F8043F834240F09D8132F845
:101EA000043F834240F0988132F8043F834240F07F
:101EB000938132F8043F834240F08E8132F8043F30
:101EC000834240F0898132F8043F834240F08481AC
:101ED00032F8043F834240F07F8132F8043F83426E
:101EE00040F07A8132F8043F834240F0758132F845
:101EF000043F834240F0708132F8043F834240F057
:101F00006B8132F8043F834240F0668132F8043F2F
:101F1000834240F0618132F8043F834240F05C81AB
:101F200032F8043F834240F0578132F8043F834245
:101F300040F0528132F8043F834240F04D8132F844
:101F4000043F834240F048818A4202F10402FFF4D8
:101F50005CAF46E10A90069001204FF6FF710894AD
:101F6000099004F57F70224613888B4240F034813B
:101F700032F8043F8B4240F02F8132F8043F8B420D
:101F800040F02A8132F8043F8B4240F0258132F83C
:101F9000043F8B4240F0208132F8043F8B4240F0F6
:101FA0001B8132F8043F8B4240F0168132F8043F27
:101FB0008B4240F0118132F8043F8B4240F00C819B
:101FC00032F8043F8B4240F0078132F8043F8B42E5
:101FD00040F0028132F8043F8B4240F0FD8032F83D
:101FE000043F8B4240F0F88032F8043F8B4240F0CF
:101FF000F38032F8043F8B4240F0EE8032F8043F29
:102000008B4240F0E98032F8043F8B4240F0E4809C
:1020100032F8043F8B4240F0DF8032F8043F8B42BD
:1020200040F0DA8032F8043F8B4240F0D58032F83D
:10203000043F8B4240F0D08032F8043F8B4240F0A6
:10204000CB8032F8043F8B4240F0C68032F8043F28
:102050008B4240F0C18032F8043F8B4240F0BC809C
:1020600032F8043F8B4240F0B78032F8043F8B4295
:1020700040F0B28032F8043F8B4240F0AD8032F83D
:10208000043F8B4240F0A88032F8043F8B4240F07E
:10209000A38032F8043F8B4240F09E8032F8043F28
:1020A0008B4240F09980824202F10402FFF45CAF5F
:1020B00097E000BF00210A91069101214FF6FF70C1
:1020C0000894099104F57F7122461388834240F0F9
:1020D000838032F8043F83427ED132F8043F83424A
:1020E0007AD132F8043F834276D132F8043F8342FA
:1020F00072D132F8043F83426ED132F8043F8342FA
:102100006AD132F8043F834266D132F8043F8342F9
:1021100062D132F8043F83425ED132F8043F8342F9
:102120005AD132F8043F834256D132F8043F8342F9
:1021300052D132F8043F83424ED132F8043F8342F9
:102140004AD132F8043F834246D132F8043F8342F9
:1021500042D132F8043F83423ED132F8043F8342F9
:102160003AD132F8043F834236D132F8043F8342F9
:1021700032D132F8043F83422ED132F8043F8342F9
:102180002AD132F8043F834226D132F8043F8342F9
:1021900022D132F8043F83421ED132F8043F8342F9
:1021A0001AD132F8043F834216D132F8043F8342F9
:1021B00012D132F8043F83420ED132F8043F8342F9
:1021C0000AD132F8043F834206D18A4202F1040266
:1021D000FFF47BAF05E000BF06A80AA901F016FCDA
:1021E00068B9012021460022002301F087FC0BB0D2
:1021F000BDE8F08301A805A901F008FC90B10BB07F
:10220000BDE8F0832188288871B3A8B3B9F800200D
:1022100043E100BF2188288841B3002858D0B9F88D
:1022200000207EE101202946DDE700BF21882888C3
:10223000F1B1002800F07C80B9F80020B5E100BFC2
:1022400021882888B1B1002800F09E80B9F80020CC
:10225000EFE100BF21882888002967D0002800F01E
:10226000EB80B9F8002068E2002107E0002131E0AE
:1022700000215FE0002189E04FF48031A21C41EA97
:102280000800114388427FF68FAB0288B24200F00B
:102290000081021F8A427FF687AB1388B34200F0A9
:1022A000F780A0F108028A427FF67EAB1388B34222
:1022B00000F0EE80A0F10C028A427FF675AB138825
:1022C000B34200F0E58010388842DED8FFF76CBBDF
:1022D0004FF48031A21C41EA0800114388427FF686
:1022E0003FAC0288B24200F01881021F8A427FF69A
:1022F00037AC1388B34200F00F81A0F108028A4284
:102300007FF62EAC1388B34200F00681A0F10C02D8
:102310008A427FF625AC1388B34200F0FD80103866
:102320008842DED8FFF71CBC00215BE0002185E07D
:102330004FF48031A21C41EA0800114388427FF625
:1023400039AB0288B24200F02C81021F8A427FF62C
:1023500031AB1388B34200F02381A0F108028A4216
:102360007FF628AB1388B34200F01A81A0F10C026B
:102370008A427FF61FAB1388B34200F011811038F8
:102380008842DED8FFF716BB4FF48031A21C41EA29
:102390000800114388427FF6E9AB0288B24200F0A0
:1023A0004481021F8A427FF6E1AB1388B34200F0FA
:1023B0003B81A0F108028A427FF6D8AB1388B34272
:1023C00000F03281A0F10C028A427FF6CFAB138875
:1023D000B34200F0298110388842DED8FFF7C6BB2F
:1023E0004FF48031A21C41EA0800114388427FF675
:1023F000F8AE0288B24200F05C81021F8A427FF68A
:10240000F0AE1388B34200F05381A0F108028A4273
:102410007FF6E7AE1388B34200F04A81A0F10C02C8
:102420008A427FF6DEAE1388B34200F04181103855
:102430008842DED8D5E600BF4FF48031A21C41EAC5
:102440000800114388427FF6BBAA0288B24200F01E
:102450007081021F8A427FF6B3AA1388B34200F04C
:102460006781A0F108028A427FF6AAAA1388B342C4
:1024700000F05E81A0F10C028A427FF6A1AA1388C7
:10248000B34200F0558110388842DED8FFF798BA81
:10249000104630F8022CA9F800202188288848B17D
:1024A000002940F04E814EF6EE61401AB0FA80F0FD
:1024B000400904E04EF6EE60081A18BF012000043F
:1024C00008F1010140EA040701438F4280F0728164
:1024D0003868013000F07381381D884280F06A81CD
:1024E0000368013300F06A8107F10800884280F038
:1024F00061810368013300F0618107F10C008842BB
:1025000080F058810368013300F0588110378F4202
:102510004FF08000DCD372E6104630F8022CA9F8A8
:1025200000202188288848B1002940F00A814EF611
:10253000EE61401AB0FA80F0400904E04EF6EE6019
:10254000081A18BF0120000408F1010140EA04073D
:1025500001438F4280F02E813868013000F04581C0
:10256000381D884280F026810368013300F03C81E9
:1025700007F10800884280F01D810368013300F0F4
:10258000338107F10C00884280F014810368013325
:1025900000F02A8110378F424FF08000DCD32EE606
:1025A000104630F8022CA9F800202188288848B16C
:1025B000002940F0C6804EF6EE61401AB0FA80F075
:1025C000400904E04EF6EE60081A18BF012000042E
:1025D00008F1010140EA040701438F4280F0EA80DC
:1025E0003868013000F01781381D884280F0E280A1
:1025F0000368013300F00E8107F10800884280F083
:10260000D9800368013300F0058107F10C0088428E
:1026100080F0D0800368013300F0FC8010378F42D7
:102620004FF08000DCD3EAE5104630F8022CA9F820
:1026300000202188288848B1002940F082804EF689
:10264000EE61401AB0FA80F0400904E04EF6EE6008
:10265000081A18BF0120000408F1010140EA04072C
:1026600001438F4280F0A6803868013000F0E98095
:10267000381D884280F09E800368013300F0E080BE
:1026800007F10800884280F095800368013300F06C
:10269000D78007F10C00884280F08C8003680133FA
:1026A00000F0CE8010378F424FF08000DCD3A6E5DB
:1026B000104630F8022CA9F800202188288848B15B
:1026C00000293ED14EF6EE61401AB0FA80F0400982
:1026D00005E000BF4EF6EE60081A18BF01200004A6
:1026E00008F1010140EA040501438D4262D22868E5
:1026F000013000F0BC80281D88425BD203680133A2
:1027000000F0B48005F10800884253D20368013319
:1027100000F0AC8005F10C0088424BD20368013315
:1027200000F0A48010358D424FF08000DFD366E5C5
:10273000104630F8022CA9F800202188288828B1FA
:1027400051B1AB200BB0BDE8F08300BF4EF6EE6098
:10275000081A18BF012005E04EF6EE61401AB0FAE3
:1027600080F04009000408F1010140EA0407014338
:102770008F421FD23868013000F08D80381D8842AA
:1027800018D20368013300F0858007F10800884201
:1027900010D2036801337DD007F10C00884209D2C2
:1027A0000368013376D010378F424FF08000E1D3B9
:1027B00025E500BF80200BB0BDE8F083074601206F
:1027C0003946002301F09AF900287FF418AD47F04C
:1027D000020101203246002301F090F900287FF425
:1027E0000EADFFF7E1B800BF0746012039460023D0
:1027F00001F084F900287FF402AD47F002010120C6
:102800003246002301F07AF900287FF4F8ACFFF794
:10281000A7B900BF074601203946002301F06EF931
:1028200000287FF4ECAC47F002010120324600237F
:1028300001F064F900287FF4E2ACFFF7BBB800BFF9
:10284000074601203946002301F058F900287FF49B
:10285000D6AC47F0020101203246002301F04EF9C8
:1028600000287FF4CCACFFF781B900BF05460120FA
:102870002946002301F042F900287FF4C0AC45F05E
:10288000020101203246002301F038F900287FF4CC
:10289000B6ACA6E4074601203946002301F02EF924
:1028A00000287FF4ACAC47F002010120324600233F
:1028B00001F024F900287FF4A2ACFFF781B80000F2
:1028C00010B54FF6004CC0F6000C4FF60042BCF8B5
:1028D0000030C0F60102128833B1002A1CBFAB20C1
:1028E00010BD4FF4803E01E04FF0000E4FF6FE7336
:1028F000C0F600030CF102024EEA03044EEA020C99
:10290000644519D92288824219D0221F624513D901
:102910001388834212D0A4F1080262450CD91388AF
:1029200083420BD0A4F10C02624505D9138883427F
:1029300004D0103C6445E5D8012010BD144634F89D
:10294000020C0880002010BD2DE9F04F85B04FF635
:1029500000494FF60045C0F60109C0F600052B8876
:10296000B9F800200E46804642B1002B54D14EF6F5
:10297000EE60101AB0FA80F0400904E04EF6EE6006
:10298000181A18BF01204FF6FF7A0004C0F6000A9B
:1029900040EA050440EA0A00844232D2216801314B
:1029A00019D0211D81422CD20A68013212D004F1C3
:1029B0000801814225D20A6801320BD004F10C01D2
:1029C00081421ED20A68013204D010348442E5D319
:1029D00017E000BF0C46012021463246002301F0DB
:1029E0008DF828B180280CD005B0BDE8F08F00BF6D
:1029F00044F0020101204246002301F07FF88028C4
:102A0000F2D1002004902988B9F800004C46AB466A
:102A100031B12C46CB4618B1AB2005B0BDE8F08FE4
:102A2000012021464EF6EE62002301F067F80028EF
:102A3000DAD12988B9F8000040B10029ECD14EF66E
:102A4000EE61401AB0FA80F0400904E04EF6EE6004
:102A5000081A18BF0120000440EA050740EA0A01ED
:102A60008F4280F0A981386801301ED0381D88421D
:102A700080F0A2810268013216D007F10800884276
:102A800080F09A81026801320ED007F10C00884272
:102A900080F092810268013206D010378F424FF0E9
:102AA0008000E0D3A0E700BF074601203946324648
:102AB000002301F023F8002896D147F002010120FD
:102AC0004246002301F01AF800287FF48DAF40F24F
:102AD0006427C2F200077E8846451BD1BE88464562
:102AE00020D1FE88464525D100200090012003908A
:102AF000684604A9CDF808B000F088FF00287FF4EC
:102B000073AF012021460022002300F0F7FF05B03B
:102B1000BDE8F08F2988B9F8000099B1B0B13A88C2
:102B200094E000BF2988B9F8000069B1A0B33A88E1
:102B3000D0E000BF2988B9F8000059B3002855D06B
:102B40003A8803E1002103E0002127E04FF48031BF
:102B5000AAF10100AA1C084311438842BED9028889
:102B6000B24270D0021F8A42B8D91388B34269D0EA
:102B7000A0F108028A42B1D91388B34262D0A0F111
:102B80000C028A42AAD91388B3425BD0103888421B
:102B9000E5D8A3E700212BE04FF48031AAF1010032
:102BA000AA1C0843114388427FF69BAF0288B242B9
:102BB00000F08D80021F8A427FF693AF1388B342E4
:102BC00000F08480A0F108028A427FF68AAF138861
:102BD000B3427BD0A0F10C028A427FF682AF138809
:102BE000B34273D010388842E0D87AE74FF480318E
:102BF000AAF10100AA1C0843114388427FF674AF72
:102C00000288B24200F09F80021F8A427FF66CAFBA
:102C10001388B34200F09680A0F108028A427FF642
:102C200063AF1388B34200F08D80A0F10C028A429A
:102C30007FF65AAF1388B34200F084801038884280
:102C4000DED851E7104630F8022C3A802988B9F8CE
:102C5000000048B100297FF4DFAE4EF6EE61401A65
:102C6000B0FA80F0400904E04EF6EE60081A18BF92
:102C70000120000440EA050740EA0A018F4280F083
:102C80009B803868013000F09C80381D884280F0BD
:102C900093800368013300F0938007F108008842B5
:102CA00080F08A800368013300F08A8007F10C000D
:102CB000884280F081800368013300F08180103702
:102CC0008F424FF08000DCD38EE600BF104630F814
:102CD000022C3A802988B9F8000048B100297FF415
:102CE0009BAE4EF6EE61401AB0FA80F0400904E067
:102CF0004EF6EE60081A18BF0120000440EA0507EE
:102D000040EA0A018F4257D23868013073D0381D2B
:102D1000884251D2036801336CD007F10800884221
:102D20004AD20368013365D007F10C00884243D2D0
:102D3000036801335ED010378F424FF08000E3D339
:102D400052E600BF104630F8022C3A802988B9F8C4
:102D5000000048B100297FF45FAE4EF6EE61401AE4
:102D6000B0FA80F0400904E04EF6EE60081A18BF91
:102D700001200004054340EA0A018D421CD2286864
:102D8000013052D0281D884216D2036801334BD03F
:102D900005F1080088420FD20368013344D005F1E1
:102DA0000C00884208D2036801333DD010358D42B3
:102DB0004FF08000E3D317E6802005B0BDE8F08F28
:102DC000074601203946002300F098FE40F2642CAB
:102DD0000028C2F2000C7FF407AE47F00201012088
:102DE00032460023674600F089FE00287FF4FCADE0
:102DF00074E600BF074601203946002300F07EFE3E
:102E000040F2642C0028C2F2000C7FF4EDAD47F0D4
:102E10000201012032460023674600F06FFE0028C1
:102E20007FF4E2AD5DE600BF0546012029460023A0
:102E300000F064FE00287FF4D7AD45F002010120C8
:102E40003246002300F05AFE00287FF4CDAD4BE659
:102E50004FF4005000F00EBF022000F00BBF000046
:102E6000EFF3108072B600BFFEE7000070B542F2CB
:102E70000C060446C4F2020601F022F83168C907C4
:102E800018D13068800644BF202030603068C0060A
:102E900007D43069C00704D1306840075CBF002008
:102EA00070BD3068C00623D40020316849072BD498
:102EB00034E000BF002C47D00546601C0ED13068BE
:102EC000C007DED03068C0071CBF30685FEAC07042
:102ED000D7D03068C007F2D1D3E700BF00F0F0FFD1
:102EE000401BA04230D83068C007F7D1C9E700BF07
:102EF00040F27040C2F20000C16941F00201C161BC
:102F000010203168490709D540F27041C2F2000132
:102F1000CA6940F0040042F00102CA613169C90780
:102F200002D13060012070BD40F27041C2F2000158
:102F3000CA6942F00402CA61316921F001013161BC
:102F40003060012070BD00BF032070BD70B582B03D
:102F500004460020019094F82400012804D10225A1
:102F6000284602B070BD00BF012084F8240020462E
:102F7000FEF766FB2046FEF7C7FB0546002867D133
:102F8000A06A41F2021188430230A06240F21400AC
:102F9000C2F200000668022001F0D4F8B6FBF0F09F
:102FA000400001900198A0B101980138019001986A
:102FB00078B1019801380190019850B10198013819
:102FC0000190019828B101980138019001980028DA
:102FD000EAD12068816841F00801816000F070FF4B
:102FE00021688A6812070DD4886840F00400886060
:102FF00000F066FF21688968490713D401206FF04B
:10300000030121E0064602E088680007ECD500F0E5
:1030100057FF801B21680B28F6D388680007F3D57B
:103020000EE000BF064602E080684007E6D500F0EB
:1030300047FF811B20680B29F6D381684907F3D528
:10304000012510206FF01201A26A11400843A0620E
:10305000002084F82400284602B070BD70470000AC
:1030600010B581B00022009290F82420012A03D1EB
:103070000221084601B010BD4B680122062B80F8E2
:10308000242017D8D0F800C003EB83035A1F1F2356
:10309000DCF834E003FA02F40B682EEA040403FAC5
:1030A00002F22243CCF83420092B03EB430219D956
:1030B00036E000BFD0F800C00C2B03EB83021DD814
:1030C000233A1F23DCF830E003FA02F40B682EEAFF
:1030D000040403FA02F22243CCF83020092B03EB5C
:1030E00043021DD8DCF81030072489689440A343BC
:1030F00091401943CCF81010002130E0413A1F23D1
:10310000DCF82CE003FA02F40B682EEA040403FA5C
:1031100002F22243CCF82C20092B03EB4302E1D925
:10312000DCF80CE01E3A0724896894402EEA040477
:10313000914023F001022143102ACCF80C100DD14C
:1031400042F20841C4F20101A1F1080294450DD0F8
:10315000816A41F020018162012100E0002100220A
:1031600080F82420084601B010BD00BF0A68120292
:1031700030D40A68102B42F400020A602CD140F2CD
:103180001401C2F2000109684DF68362C4F21B32D9
:10319000A1FB0212910C01EB810149000091009901
:1031A000E1B10099013900910099C9B10099013943
:1031B00000910099B1B1009901390091009999B13C
:1031C000009901390091009900294FF00001E8D1E0
:1031D000C5E700BF0021C2E70021C0E70021BEE72C
:1031E0000021BCE70021BAE70021B8E740F29420B3
:1031F000C2F200000121017070470000704700001A
:103200007047000070B50446006805684668B1065E
:1032100027D515F0020124D0A16AC90603D4A16AFA
:1032200041F40071A162816801F46021B1F5602F61
:1032300010D1217B71B9416821F020014160A06A61
:1032400020F48070A062A06AC00403D4A06A40F099
:103250000100A0622046FFF7C9FF20686FF012014D
:103260000160310633D515F0040130D0A16AC906DA
:1032700003D4A16A41F40051A162816801F4E041E4
:10328000B1F5E04F10D1416821F080014160A06AA2
:1032900020F48050A062A06AC00511D4A06A40F05A
:1032A0000100A0620CE000BF4168490508D48168B4
:1032B00001F46021B1F5602F02D1217B0029E2D019
:1032C0002046FFF7CBFE20686FF00C01016070060E
:1032D0000ED515F0010008BF70BDA06A40F4803023
:1032E000A062204600F0B4F820686FF00101016090
:1032F00070BD0000B0B5002800F0A8800446806AC8
:1033000020B121688868C0070BD114E00020E0627A
:1033100084F82400204600F09DF821688868C007E2
:1033200009D0886820F00100886000F0C9FD21689C
:103330008A68D20726D1A06AC0063AD4A06A41F2B0
:10334000021290430230A062E069D4E9013240EAFF
:10335000030C531EB3FA83F35D091346B2F5807F65
:1033600018BF2B02207D257B01284CEA450030D177
:1033700035B3A56A45F02005A562E56A45F001056B
:10338000E56226E0054602E08868C007D3D000F079
:1033900097FD401B21680328F6D38868C007F3D047
:1033A000A06A40F01000A062E06A40F00100E06214
:1033B000A06AA06A40F01000A0620120B0BD00BF6A
:1033C000D4F818C04EF60005CFF6FF7505EB4C3566
:1033D0002B434D68B2F5807F25F4694543EA050328
:1033E0004B608B684FF2FD75CFF6E17503EA05037C
:1033F00043EA00038B6001D0012A07D12269002330
:10340000CFF6F07303EB025201E000BF0022CB6A5B
:1034100023F470031A43CA62896840F6FE62CFF64D
:103420001F721140814207D10020E062A16A01228F
:1034300062F30101A162B0BDA06A40F0100020F06B
:103440000200A062E06A40F00100E0620120B0BD2D
:103450007047000070B586B0044640F60000C4F224
:103460000100216800F5E05200269142059604967D
:1034700002D006B070BD00BF41F21801C4F20201D3
:103480000A6842F400720A600A6802F4007201924B
:10349000019A0A6842F004020A60096801F0040116
:1034A00001910199F02102910321039102A900F0F9
:1034B000EDFB40F2D8250820C2F20005C4F202005C
:1034C0004FF48072C5E9000605F1100080214FF429
:1034D00080634FF0200C80E80C102846C5E902619B
:1034E000EE6100F0EDF9002818BFFFF7B9FC1220DB
:1034F0000121002225626C6200F078FD122000F0AC
:1035000061FD06B070BD000070B515460446006848
:1035100042F60002C4F2010290420E4605D042F289
:103520000041C4F20101884209D142F20440C4F2D0
:103530000100006810F4702F1CBF012070BD94F8CA
:103540002400012804BF022070BD012084F824005B
:103550002046FEF7D9F818B1002184F8241070BD78
:1035600042F204402168A26AC4F2010040F60173ED
:103570009A4300F57F7302F580729942A26243D0AC
:10358000A06A20F48010A0624868400504D5A06AB3
:10359000012262F30D30A062A26A0020D2044FF033
:1035A000000244BFE26A22F00602E26284F82400CC
:1035B000206A41F29562C0F6000241F2017341F2C5
:1035C000E96C00F1280EC0F60003C0F6000C8EE88E
:1035D0000C106FF002020A608A682B4642F4807277
:1035E0008A604C31324600F0AFF92068816801F4FE
:1035F00060228168B2F5602F0CBF41F4A00141F454
:1036000080118160002070BD026812F4702FB7D065
:10361000A26A42F48012A26200684005BCD5B6E7F7
:10362000B0B5044690F82400012804BF0220B0BDC4
:103630000120216884F824008868C00709D08868C0
:1036400020F00100886000F03BFC21688A68D20706
:103650001AD1886820F480708860206A90F8211060
:1036600002290BD100F038F8A16A48B341F04001BB
:10367000A162002184F82410B0BD00BF0020002109
:1036800084F82410B0BD00BF054602E08868C0077A
:10369000DFD000F015FC401B21680328F6D38868B2
:1036A000C007F3D0A06A40F01000A062E06A40F0CA
:1036B0000100E0620120002184F82410B0BD00BFA9
:1036C00041F2011021EA00000130A0620020002137
:1036D00084F82410B0BD0000014690F821000228B3
:1036E00016D10868D1E90FC3026822F00E02026009
:1036F000026822F001020260012000FA03F2CCF815
:10370000042081F821000020002281F82020704749
:10371000042088630120002281F8202070470000E7
:1037200010B5D0E90FCE0168DCF800300A6823FA42
:103730000EF35C072AD512F0040427D00A6892061B
:1037400003D40A6822F004020A602F22C4F20202A3
:10375000914240F20402C4F202025BDD3023C4F263
:103760000203994272D04423C4F20203994273D0F7
:103770005823C4F20203994240F07A804FF4802328
:103780001360C16A002940F098806FE09C0727D53C
:1037900012F0020424D00A68920606D40A6822F0C5
:1037A0000A020A60012280F821202F22C4F20202BC
:1037B000914240F20402C4F202023BDD3023C4F223
:1037C0000203994260D04423C4F2020399425FD0BD
:1037D0005823C4F20203994260D14FF4003365E0EC
:1037E0001B0743D512F0080208BF10BD0A6822F07B
:1037F0000E020A60012101FA0EF2CCF80420816366
:1038000080F82110016B0022002980F8202054D17B
:103810002CE000BF0823C4F20203994222D01C23EB
:10382000C4F20203994223D140231360C16A0029E4
:1038300043D11BE00823C4F2020399422CD01C237D
:10384000C4F20203994229D120232FE04FF4806370
:103850001360C16A89BB09E04FF480431360C16AF9
:1038600059BB03E004231360C16A31BB10BD00BF24
:1038700002F168044FF08063A14208BF4FF4800357
:103880001360C16AC9B9F1E74FF400730EE000BFDD
:103890004FF400530AE000BF022307E002F168047E
:1038A0004FF00073A14208BF4FF400131360816A08
:1038B0000022002980F82020D8D0BDE81040084719
:1038C000014600284FF0010008BF70472DE9F04382
:1038D000D1F800C04FF6F873CBF6FD734CF6CD422D
:1038E0006344CCF6CC42A3FB02236FF0030707EA44
:1038F00093030027C4F2020701F10C09C1E90F7319
:103900000223D1E9012E99E87002D1F81C8081F8D8
:103910002130DCF8003043F6F077BB431A4342EA2B
:103920000E0222432A43324342EA090242EA0802D3
:10393000CCF8002000228A6381F8210081F8202041
:103940000020BDE8F0437047F0B590F820C0BCF10E
:10395000010F32D04FF0010E80F820E090F821C026
:10396000BCF1010F26D14FF0020C80F821C04FF0BE
:10397000000CC0F838C0D0E900C4C56AC66BDCF8DA
:103980000070102C27F00107CCF80070006C0EFAC4
:1039900000F070600846CCF8043004BF10460A46B8
:1039A000CCF80800CCF80C20DCF8000045B140F061
:1039B0000E000DE0002180F820100220F0BD00BFB5
:1039C00020F00400CCF80000DCF8000040F00A0011
:1039D000CCF80000DCF8000040F00100CCF800005A
:1039E0000020F0BDB0B5044600F06AFA054640F28A
:1039F0000C00C2F200000078611C18BF044400BF34
:103A000000F05EFA401BA042FAD3B0BD2DE9F043AE
:103A100081B040F27046C2F20006327E012A03D124
:103A2000022001B0BDE8F083054601202C68307605
:103A30004CF250308846FFF719FA022C1CD10028AE
:103A40004ED1002042F21004F061C4F2020420685A
:103A500040F004002060206840F0400020604CF2FC
:103A60005030FFF703FA216821F0040121600021A2
:103A7000317601B0BDE8F08390BB4FF0FF30C8F85D
:103A80000000D5E9027007EB8020874228D242F27D
:103A90001004C4F202044FF0000900BFC6F81C90E5
:103AA000206840F0020020606760206840F040001D
:103AB00020604CF25030FFF7D9F9216821F0020163
:103AC000216098B9D5E9020107F5806700EB8120F4
:103AD0008742E3D300200021317601B0BDE8F083B6
:103AE00001200021317601B0BDE8F083C8F80070F4
:103AF0000021317601B0BDE8F08300002DE9F04FE0
:103B000081B040F27049C2F20009924699F818203B
:103B1000012A03D1022001B0BDE8F08F80460120C8
:103B200089F818004CF250309B460E46FFF79EF97C
:103B3000A0BB404642F21007B8F1020F18BF0420A4
:103B4000C4F20207B8F1010F08BF404645424FF0EA
:103B500000080024C4F12001C9F81C802AFA04F0EE
:103B60000BFA01F13A680843B4F1200158BF2BFA6F
:103B700001F042F00101396026F8020B4CF250309E
:103B8000FFF774F93968013521F0010248F10001AD
:103B90003A6018B9002904F11004DBD0002189F83B
:103BA000181001B0BDE8F08F42F20400C4F2020028
:103BB000C16809065CBF0020704740F22311C4F2BF
:103BC0006751016048F6AB11CCF6EF510160C06857
:103BD000C0B2C0097047000080B5B0F5005F02D0E8
:103BE000022818BF80BD41F20000C4F20200016843
:103BF00041F0010101600168890709D40168890762
:103C00005CBF01685FEA817102D401688907F2D55F
:103C1000016841F0807101600168890109D401687F
:103C200089015CBF01685FEA811102D401688901E2
:103C3000F2D54168022262F301014160416801F05E
:103C40000C0108290ED0416801F00C01082909D0A7
:103C5000416801F00C01082904D0416801F00C0111
:103C60000829EBD101F022FC03F080FEBDE8804082
:103C700000F0F8B940F21441C4F201010A680242AE
:103C800014BF08607047FFF7A7BF00002DE9F04F91
:103C900082B00E68002E00F0038141F20042C4F2AF
:103CA0000102042340F2004E904208BF03234FF666
:103CB000FF7CC4F2010E009300240123C1F2100C1A
:103CC0004FF0000A4FF0000949E000BF012704F05F
:103CD0000C030F229A402BEA020207FA03F34FEA81
:103CE0009A051A4346F82520D1F804B040F20C4555
:103CF0005FEACB22DEF8082054BF22EA080242EA3B
:103D00000802C4F20105CEF808202A685FEA8B2376
:103D100054BF22EA080242EA08022A605FEA8B33B3
:103D2000DEF8042054BF22EA080242EA08025FEAF1
:103D3000CB33CEF80420DEF800204FF0010354BF4F
:103D400022EA080242EA0802CEF800200E680AF1D0
:103D5000010A36FA0AF204F1040400F0A18003FA21
:103D60000AF816EA080FF1D04E68664512DC122EEA
:103D700056D8DFE806F0350B45495555555555558C
:103D8000555555555555554D510000BFD1F80C901E
:103D900046E000BF4FF6FF72C1F2210296420FDCEF
:103DA0000022C1F2110296421AD00022C1F2120280
:103DB000964215D00022C1F22102964210D02FE087
:103DC0000022C1F2220296420AD00022C1F2310240
:103DD000964205D00022C1F23202964220D100BFA5
:103DE0008A684AB1012A14BFC0F81480C0F8108054
:103DF0004FF0080914E000BF4FF0040910E000BFC5
:103E0000CA6802F108090BE04FF0000908E000BFA2
:103E1000CA6802F1040903E0CA6802F10C0900BF94
:103E200022460646BAF1080F24BF203A0436376806
:103E30000F25954027EA050509FA02F22A43326068
:103E4000CA79D2067FF582AF41F21803C4F20203A9
:103E50001A68AEF57E7642F001021A601A6802F026
:103E600001020192019A2AF0030256F802B040F6CC
:103E70000002C4F20102904210D040F60042C4F2A7
:103E8000010290423FF422AF41F20002C4F201026B
:103E9000009F904208BF022719E700BF002716E7DE
:103EA00002B0BDE8F08F00008068084018BF012014
:103EB00070470000002A08BF090401617047000034
:103EC00040F29440C2F200000068704740F20C00DB
:103ED00040F29441C2F20000C2F2000100780A6888
:103EE000104408607047000080B542F20000C4F240
:103EF0000200016841F010010160032000F0A2F807
:103F00000F2000F005F800F027F8002080BD000029
:103F100070B540F20C06C2F2000640F2140132788D
:103F2000C2F200014FF47A730968B3FBF2F204465F
:103F3000B1FBF2F1084601F0D5FA0F2C4FF0010564
:103F400008D838B94FF0FF3021460022002500F094
:103F50004DF87460284670BD82B041F21800C4F27A
:103F600002000168022241F001010160016801F0D4
:103F7000010101910199416841F08051416040681F
:103F800000F08050009000980420C4F20100016805
:103F900062F31A61016002B070470000002848BF58
:103FA0007047C1B200F01F00012202FA00F04EF289
:103FB0008022CEF2000242EAD10121F00301086022
:103FC00070470000002848BF7047C1B200F01F00D2
:103FD000012202FA00F04EF20012CEF2000242EA92
:103FE000D10121F0030108607047000010B54EF6C2
:103FF0000C5CCEF2000CDCF80030C3F3022E8EF025
:104000000704042C28BF0424BEF103034FF0FF3E35
:104010000EFA04F438BF0023A14399400EFA03F3CB
:104020009A43114300F00F0200F160430901043A82
:1040300003F564436244002848BF02F10C03197081
:1040400010BD00004EF60C51CEF200010A684FF68A
:10405000FF031A4060F30A2242F0806040F0FD70D6
:10406000086070474EF61050CEF20000016821F053
:10407000020101607047000090FAA0F08021B0FAC0
:1040800080F0C4F20E21002241F820207047000089
:104090002020C4F20E200121016070474EF610501E
:1040A000CEF20000016841F002010160704700009B
:1040B00090FAA0F08021B0FA80F0C4F20E21012223
:1040C00041F820207047000047F20000C4F20000D1
:1040D000016841F0020101604EF61050CEF200007E
:1040E000016841F00401016030BF704710B547F22C
:1040F0000002C4F2000213684EF6105423F00203CB
:1041000013601368CEF2000423F00103184310601B
:104110002068012940F00400206009D1BFF34F8FCF
:1041200030BFBFF36F8F206820F00400206010BD07
:1041300040BF02F03BFE02F039FE206820F0040090
:10414000206010BD80B5012818D0022836D0102874
:1041500032D141F20401C4F202010A6851F8040CA0
:10416000C00129D5C2F383402DA3185CD2033DD4EE
:1041700040F60012C0F23D02504343E041F2040019
:10418000C4F20200C16940F202320A40B2F5817FF6
:1041900004BF4FF4004080BD01F44071B1F5407F91
:1041A0001CD0B1F5007F07D1006A49F64041800775
:1041B00001EAE07080BD00BF002080BD00F0A0F9E2
:1041C00041F20401C4F2020109680222C1F3813103
:1041D00002EB4101B0FBF1F080BD00BF50F8040CD0
:1041E0004FF22441800301EAE07080BD0A6810A309
:1041F000C2F340429A5C41F20023C0F27A03B3FB5F
:10420000F2F250430968490248BF80BD4AF6AB212B
:104210004000CAF6AA21A0FB0101480880BD00BFEA
:1042200002030405060708090A0B0C0D0E0F1010F7
:10423000010200002DE9F04182B00446007841F20D
:104240001C06C007C4F202064AD0306810F080583D
:1042500008D1306840F080503060306800F0805005
:104260000190019847F20007C4F200073868C005C2
:1042700012D4386840F480703860FFF721FE05469C
:104280003868C00508D4FFF71BFE401B6428F7D927
:10429000032002B0BDE8F081706810F4407012D0C5
:1042A000616801F4407188420DD0706840F240426C
:1042B000C4F24222012320F4407113600023C0079E
:1042C000136071602AD17068616820F440700843FF
:1042D000B8F1000F706003D1306820F0805030607A
:1042E0002068810707D556F8181CA26821F44041C0
:1042F000114346F8181CC00604D4002002B0BDE8E3
:10430000F08100BF56F8180CE16820F480000843E3
:1043100046F8180C002002B0BDE8F081FFF7D0FD90
:10432000054641F2883700BF70688007CBD4FFF79D
:10433000C7FD401BB8424FF00300F5D9EBE7000082
:104340002DE9F04381B0002800F0858042F200089A
:10435000C4F202080446D8F800000D4600F0070039
:1043600088420CD2D8F8000020F007002843C8F893
:104370000000D8F8000000F00700A8426BD12068C8
:1043800041F204098107C4F2020917D5410705D596
:10439000D9F8001041F4E061C9F80010010705D513
:1043A000D9F8001041F46051C9F80010D9F8001094
:1043B000A26821F0F0011143C9F80010C00741D1F3
:1043C000D8F8000000F00700A8420CD9D8F8000087
:1043D00020F007002843C8F80000D8F8000000F0DB
:1043E0000700A84237D12068410707D5D9F8001047
:1043F000E26821F4E0611143C9F80010000708D514
:10440000D9F80000216920F4605040EAC100C9F8E1
:104410000000D9F8002002F00C00082841F200202A
:10442000C0F27A0050D149F67943C2F38341C0F615
:104430000003595CD2033BD440F60010C0F23D00AB
:10444000484341E0606802280AD001282AD159F87F
:10445000041C890308D4012001B0BDE8F08300BF2B
:1044600059F8041C8901F6D5D9F8001021F0030190
:104470000843C9F80000FFF723FD064641F28837DC
:10448000D9F80000616800F00C00B0EB810F97D004
:10449000FFF716FD801BB842F2D9032001B0BDE83A
:1044A000F08300BF59F8041C8907D4D5DCE700BFAE
:1044B000D9F8002049F66043C2F34042C0F6000339
:1044C0009A5C4843B0FBF2F0D9F8001049F6484234
:1044D000C1F30311C0F60002515C40F2140220FA4D
:1044E00001F140F21000C2F200000068C2F20002C6
:1044F0001160FFF70DFD002001B0BDE8F083000062
:1045000040F2140041F20401C2F20000C4F20201C0
:104510000068096849F65842C1F3C221C0F600029A
:10452000515CC840704700002DE9F04182B000287E
:1045300068D00446007841F20006C007C4F20206C3
:1045400025D0706800F00C0004281BD0706800F0C3
:104550000C00082802D17068C00313D460680028DA
:1045600000F06881B0F5A02F00F07C81B0F5803FAD
:1045700000F07C81306820F480303060306820F4B6
:10458000802076E13068800301D56068D0B3207860
:10459000800718D5706810F00C0F07D0706800F015
:1045A0000C0008286ED17068C0036BD43068800797
:1045B00002D52069012825D13068616920F0F80012
:1045C00040EAC1003060207800071FD420784007FF
:1045D00032D4E56995B1706800F00C00082840F00D
:1045E0008F80012D0ED07068216A00F480328A42DB
:1045F00008D1616A00F47010884203D1002002B033
:10460000BDE8F081012002B0BDE8F081A06900287A
:1046100062D00020C4F242200121C0F88014FFF7CC
:104620004FFC0546706A800700F18C80FFF748FC5C
:10463000401B0228F6D92AE1F06910F0805808D111
:10464000F06940F08050F061F06900F08050009017
:10465000009847F20007C4F200073868C00529D463
:10466000386840F480703860FFF72AFC054600BFC8
:104670003868C0051ED4FFF723FC401B6428F7D917
:1046800005E100BF2069002840F20000C4F242208A
:1046900000F0828001210160FFF712FC054600BF97
:1046A000306880073FF588AFFFF70AFC401B0228FF
:1046B000F6D9ECE0E068002800F08080052800F0E2
:1046C0009780012800F09880306A20F00100306265
:1046D000306A20F0040092E00020C4F24220002161
:1046E000C0F88014FFF7ECFB054600BF706A800736
:1046F0007FF56CAFFFF7E4FB401B0228F6D9C6E05C
:104700000027C4F2422700203866FFF7D9FB022DAC
:1047100005460BD13068800140F1BE80FFF7D0FB29
:10472000401B02284FF00300F4D968E7306880018D
:104730007FF564AFFFF7C4FB401B02284FF0030076
:10474000F4D95CE740F21400C2F20000006844F6BD
:10475000D351C1F26201A0FB0101480A019000BFE0
:1047600000BF0198411E002801913FF42FAF00BF08
:104770000198411E002801913FF428AF00BF019825
:10478000411E002801913FF421AF00BF0198411E56
:1047900000280191E4D119E700210160FFF790FBA7
:1047A000054600BF306880077FF50DAFFFF788FB37
:1047B000401B02284FF00300F4D920E7306A20F0B4
:1047C00001003062306A20F004003062FFF778FBAD
:1047D000054641F2883700BF306A800720D5FFF7D1
:1047E0006FFB401BB8424FF00300F5D907E700BF4D
:1047F000306A40F004003062306A40F001003062FC
:10480000FFF75EFB054641F2883700BF306A80073C
:1048100006D4FFF755FB401BB842F7D937E000BF7D
:10482000B8F1000F7FF4D5AEF06920F08050F06150
:10483000CFE600BF306820F480303060306820F46C
:1048400080203060FFF73CFB054600BF30688003E6
:104850007FF59DAEFFF734FB401B64284FF003004B
:10486000F4D9CCE6306840F480203060306840F401
:1048700080303060FFF724FB054600BF30688003BE
:104880003FF585AEFFF71CFB401B6428F6D90320DB
:1048900002B0BDE8F08100BF206AB0F5803F05D1CD
:1048A0007168A26821F40031114371607168626A15
:1048B00021F4741111430843706001203866FFF73A
:1048C000FFFA0446306880013FF598AEFFF7F8FA2A
:1048D000001B02284FF00300F4D990E640F29E201E
:1048E000C2F200000121C170427901324271427965
:1048F000022A22BF0022427101718179002908BF7A
:10490000704781790139817170470000704700005C
:1049100010B5044600680168C9071CBF41685FEA1A
:10492000C17101D110BD00BF406840070AD42046C4
:10493000FFF7D4FF012060742068416821F0010175
:10494000416010BD2046FFF7E1FF20686FF00401D1
:10495000416004216174416821F00101416010BD92
:104960002DE9F04182B041F20001C4F202010A686F
:10497000044642F0010008600868800709D408680E
:1049800080075CBF08685FEA807002D4086880070F
:10499000F2D5086840F0807008600868800109D48A
:1049A000086880015CBF08685FEA801002D408686C
:1049B0008001F2D54868022262F30100486000BF1E
:1049C000486800F00C0008280ED0486800F00C0081
:1049D000082809D0486800F00C00082804D048686E
:1049E00000F00C000828EBD100F060FD40F28825B3
:1049F000C2F20005002040F29F2868700126C2F232
:104A0000000802202E7088F80000FFF72BFB40F210
:104A10007A20C2F2000040F27C210088C2F200013C
:104A200040F239020988C2F2000202EB4000475C02
:104A3000204600F01FFD01A92046002200F0F0F8FA
:104A400069462046002200F08BF89DF804009DF88E
:104A500005104FF461639DF806205843C1EB011126
:104A600000EB8100104480B2B84204D32E7088F865
:104A70000060FFF7F7FA02B0BDE8F08110B5044618
:104A800000680168890744BF40685FEA807009D404
:104A900040F21440C4F201004FF4003101600120E3
:104AA000607410BD2046FFF75BFF2068416821F06D
:104AB00002014160ECE70000B0B5E8B10446007CBB
:104AC00001284FF0020008BFB0BD012121746074BD
:104AD0002068016821F002010160FFF7F1F9054645
:104AE00020684168890609D4FFF7EAF9401BB0F550
:104AF0007A7FF5D928E000BF0120B0BD416841F0C0
:104B000010014160416821F0020141604FF6FF71E0
:104B10000162416240F20041C4F201010A6822F4DC
:104B200000320A60416821F010014160FFF7C8F9C6
:104B3000054600BF2068406880060BD4FFF7C0F927
:104B4000401BB0F57A7FF5D9012004216174002162
:104B50002174B0BD00200121617400212174B0BD19
:104B600070B582B0064600208DF80600ADF804004E
:104B7000002E4FF001004DD00C4600294AD01546BA
:104B800001A93046002200F04BF818B1012002B014
:104B900070BD00BF337B717BB07BF27B2370E27012
:104BA0006170A070C5B3A2F10A03DEB24FF0CD0C64
:104BB00006FB0CF6F50A05EB8505A3EB450301257D
:104BC00005EBD626092A88BF43EA0612E270A1F156
:104BD0000A02D3B203FB0CF3DE0A06EB8606A2EB55
:104BE000460205EBD323092988BF42EA031161700D
:104BF000A0F10A01CAB202FB0CF2D30A03EB830351
:104C0000A1EB430105EBD222092888BF41EA02103B
:104C1000A070002002B070BD002002B070BD000086
:104C20002DE9F047064600284FF0010000F0A5806E
:104C30000C46002900F0A18030684168490700F166
:104C4000D98091468269C169836948F6890583EAFA
:104C500002073F041CBFC1691A4689B241EA0241FA
:104C60004BF2C532C9F2A212A1FB0223DA0A4FF4B9
:104C7000616302FB13139FB26F437D0D65702D01BD
:104C8000A5EB5757A3EB870345F28017C0F2010746
:104C9000B942A37036D344F20753CCF22E23A1FBC2
:104CA00003374AF6AB23CAF6AA23A2FB03352B0926
:104CB00003EB4303A2EBC3022270026A406A4FEA8D
:104CC000174880B240EA0240451A98BF4FF0FF35BE
:104CD000421C4AF68062CFF6FE7208FB021A08BF39
:104CE0000546FFF7EDF8074630684168890647D466
:104CF000FFF7E6F8C01BB0F57A7FF5D90120BDE8D3
:104D0000F08700BF2270B9F1000F00F09F8021787A
:104D1000CD26A1F10A03DFB27743FD0A05EB850535
:104D20006278A3EB45030125A07805EBD727092975
:104D300088BF43EA07112170A2F10A01CBB2734385
:104D4000DF0A07EB8707A1EB470105EBD323092A0D
:104D500088BF41EA0312A0F10A016270CAB272432D
:104D6000D30A03EB8303A1EB430105EBD22209280D
:104D700088BF41EA0210A0700020BDE8F08700BFA4
:104D8000416841F0100141604FEA1A4181611FFA08
:104D90008AF1C161416821F010014160FFF790F88C
:104DA000074600BF30684068800609D4FFF788F8DE
:104DB000C01BB0F57A7FF5D90120BDE8F08700BFB0
:104DC000681C11D05544FFF77BF8074630684168EE
:104DD000890613D4FFF774F8C01BB0F57A7F4FF043
:104DE0000100F3D9C9E700BF30464FF0FF3102F0B0
:104DF0006BF918B30120BDE8F08700BF416841F0AE
:104E000010014160290C0162A9B24162416821F0A0
:104E100010014160FFF754F8074600BF3068406852
:104E200080060BD4FFF74CF8C01BB0F57A7F4FF02B
:104E3000010088BFBDE8F087F0E700BF304641467B
:104E400001F0E6FFB9F1000F7FF461AF0020BDE88B
:104E5000F087000070B5002866D00446407C20B979
:104E600000202074204600F06FF802206074206853
:104E7000416821F008014160FFF722F8064600BFB3
:104E800020684568FFF71CF8290705460ED4A81BC3
:104E9000B0F57A7FF4D9012504206074284670BDEE
:104EA000FFF70EF8401BB0F57A7FF4D82168486808
:104EB0008006F5D5486846F62C4240F01000486060
:104EC0004868C4F2000220F007004860A06818B1EA
:104ED000536823F001035360136823F4607318438D
:104EE00010606068421C06D101200125FFF72AF9F5
:104EF00030B321680138C0F3034280B28A60C860D1
:104F0000486820F010004860FEF7DAFF054600BF51
:104F100020684068800609D4FEF7D2FF401BB0F538
:104F20007A7FF5D9B7E700BF012070BD40F20110CC
:104F30000025A4F80D000120E5736074284670BDBB
:104F400004206074284670BD80B582B0006842F6C7
:104F50000001C4F2000188421CBF02B080BDFFF70F
:104F600097F841F21C00C4F202000168002241F0EF
:104F7000006101600068012100F00060019001986B
:104F800040F23C40C4F24220016003200021FFF7C0
:104F90002DF80320FFF716F8292000210022FFF743
:104FA00025F8292002B0BDE88040FFF70BB80000CB
:104FB00070B582B0044600208DF80600ADF80400FC
:104FC0004FF001009CB10D4689B1207C01284FF0C3
:104FD00002000CD0012116462174607401A92046FC
:104FE0000022FFF71DFE00284FF0010002D002B0A2
:104FF00070BD00BF9DF804009DF805204FF461616D
:105000009DF806304843C2EB021200EB82002A787A
:105010001844FEB1130903EB830302F00F0202EB05
:105020004302D2B251436A78AB78160906EB860682
:1050300002F00F0202EB4602D2B2C2EB021201EB07
:1050400082011A0902EB820203F00F0303EB420212
:1050500007E000BF6B785143AA78C3EB031301EB61
:105060008301D2B28E1806F58031864238BF01F531
:10507000A346FEF725FF054620684168890607D448
:10508000FEF71EFF401BB0F57A7FF5D91AE000BF8E
:10509000416841F010014160310C0162B1B24162DE
:1050A000416821F010014160FEF70AFF054600BF8C
:1050B00020684168890609D4FEF702FF401BB0F55D
:1050C0007A7FF5D90120042116E000BF416821F064
:1050D00002014160016841F00201016040F20040BC
:1050E000C4F20100016841F400310160816841F4BB
:1050F000003181600020012161740021217402B01F
:1051000070BD0000F0B581B0044600284FF00100EA
:1051100018BF002902D101B0F0BD00BF207C0128DA
:105120004FF00200F7D0012323746074CB78BAB13A
:10513000180900EB800003F00F0202EB40034878EF
:105140008A78070907EB870700F00F0000EB470795
:10515000100900EB800002F00F0202EB400001E0BA
:105160004F788878022FDAB2E3736773A0730FD891
:1051700017237B4348F63967C3F6E307A3FB0737DA
:10518000C7F3470C02F2CF7340F2D47E0CE000BFAD
:1051900047F2D916FFB2C0F21406774302F5FA635C
:1051A0004FEAD74C40F2D27EC0B210449D0841F283
:1051B0007B4770446F431D0940F63E2600EB930089
:1051C0007543A0EB574000EB1540604482B242F2B9
:1051D00093435A43A0EB12439BB25B0803EB12428A
:1051E0009208A2EBC20210442268207308709169F1
:1051F000D0699369002683EA01073F041CBFD06988
:10520000194680B240EA014045F69071C0F20101B2
:1052100088421BD344F20751CCF22E21A0FB01128D
:10522000110C40F2A3225143A0EBC117FEF748FE38
:10523000054600BF2068416889060DD4FEF740FE90
:10524000401BB0F57A7FF5D920E000BF0121002096
:105250006174267401B0F0BD416841F010014160F5
:10526000390C8161B9B2C161416821F0100141601E
:10527000FEF726FE054600BF2068416889060BD46C
:10528000FEF71EFE401BB0F57A7FF5D90120042100
:105290006174267401B0F0BD016A406A80B240EAD0
:1052A0000140B84230D200F5803000F5A347FEF748
:1052B00007FE054620684168890607D4FEF700FE10
:1052C000401BB0F57A7FF5D9E0E700BF416841F0B7
:1052D00010014160390C0162B9B24162416821F0AC
:1052E00010014160FEF7ECFD05462068406880062D
:1052F0000AD4FEF7E5FD411B0120B1F57A7F4FF09E
:105300000401F2D9A4E700BF0020012161742674D2
:1053100001B0F0BD70B5044600284FF0010018BF81
:10532000002901D170BD00BF207C01284FF0020090
:1053300008BF70BD012323746074087802B30209AA
:1053400002EB820200F00F0000EB4200C0B24FF40B
:10535000616250434A788978130903EB830302F0B2
:105360000F0202EB4302D2B2C2EB021200EB820048
:105370000A0902EB820201F00F0101EB420108E091
:105380004FF4616250434A788978C2EB021200EB15
:105390008200C9B24618FEF793FD054620684168B1
:1053A000890607D4FEF78CFD401BB0F57A7FF5D94E
:1053B0001AE000BF416841F010014160310C816189
:1053C000B1B2C161416821F010014160FEF778FD82
:1053D000054600BF2068416889060BD4FEF770FDC2
:1053E000401BB0F57A7FF5D90120042161740021BA
:1053F000217470BD416821F005014160016A406A75
:1054000080B240EA0140B0422ED200F5803000F573
:10541000A346FEF755FD054620684168890607D476
:10542000FEF74EFD401BB0F57A7FF5D9DCE700BFF3
:10543000416841F010014160310C0162B1B241623A
:10544000416821F010014160FEF73AFD054600BFBA
:1054500020684068800607D4FEF732FD401BB0F597
:105460007A7FF5D9C0E700BF0020012161740021D7
:10547000217470BDB0B5A8B104460068416821F040
:1054800008014160FEF71CFD054600BF206840682A
:10549000000709D4FEF714FD401BB0F57A7FF5D95B
:1054A0000320B0BD0120B0BD0020B0BD4EF2100001
:1054B000CEF20000016841F0020101607047000077
:1054C00040F29E20C2F20000018901310181018970
:1054D000B1F57A7F38BF70470021018101218170C9
:1054E00070470000411E0020B0EB116F1CBF01206F
:1054F00070474EF21002CEF2000251604EF6235178
:10550000CEF20001F0230B7007219060116070470C
:10551000FFF7D6BF4EF21000CEF20000016821F076
:1055200002010160704700007047000070470000F2
:10553000B0B590F83C20012A04BF0220B0BD01F1B3
:1055400008053CCDD1E900CE23F47C5322F47052FF
:105550001A432EF4F0431A432CF4E0431A4324F484
:10556000C0431A432A43C96922F4804203681143A5
:105570005964002180F83C100846B0BD10B590F881
:105580003C20012A4FF0020233D080F83D2002680F
:10559000D2F804E0D2F808C00C682EF07003234360
:1055A00040F2FF74C4F20004A24253600ADCB2F17C
:1055B000804F13D040F20043C4F200039A420DD052
:1055C00011E000BF42F60043C4F201039A4205D045
:1055D00040F60003C4F200039A4204D149682CF05B
:1055E0008003194391600121002280F83D1080F86A
:1055F0003C20104610BD0000002804BF0120704769
:1056000010B5044690F83D0028B9002084F83C000D
:10561000204600F067F8022084F83D00206840F240
:10562000FF730268C4F2000342F6004C9842C4F2D1
:10563000010C15DCB0F1804F1AD040F20041C4F2E9
:105640000001884214D0984218DCB0F1804F1DD080
:1056500040F20041C4F20001884217D01AE000BFB6
:10566000604505D040F60001C4F200018842EAD14D
:10567000A16822F070020A439842E6DD604505D039
:1056800040F60001C4F20001884203D1216922F4EE
:1056900040720A43A36922F08001D4F804E0E26872
:1056A000194360450160C262C0F828E002D1616917
:1056B000CCF8301001214161002084F8461084F8B4
:1056C0003E1084F83F1084F8401084F8411084F8AC
:1056D000421084F8431084F8441084F8451084F88C
:1056E0003D1010BD80B584B0006840F60001C4F2E2
:1056F0000001884218D040F20041C4F20001884203
:105700002AD0B0F1804F0CD141F21C00C4F202004B
:10571000016841F001010160006800F001000390A0
:10572000039804B080BD00BF41F21C00C4F2020027
:105730000168002241F0040101600068022100F0CC
:105740000400019001981E20FEF750FC1E2004B0BA
:10575000BDE88040FEF736BC41F21C00C4F20200F6
:105760000168002241F0020101600068032100F09D
:105770000200029002981D20FEF738FC1D2004B0A4
:10578000BDE88040FEF71EBC90F83D1001291CBF0B
:1057900001207047022180F83D10006840F2FF723E
:1057A000C168C4F20002904241F00101C16009DC0D
:1057B000B0F1804F12D040F20041C4F200018842A3
:1057C0000CD012E042F60041C4F20101884205D03B
:1057D00040F60001C4F20001884206D1816801F060
:1057E0000701062904BF00207047016841F001014C
:1057F00001600020704700000146006841F211136B
:10580000026A1A4204D00122002081F83D2070472C
:10581000026A40F244431A42F5D1026822F00102C2
:1058200002600122002081F83D2070470146006897
:1058300041F21113C26822F00102C260026A1A42E8
:1058400004D00122002081F83D207047026A40F216
:1058500044431A42F5D1026822F00102026001229B
:10586000002081F83D20704780B590F83C20012A47
:105870004FF0020200F0C28080F83D20D0F800C056
:105880004FF67772DCF8083023EA0202CCF80820E1
:105890000B684F2B28DC1F2B44DD202B45D0302BF1
:1058A00043D0402B40F0AC80D1F804E0C968DCF86C
:1058B0002030DCF8202022F00102CCF82020DCF897
:1058C000182022F0F00242EA011123F00A0242EA13
:1058D0000E02CCF81810CCF82020DCF8081041F0AB
:1058E000470121F0300180E06F2B27DDB3F5005F29
:1058F00048D0B3F5805F7AD0702B40F08180D1E939
:1059000001E3C968DCF8082043EA0E0322F47F4271
:1059100043EA01211143CCF80810DCF8081041F0EB
:10592000770162E00BB1102B6AD1DCF8081021F08E
:105930007001194341F0070157E000BF502B35D0EB
:10594000602B5DD1D1F804E0C968DCF82030DCF8C8
:10595000202022F01002CCF82020DCF8182022F4BD
:10596000704242EA013123F0A00242EA0E12CCF862
:105970001810CCF82020DCF8081041F0670121F065
:10598000100132E0D1E901E3C968DCF8082043EAFC
:105990000E0322F47F4243EA01211143CCF80810A0
:1059A000DCF8081041F480411FE000BFD1F804E0AA
:1059B000C968DCF82030DCF8202022F00102CCF8A5
:1059C0002020DCF8182022F0F00242EA011123F036
:1059D0000A0242EA0E02CCF81810CCF82020DCF8BB
:1059E000081041F0570121F02001CCF808100022E6
:1059F000012180F83D10002180F83C10104680BD48
:105A00000122F5E790F83C20012A4FF0020209D06C
:105A100080F83D20026851610121002280F83D108C
:105A200080F83C20104670477047000010B50168B0
:105A300004460869800744BFC8685FEA807039D4AB
:105A40000869400744BFC8685FEA40703ED40869EF
:105A5000000744BFC8685FEA007045D40869C00603
:105A600044BFC8685FEAC0604AD40869C0071CBF69
:105A7000C8685FEAC07051D10869000644BFC868B1
:105A80005FEA006052D40869400644BFC8685FEA14
:105A9000406053D40869800646BFC8685FEA8060EA
:105AA00010BD6FF0200220460A61BDE81040FFF7EC
:105AB0003DBD00BF6FF002000861012020778869BA
:105AC000800743D02046FFF7AFFF45E06FF00400AA
:105AD000086102202077886910F4407F40D020467A
